:020000040800F2
:1000000000000220950C0008910C0008BD5E00085D
:10001000910C0008910C0008910C000800000000F1
:10002000000000000000000000000000910C00082B
:10003000910C000800000000910C0008415E0008CF
:10004000910C0008910C0008910C0008910C00081C
:10005000910C0008910C0008910C0008910C00080C
:10006000910C0008910C0008910C0008495A0008F6
:10007000555A0008AD470008615A00086D5A00083B
:10008000EDFF0008794F0008910C0008910C000862
:10009000910C0008910C0008910C0008910C0008CC
:1000A000910C0008910C0008910C0008910C0008BC
:1000B00005F4000811F400081DF40008AD4F000815
:1000C000910C0008B94F0008910C000875EC00086D
:1000D00081EC000821FE00084DFE000881FE0008AA
:1000E000910C0008910C000800000000910C000821
:1000F000910C0008910C0008910C0008910C00086C
:10010000910C0008910C000829F400088DEC0008FF
:10011000B5FE0008E9FE0008910C0008910C0008EB
:10012000910C0008910C0008B1EC0008E5EC000807
:1001300021000108910C0008910C0008910C0008A6
:1001400000000000000000000000000000000000AF
:10015000910C0008910C0008910C00081DFF00088C
:10016000C54F0008910C0008515E0008755E00083C
:10017000910C0008995E0008910C0008910C000891
:10018000910C0008910C000851FF000885FF000841
:1001900099EC0008A5EC0008910C0008910C0008EF
:1001A000910C0008910C0008910C0008910C0008BB
:1001B00069570008910C0008910C0008910C000888
:1001C000910C0008910C0008910C0008910C00089B
:1001D000910C0008910C0008910C0008910C00088B
:1001E000910C0008910C0008910C0008910C00087B
:1001F000910C0008910C0008910C0008910C00086B
:10020000910C0008910C0008910C0008910C00085A
:10021000910C0008910C0008910C0008910C00084A
:10022000910C0008910C0008910C000800000000DF
:10023000910C0008910C000800000000910C0008CF
:10024000910C0008910C0008910C0008910C00081A
:10025000910C0008910C0008910C0008910C00080A
:10026000910C0008910C0008910C0008910C0008FA
:10027000910C0008910C0008B9FF00080000000074
:10028000910C0008910C0008910C0008000000007F
:0802900000000000910C0008C1
:1002A00010B5054C237833B9044B13B10448AFF3B0
:1002B00000800123237010BD2004002400000000F2
:1002C0009467010808B5034B1BB103490348AFF31A
:1002D000008008BD00000000240400249467010889
:1002E00001F0FF01102A2BDB10F0070F08D010F8E7
:1002F000013B013A8B422DD010F0070F42B3F6D1EB
:10030000F0B441EA012141EA014122F007047FF003
:1003100000070023F0E80256083C85EA010586EA5A
:10032000010685FA47F5A3FA87F586FA47F6A5FA96
:1003300087F68EB9EED1F0BC01F0FF0102F00702A2
:1003400032B110F8013B013A83EA010313B1F8D14D
:100350000020704701387047002D06BF354603382E
:10036000073815F0010F07D1013015F4807F02BF67
:10037000013015F4C03F0130F0BC0138704700BFB8
:1003800081F0004102E000BF83F0004330B54FEA46
:1003900041044FEA430594EA050F08BF90EA020FB3
:1003A0001FBF54EA000C55EA020C7FEA645C7FEA46
:1003B000655C00F0E2804FEA5454D4EB5555B8BF69
:1003C0006D420CDD2C4480EA020281EA030382EADA
:1003D000000083EA010180EA020281EA0303362D6C
:1003E00088BF30BD11F0004F4FEA01314FF4801C3F
:1003F0004CEA113102D0404261EB410113F0004F51
:100400004FEA03334CEA133302D0524263EB430307
:1004100094EA050F00F0A780A4F10104D5F1200EA5
:100420000DDB02FA0EFC22FA05F2801841F1000100
:1004300003FA0EF2801843FA05F359410EE0A5F1D4
:1004400020050EF1200E012A03FA0EFC28BF4CF005
:10045000020C43FA05F3C01851EBE37101F00045BB
:1004600007D54FF0000EDCF1000C7EEB00006EEBC8
:100470000101B1F5801F1BD3B1F5001F0CD3490852
:100480005FEA30004FEA3C0C04F101044FEA4452A9
:1004900012F5800F80F09A80BCF1004F08BF5FEA30
:1004A000500C50F1000041EB045141EA050130BD10
:1004B0005FEA4C0C404141EB0101013C28BFB1F522
:1004C000801FE9D291F0000F04BF01460020B1FA6D
:1004D00081F308BF2033A3F10B03B3F120020CDA40
:1004E0000C3208DD02F1140CC2F10C0201FA0CF01E
:1004F00021FA02F10CE002F11402D8BFC2F1200C83
:1005000001FA02F120FA0CFCDCBF41EA0C01904038
:10051000E41AA2BF01EB0451294330BD6FEA040481
:100520001F3C1CDA0C340EDC04F11404C4F120026C
:1005300020FA04F001FA02F340EA030021FA04F37E
:1005400045EA030130BDC4F10C04C4F1200220FAD5
:1005500002F001FA04F340EA0300294630BD21FA13
:1005600004F0294630BD94F0000F83F4801306BFD9
:1005700081F480110134013D4EE77FEA645C18BFCD
:100580007FEA655C29D094EA050F08BF90EA020F64
:1005900005D054EA000C04BF1946104630BD91EA5C
:1005A000030F1EBF0021002030BD5FEA545C05D15F
:1005B0004000494128BF41F0004130BD14F580049E
:1005C0003CBF01F5801130BD01F0004545F0FE4112
:1005D00041F470014FF0000030BD7FEA645C1ABF47
:1005E000194610467FEA655C1CBF0B46024650EA7E
:1005F000013406BF52EA033591EA030F41F40021AA
:1006000030BD00BF90F0000F04BF0021704730B52F
:100610004FF4806404F132044FF000054FF0000104
:1006200050E700BF90F0000F04BF0021704730B5C5
:100630004FF4806404F1320410F0004548BF40429A
:100640004FF000013EE700BF42004FEAE2014FEAEF
:1006500031014FEA02701FBF12F07F4393F07F4FCA
:1006600081F06051704732F07F4208BF704793F0CD
:100670007F4F04BF41F40021704730B54FF46074E0
:1006800001F0004521F000411CE700BF50EA0102E3
:1006900008BF704730B54FF000050AE050EA01028C
:1006A00008BF704730B511F0004502D5404261EBFC
:1006B00041014FF4806404F132045FEA915C3FF43D
:1006C000D8AE4FF003025FEADC0C18BF03325FEADA
:1006D000DC0C18BF033202EBDC02C2F1200300FA8B
:1006E00003FC20FA02F001FA03FE40EA0E0021FAB0
:1006F00002F11444BDE600BF53B94AB9002908BF4E
:1007000000281CBF4FF0FF314FF0FF3000F0BEBAA1
:10071000ADF1080C6DE904CE00F050F9DDF804E00D
:10072000DDE9022304B0704760EE016A20EEA16AA1
:1007300020EE215A76EEC67A61EE205AF4EE677A00
:10074000F1EE10FA35EE257A04D6B0EE670AF0EE37
:10075000470A7047B4EE477AF1EE10FAF5D7DFEDAD
:10076000934AB0EEC04AB4EE644AF1EE10FACCBF40
:1007700001230023B0EEE04A00F39D80B4EE644A0A
:10078000F1EE10FA00F397800023DFED884AB0EE17
:10079000C14AB4EE644AF1EE10FAF0EEE13A48DCF8
:1007A000F4EE643AF1EE10FA43DC9BBBF0EEE66A3D
:1007B000F4EE646AF1EE10FA14DCB0EEC66AB4EE40
:1007C000646AF1EE10FA0DDCB0EEC55AB4EE645A6C
:1007D000F1EE10FA06DCF0EEE55AF4EE645AF1EEB2
:1007E00010FAB2DDB4EE400AF1EE10FA80F1D380D7
:1007F000F4EE600AF1EE10FA80F1C380B4EE411A13
:10080000F1EE10FA80F1B380F4EE611AF1EE10FA15
:1008100080F1A38061EEE07A60EE810AE0EE017A79
:10082000E0EE210A9FED627A67EE877A20EE877A02
:100830008BE7DFED5E7A9FED5D7AB4EE674AF1EE0D
:1008400010FACCBF0123002307EE903A11EE103AC4
:10085000F8EEE77A002BF0EEE77AF4EE473AB8BF0D
:10086000F1EE677AF1EE10FACCBF01230023B0EE6F
:10087000671A07EE903A11EE903AF8EEE77A002BFD
:10088000F0EEE77AB4EE400AB8BFF1EE677AF1EE27
:1008900010FAF0EE671A4CD6F4EE600AF1EE10FA98
:1008A000B8D710EE903A9FED437ADFED437A002BF4
:1008B00067FE270AAEE704EE903ADFED3C3A10EE11
:1008C000103AF8EEE44A002BF0EEE44AB4EE634A44
:1008D000B8BFF1EE644AF1EE10FACCBF0123002359
:1008E000B0EE640A04EE903A10EE903AF8EEE44A64
:1008F000002BF0EEE44AB4EE411AB8BFF1EE644AC0
:10090000F1EE10FAF0EE640A1DD6F4EE611AF1EE83
:1009100010FA78BF0123FFF538AF11EE903A9FED42
:10092000254ADFED254A002B4FF0010364FE241A0F
:100930002BE710EE103A9FED1F7ADFED1F7A002BA8
:1009400027FE270AA8E711EE103A9FED1A4ADFEDBD
:100950001A4A002B24FE241AD7E711EE903A9FED95
:10096000157ADFED157A002B67FE271A52E711EE94
:10097000103A9FED107ADFED107A002B27FE271A30
:1009800042E710EE903A9FED0B7ADFED0B7A002BE9
:1009900067FE270A32E710EE103A9FED067ADFED88
:1009A000067A002B27FE270A22E700BFFFFF7F7F82
:1009B0000000807F00000000000000802DE9F0476B
:1009C000089D04468E46002B4DD18A42944669D933
:1009D000B2FA82F252B101FA02F3C2F1200120FA16
:1009E00001F10CFA02FC41EA030E94404FEA1C4864
:1009F000210CBEFBF8F61FFA8CF708FB16E341EA60
:100A0000034306FB07F199420AD91CEB030306F1E5
:100A1000FF3080F01F81994240F21C81023E634406
:100A20005B1AA4B2B3FBF8F008FB103344EA0344AA
:100A300000FB07F7A7420AD91CEB040400F1FF33BF
:100A400080F00A81A74240F207816444023840EAFC
:100A50000640E41B00261DB1D4400023C5E9004335
:100A60003146BDE8F0878B4209D9002D00F0EF80B8
:100A70000026C5E9000130463146BDE8F087B3FAEB
:100A800083F6002E4AD18B4202D3824200F2F980D3
:100A9000841A61EB030301209E46002DE0D0C5E9D6
:100AA000004EDDE702B9FFDEB2FA82F2002A40F022
:100AB0009280A1EB0C014FEA1C471FFA8CFE012625
:100AC000200CB1FBF7F307FB131140EA01410EFBC9
:100AD00003F0884208D91CEB010103F1FF3802D270
:100AE000884200F2CB804346091AA4B2B1FBF7F06A
:100AF00007FB101144EA01440EFB00FEA64508D98D
:100B00001CEB040400F1FF3102D2A64500F2BB80C9
:100B10000846A4EB0E0440EA03409CE7C6F1200718
:100B2000B34022FA07FC4CEA030C20FA07F401FA5E
:100B300006F31C43F9404FEA1C4900FA06F3B1FBE7
:100B4000F9F8200C1FFA8CFE09FB181140EA01414C
:100B500008FB0EF0884202FA06F20BD91CEB0101E9
:100B600008F1FF3A80F08880884240F28580A8F141
:100B700002086144091AA4B2B1FBF9F009FB101193
:100B800044EA014100FB0EFE8E4508D91CEB010131
:100B900000F1FF346CD28E456AD90238614440EAD4
:100BA0000840A0FB0294A1EB0E01A142C846A64654
:100BB00056D353D05DB1B3EB080261EB0E0101FADD
:100BC00007F722FA06F3F1401F43C5E9007100263A
:100BD0003146BDE8F087C2F12003D8400CFA02FC90
:100BE00021FA03F3914001434FEA1C471FFA8CFEA0
:100BF000B3FBF7F007FB10360B0C43EA064300FB90
:100C00000EF69E4204FA02F408D91CEB030300F12D
:100C1000FF382FD29E422DD9023863449B1B89B2E4
:100C2000B3FBF7F607FB163341EA034106FB0EF36D
:100C30008B4208D91CEB010106F1FF3816D28B421A
:100C400014D9023E6144C91A46EA004638E72E46E6
:100C5000284605E70646E3E61846F8E64B45A9D2DE
:100C6000B9EB020864EB0C0E0138A3E74646EAE74D
:100C7000204694E74046D1E7D0467BE7023B6144FB
:100C800032E7304609E76444023842E7704700BF64
:100C9000FEE700BF0B480C4A904203D0121A0B49E2
:100CA00012F092FD0A480B4A904203D0121A00211A
:100CB00012F098FD05F05AFB12F05AFD01F0F4FD18
:100CC000FEE700BF0000002420040024C4670108E0
:100CD0002004002428AD0524704700BF704700BFE2
:100CE00049424FF480621030C9B212F07BBD00BFA0
:100CF000704700BF40207047802070472DE9F84FB3
:100D00000F4696000168144605463246386812F0D0
:100D10005BFD794B1B7863B3DFF81CB2DFF81C92E4
:100D20009BF80080B8F1000F00F0BA80734B324698
:100D3000D9F800A0296803EB8A0012F045FD04EB06
:100D40000A026E4BB2F5004FC9F8002011DB0122F8
:100D500003F580316A4B6B481A704FF4803212F001
:100D600033FD88F001084FF480438BF80080C9F808
:100D70000030654B1B786BB1644B1B78002B68D03F
:100D8000DFF8AC81624AD8F8003003EB04099145E2
:100D9000C0F0A3805F4B1B78002B58D05E4E45F609
:100DA000C0505E4B3168D3ED006A07EE901A9FED9C
:100DB0005C7A5C4AF8EEE77AE6EE877AFDEEE77A4F
:100DC00017EE903A82FB03C24FEAE37ECEEB622E2F
:100DD00000FB1E3E002C00F08A8004EB010C2D6805
:100DE0003868AEEB010E504C4E4FCA1745F6C0584E
:100DF0000EEB010387FB01A9F5EC017A87FB03A742
:100E0000C2EB692208FB1212013104EB8202614538
:100E1000C2ED007A4FEAE37290ED007AC2EB6727E9
:100E200008FB173304EB8303D3ED007A77EE877A60
:100E3000E0EC017AD8D13B4B4FEAEC7245F6C05159
:100E400083FB0C03C2EB632201FB12C23260BDE8DC
:100E5000F88F364B1B78002B9CD0354B18684BF61F
:100E60007F33984296DDDFF8D8C0002C41D03B6834
:100E7000DCF800102F4A1E4402EB8102D3ED007A09
:100E8000B2EC017A77EE877AE3EC017AB342F5D1DE
:100E90000B1993FBF0F200FB1233CCF8003079E72A
:100EA000184B3246D9F800A0296803EB8A0012F0EB
:100EB0008BFC0AEB0402134BB2F5004FC9F800207B
:100EC000FFF657AF03F5803101220D4B0B481A7026
:100ED0004FF4803212F078FC43E716483246296816
:100EE00000EB830012F070FCC8F8009052E78C46CB
:100EF000A1E7DCF80010CBE7E57F0524000002C085
:100F0000C07F0524000000C0A47F0524E47F0524E1
:100F100000F22B00487B01243C0400244C7B01247C
:100F20000080BB46F119760548040024A57F0524FE
:100F3000A07F0524000004C0E67F052440040024AF
:100F40004404002410B504464FF4826112F003F803
:100F5000204610BD2DE9F04F4FF0B00885B0054692
:100F600000F1080700F18F0600F28F494FF47A7BF9
:100F70004FF0000A297B022303AA3846CDF800B0BF
:100F8000A6F180048DF80CA08DF80D8004F0B6F861
:100F9000297B022303AA3846CDF800B08DF80CA0B7
:100FA0008DF80DA004F0AAF84FF0100C297B022355
:100FB00003AA3846CDF800B08DF80CA08DF80DC00E
:100FC00004F09CF84FF47A7014F801CF4FF0400E03
:100FD000297B0223009003AA38468DF80CE08DF897
:100FE0000DC004F08BF8B442ECD104F1800608F196
:100FF00001084E455FFA88F8B8D105B0BDE8F08F1A
:101000002DE9F04F89B008AC9DF84870019104E9D2
:101010000C000B78002B00F0AB801A469DF818806E
:101020009DF819300646454690460393079B059365
:10103000A8F12004E3B25E2B00F29E8033685E4A82
:10104000DB68934240F09B808020B3882B4483422E
:1010500000F392803368594A9B68934240F0928033
:101060004020F188039A02918B18834200F3848018
:10107000002A00F0918002FB04F46FF00049059B08
:10108000A1441444B6F804B003EB4909023BCDF87F
:10109000108003EB44030C469A4639F802CFA5B3FF
:1010A00004F007034FF0010EE20859460EFA03FE62
:1010B0000BF110034FFA8EFE03EBC21200236FEA0E
:1010C0000E0832440DE07F2906D83F2C04D8107852
:1010D00097B14EEA00001070013301320131AB428A
:1010E00013D00CFA03F00004EDD47F29F4D83F2C80
:1010F000F2D81078002FECD0013308EA000001325A
:101100000131AB4202F8010CEBD1D14504F10104ED
:10111000C3D1DDF8108032680BEB05042649D36893
:10112000A4B28B4234D18020844204D3D3682249B4
:101130008B423AD17F249368204AB480934224D1D1
:101140004020029B834206D333681C4A9B6893422B
:1011500025D13F230293029BF380019B18784045E1
:1011600007D113F8018F0193B8F1000F7FF460AF3E
:10117000002009B0BDE8F08F4FF00008EDE73046E1
:10118000984762E7304698476BE730469847D8E77C
:10119000304698473268C7E7B6F804B0BBE7304638
:1011A0009847013883B20293D5E730469847013813
:1011B000326884B2BFE700BFF90C0008F50C0008E4
:1011C0002DE9F04F85B0A1F1200504AC9DF83870F1
:1011D000009104E90C00EBB25E2B00F295800368ED
:1011E00080465D4ADB689DF8084093429DF809609F
:1011F00040F094808020B8F804302344834200F308
:101200008380D8F80030554A9B68934240F088802C
:101210004020B8F8062093190192834274DC002E16
:1012200000F0898006FB05F56FF00040039B9646B1
:1012300028442E44B8F804A003EB4000023B03EB23
:10124000460B30F8026FBCB30EF007034FF0010CF1
:101250004FEADE0251460CFA03FC0AF110034FFA82
:101260008CFC03EBC21200236FEA0C0942440EE02F
:101270007F2907D8BEF13F0F04D815789FB14CEAFB
:10128000050515700133013201319C4214D006FA74
:1012900003F52D04ECD47F29F4D8BEF13F0FF1D82B
:1012A0001578002FEBD0013309EA05050132013131
:1012B0009C4202F8015CEAD158450EF1010EC0D102
:1012C000D8F8003054442449DA68A4B28A422DD1B7
:1012D000802084421CD29B68204AA8F80440934294
:1012E00021D14020019B834207D3D8F800301B4A0C
:1012F0009B68934229D13F230193DDE90003A8F8BD
:10130000063005B0BDE8F08F002005B0BDE8F08FD5
:10131000DA6811498A4211D17F24DCE798476AE7ED
:101320004046984775E740469847DBE74046904778
:10133000D8F80030CDE7B8F804A0C1E740469047A0
:101340000138D8F8003084B2C5E7404698470138E4
:1013500083B20193D1E700BFF90C0008F50C000837
:101360002DE9F04F89B01D46884606901046129C24
:1013700010F8013B13999DF85060009233B10022A0
:1013800010F8013B0132002BFAD193B22A78687829
:1013900012FB03F302B21BB223EAE373082900F243
:1013A000A981DFE811F0020114012001340142019A
:1013B0005001670171010900A18827880F44B4F921
:1013C0000610FF1A0029BFB2C0F2FF80B4F802C0B5
:1013D00006980CEB6104C280A4EB52028380078064
:1013E00094B24480A64AD8F8003011460192DA68D7
:1013F0008A4240F08D818020B84205D8DA68019990
:101400008A4240F09A817F279E4A9B68A8F8047020
:101410009342039240F089814020A04207D8D8F837
:101420000030039A9B68934240F082813F24009BE6
:10143000A8F8064093F800B06B782C7804936B689A
:101440000793BBF1000F00F0AC80ABF12005EBB2CD
:101450005E2B00F22E81D8F80030019ADB689342AF
:1014600040F02A818020B8F8043023449842C0F22A
:101470002081D8F80030039A9B68934240F01F8186
:101480004020B8F80610049A02918B189842C0F2D6
:101490001081002A00F01E8102FB05F56FF0004E5E
:1014A000079BAE441544CDF814B003EB4E0E023B3F
:1014B000B8F804A003EB45030D469B463EF8027FB7
:1014C000A4B305F007034FF0010CEA0851460CFAEB
:1014D00003FC0AF110034FFA8CFC03EBC212002349
:1014E0006FEA0C0942440DE07F2906D83F2D04D84D
:1014F000107896B14CEA00001070013301320131CE
:101500009C4213D007FA03F00004EDD47F29F4D8ED
:101510003F2DF2D81078002EECD0013309EA0000FC
:10152000013201319C4202F8010CEBD1F34505F187
:101530000105C3D1DDF814B0D8F800200AEB04058A
:101540000199D368ADB28B4240F0BF8080208542C4
:1015500005D3D36801998B4240F0C5807F259368FD
:10156000039AA8F80450934240F0AC804020029BBC
:10157000834208D3D8F80030039A9B68934240F026
:10158000AC803F230293029BA8F80630009A1378A0
:101590005B4506D112F801BF0092BBF1000F7FF44A
:1015A00054AF069809B0BDE8F08FB4F9041027884D
:1015B0000029B8BF013107EB6107B4F90610A7EBAA
:1015C00063070029BFB2BFF601AF0131FEE6B4F9EF
:1015D00000700699B4F902400F80BFB24C80A4B2EB
:1015E0008B80CA80FEE6B4F9041027880029B4F97C
:1015F0000240B8BF013107EB610706998B80A7EB6A
:1016000063034C80A4B29FB2CA800F80EAE6A1882F
:101610002788B4F902400F4406998B80FB1A4C804E
:10162000A4B29FB2CA800F80DCE6E78861883944A3
:10163000B4F90070081A069984B20F808B80BFB28B
:10164000CA804C80CEE6B4F9041027880029B8BFC0
:10165000013107EB6107A7EB6307B4F802C0BFB223
:10166000E488069964448B80201ACA800F8084B273
:101670004C80B7E62788A1880F44FF1AEDE700BF2A
:10168000F90C0008F50C0008B4F90610B4F802C013
:101690000029B4F900700698B8BF0131C2800CEB84
:1016A000610407808380BFB2A4EB520294B24480ED
:1016B00098E64FF0000B69E740469847D3E640466E
:1016C0009847DEE64046984751E740469847D8F8A5
:1016D00000203CE7B8F804A02EE7404698470138C0
:1016E00083B202934FE7404698470138D8F800206C
:1016F00085B234E7D8F800300024069A12491480E5
:1017000054809480D480DA6801918A4205D02746BB
:1017100040469047D8F800306EE69B680B4AA8F820
:101720000440934203923FF482AE4046984774E6E9
:1017300040469847013884B279E6404690470138E0
:10174000D8F8003087B25FE6F90C0008F50C000805
:101750007F291ED83F2A1CD86BB1D3084FF0010C4B
:1017600002F0070201EBC3130CFA02F2C1180B7C62
:101770001A430A747047D3084FF0010C02F00702B5
:1017800001EBC3130CFA02FCC1180A7C22EA0C021A
:101790000A7470472DE9F04F83B05C1A0C9E002C40
:1017A0009DF83490A6EB0208B8BF6442B8F1000F70
:1017B000B8BFC8F100088B428CBF4FF0010A4FF050
:1017C000FF3A9642A4EB080C51D84FF0FF357F2B1F
:1017D000019512D83F2E10D8F50806F0070E012704
:1017E00003EBC5150544B9F1000F47D007FA0EF712
:1017F00095F810E047EA0E072F74964201D18B420C
:1018000029D0C8F100077F2914D83F2A12D8D5085B
:1018100002F0070B4FF0010E01EBC5150544B9F1BD
:10182000000F1BD00EFA0BFE95F810B04EEA0B0E0F
:1018300085F810E0B7EB4C0F4FEA4C0502DAACEB41
:10184000080C5144AC4202DD019DA4442A44994253
:10185000D9D19642D7D103B0BDE8F08F0EFA0BFB79
:1018600095F810E02EEA0B0E85F810E0E2E701256E
:101870007F2B0195C5D83F2EAED9C2E707FA0EFEE1
:101880002F7C964227EA0E072F74B8D0B9E700BF25
:101890002DE9F04F2DED068B83B01F4680460D4697
:1018A0009DF8503016460193139B002BC0F2218205
:1018B000129A134406EE103ADDED127AB8EEC66BBA
:1018C0009FEDCD4BB8EEE77B9FEDCD5B27EE047B24
:1018D00026EE046B87EE050B86EE05ABF7EEC08BAC
:1018E000B0EE680A11F03CFB07EE907AB7EECAAB97
:1018F000F8EE679AB0EE408AB0EE680A11F038FD53
:1019000060EE698AB0EE4A0A11F02AFBB0EE409A06
:10191000B0EE4A0A11F02CFD20EE690A29EE888A01
:1019200029EE899A70EE687AF0EE006A39EE487A0C
:1019300067EEA77AE7EE077AF4EEE67AF1EE10FAB0
:1019400006D5139BB42B40F396804FF0010901E0BC
:101950004FF00009012478424FF0000C0095E31B82
:10196000214627462246A340B9F1000F6AD14242E0
:1019700006EE90CACCF1000107EE102AB8EEE66A36
:1019800007EE901A06EE900AB8EEC77A139A66EE42
:10199000084AF8EEE77AB42A27EE284AF8EEE66A13
:1019A00067EE885A74EEC43A26EEA85A26EE096A03
:1019B00066EE806A67EE897A27EE007AF5EEC03A25
:1019C00040F3F280F1EE10FA00F17F8176EE473AB3
:1019D00074EEC54AF5EEC03AF1EE10FAF5EEC04AE3
:1019E000CCBF01220022F1EE10FA00F1778136EE31
:1019F000666A35EEC55AB5EEC06AF1EE10FAB5EE7C
:101A0000C05ACCBF01210021F1EE10FA00F16F8124
:101A100077EEE66AF5EEC06AF1EE10FACCBF012768
:101A2000002775EEC45AF5EEC05AF1EE10FA00F137
:101A3000478177EEC77AF5EEC07AF1EE10FACCBFA7
:101A400001240024002A40F08A80002964D1BFB913
:101A5000C4BB9C4558DB0CF1010C03EB4C0E1CEB9A
:101A6000000F0EF1010E00F0C08098424FDB73466C
:101A700000287FF779AF03B0BDEC068BBDE8F08F8F
:101A8000009DA6EB0C0E00EB050ABAF17F0FDFD824
:101A9000BEF13F0FDCD84FEADE0B019D0AEBCB1AFB
:101AA000002D00F0B1800EF0070BC2444FF0010E84
:101AB0000EFA0BFE9AF810B04EEA0B0E8AF810E000
:101AC000002CC6D0009DA6EB0C0EA5EB000ABAF1C7
:101AD0007F0FBED8BEF13F0FBBD84FEADE0B019D92
:101AE0000AEBCB1A002D00F0AE800EF0070BC244BB
:101AF0004FF0010E9C450EFA0BFE9AF810B04EEA1C
:101B00000B0E8AF810E0A6DA98429E46AFDA013052
:101B10000EEB40030133ABE7009D0CEB060E00EB30
:101B2000050ABAF17F0F92D8BEF13F0F8FD84FEA66
:101B3000DE0B019D0AEBCB1A002D73D00EF0070BC4
:101B4000C2444FF0010E0EFA0BFE9AF810B04EEAA6
:101B50000B0E8AF810E0002F3FF47AAF90E7009D5B
:101B60000CEB060EA5EB000ABAF17F0F3FF66DAF46
:101B7000BEF13F0F3FF669AF4FEADE0B019D0AEB66
:101B8000CB1A002D6DD00EF0070BC2444FF0010EA2
:101B90000EFA0BFE9AF810B04EEA0B0E8AF810E01F
:101BA00000293FF454AFB7E7F1EE10FA7ED44A466D
:101BB00074EEC54AF5EEC04AF1EE10FA6CD400217D
:101BC00035EEC55AB5EEC05AF1EE10FA5AD40027D8
:101BD00075EEC45AF5EEC05AF1EE10FA3FF529AF92
:101BE0000024002A3FF431AFB9E798428FDB00238D
:101BF0003BE700BFAFF300807A008BFCFA2109407D
:101C00000000000000806640C2444FF0010B0EF05F
:101C1000070E0BFA0EFE9AF810B02BEA0E0E8AF899
:101C200010E015E7C2444FF0010B0EF0070E0BFA5F
:101C30000EFE9AF810B02BEA0E0E8AF810E0002F74
:101C40003FF406AF1CE7C2444FF0010B0EF0070E45
:101C50000BFA0EFE9AF810B02BEA0E0E8AF810E07E
:101C6000F7E6C2444FF0010B0EF0070E0BFA0EFE22
:101C70009AF810B02BEA0E0E8AF810E000293FF413
:101C8000E6AE49E777EEE66AF5EEC06AF1EE10FAE5
:101C9000CCBF012700279BE736EE666AB5EEC06A27
:101CA000F1EE10FACCBF0121002189E776EE473A28
:101CB000F5EEC03AF1EE10FACCBF0122002277E730
:101CC0000124002A3FF4C1AE49E774EEC54A01225F
:101CD000F5EEC04AF1EE10FA7FF589AE35EEC55A41
:101CE0000121B5EEC05AF1EE10FA7FF591AE012751
:101CF00097E6DDE91223134406EE102A1293139B94
:101D00005B421393D8E500BF2DE9F04F87B09DF8F3
:101D10004850109C2E4601959DF844509EB3994220
:101D20002ED89946A24228D87F29164694BF002370
:101D3000012308E09CF810804EEA080E8CF810E0B1
:101D40000136B44219D33F2EFAD8002BF8D14FEA0E
:101D5000D60C06F0070E4FF0010801EBCC1C08FA78
:101D60000EFE8444002DE5D19CF810B001362BEA1C
:101D70000E0AB4428CF810A0E5D201318945D1D2C7
:101D800007B0BDE8F08FA3EB0108B8F1000FB8BFB2
:101D9000C8F100089942C0F04E817F2B4FF0FF3A06
:101DA00094BF002601263F2A009694BF00270127F2
:101DB0000297A6B99FB9D60802F0070C012703EBDA
:101DC000C6160644002D00F0948107FA0CF796F829
:101DD00010C047EA0C073774002602960096994215
:101DE00000F09781464694468E46BEF17F0F16D886
:101DF000BCF13F0F13D84FEADC070CF0070B4FF094
:101E000001090EEBC7170744002D00F0398109FACC
:101E10000BF997F810B049EA0B0987F81090770092
:101E200018BFD644B84502DD46440CF1FF3C73456B
:101E3000DBD16245D9D100260496A4EB0209009FAC
:101E4000B9F1000FB8BFC9F100093F2C94BF0026BB
:101E50000126A242C9F100080396C0F02381002F99
:101E600040F05081002E40F04D814FF0FF3600963B
:101E7000E60803EBC6160644002D00F01E814FF065
:101E8000010C04F007070CFA07F796F810C047EAB0
:101E90000C07377400260396A24200F03D81C44629
:101EA00016461F4605927F2F15D83F2E13D84FEAAE
:101EB000D60E06F0070B4FF0010A07EBCE1E864444
:101EC000002D00F0E6800AFA0BFA9EF810B04AEAFC
:101ED0000B0A8EF810A0B8EB4C0F4FEA4C0E02DA4A
:101EE000ACEB090C013FBEF1000F01D0009A164483
:101EF000BB42D8D1B442D6D1059AA1EB030EBEF1B4
:101F0000000FB8BFCEF1000E7F2994BF4FF0000A3A
:101F10004FF0010A99428CBF4FF001094FF0FF3991
:101F2000BAF1000F13D1039E8EB9E60801EBC61675
:101F30000644002D00F0D3804FF0010C04F0070799
:101F40000CFA07F796F810C047EA0C073774049E9E
:101F500026BB774626467F2B14D83F2E12D84FEA51
:101F6000D60C06F0070B4FF0010803EBCC1C8444A1
:101F7000002D73D008FA0BF89CF810B048EA0B0853
:101F80008CF810805FEA470C18BF4B44E64501DD32
:101F90007744013E9942DED1B442DCD1A2EB040E7B
:101FA000BEF1000FB8BFCEF1000EA2428CBF4FF0C1
:101FB00001084FF0FF38CEF1000CBAF1000F0ED13E
:101FC000029B63B9D30802F00707012601EBC31394
:101FD0000344002D7CD0BE401F7C3E431E74019BF9
:101FE000002B7FF4CDAE66460B467F2B12D83F2CDC
:101FF00010D8E70804F0070A4FF0010903EBC717F0
:102000000744A5B309FA0AF997F810A049EA0A09A2
:1020100087F81090BCEB460F4FEA460702DAA6EBB2
:102020000E06013B07B144449942DED1A242DCD105
:1020300007B0BDE8F08F3F2A4FF0010A94BF002699
:1020400001267F2B029694BF002701270097002EC0
:102050007FF4C8AE002F3FF4AEAEC3E608FA0BFB28
:102060009CF8108028EA0B088CF810808AE709FA9F
:102070000AFA97F8109029EA0A0987F81090C9E738
:1020800009FA0BFB97F8109029EA0B0987F81090D2
:10209000C5E60AFA0BFB9EF810A02AEA0B0A8EF896
:1020A00010A018E797BB8EBB01260096E60803EB4D
:1020B000C6160644002D7FF4E2AE012704F0070C9B
:1020C000039507FA0CFC377C27EA0C073774E3E624
:1020D00006FA07F71E7C26EA07061E747FE701272B
:1020E00004F0070C07FA0CFC377C27EA0C0737745E
:1020F0002DE707FA0CFC377C029527EA0C070095C0
:1021000037746CE64FF0FF360096C5E60126009660
:10211000C5E60126049690E601260196EDE600BF8D
:10212000F8B5874C2DED028B204602F07DF823791F
:102130001BB1A37A7F2B00F08A80824B1B7803F0BF
:102140000102C3F340018048C3F380037F4F804CFA
:10215000027039702370002A40F095807D4B1A7808
:102160000AB122782AB93B78002B57D1BDEC028BFB
:10217000F8BD794A002112781970784B002A40F096
:10218000B18001224FF40041754800F09FFC00250A
:10219000724CDFED748A2E46D4ED016A94ED007A1C
:1021A000B0EEE68AF0EEC77AF4EEC87AF1EE10FAF5
:1021B00058BFB0EE678AB5EE408AF1EE10FA11D042
:1021C00086EE880AC7EE087A20EE000AA7EEA70A74
:1021D000B5EE400AF1EE10FA00F1AD80F1EEC07AF2
:1021E00028EE278AB4EEE88A44F201030834F1EEBF
:1021F00010FA02DDF0EE488A2E4601359D42CBD121
:102200004BF68032584B02FB06F207EE902AFAEEAC
:10221000E87AC3ED007A3B78002BA7D00021534821
:1022200002F068FA524B9FED537AD3ED007A77EEC5
:10223000C07AF0EEE77AF4EEC77AF1EE10FA58DCE5
:102240000220BDEC028BBDE8F84003F0A9BE3D4D75
:102250002B78013303F007032B70002B64D000248C
:102260000121454800F046FDC82003F099FE0021F9
:102270004148013400F03EFDC82003F091FE2B7868
:10228000A342EDDC5BE73D4D3D4E284601F0CCFF1F
:10229000304601F0C9FFAB7A2979A3F1FF0539482F
:1022A000B27AB5FA85F56D090570A2F1FF053648D9
:1022B000B5FA85F56D09057051B93379002B3FF4F6
:1022C0004DAF7F2A7FF44AAF304B00221A6045E7BA
:1022D0007F2B22D12E49002033790860002B3FF458
:1022E0003DAFEEE701224FF400412A4800F0EEFB3B
:1022F0004DE70121204883ED000A00F0FBFCC820D7
:1023000003F04EFE1C48002100F0F4FC0220BDEC5E
:10231000028BBDE8F84003F043BE317909B17F2A52
:10232000D2D0802BD0D019E7074A084F084C137041
:102330003B70237012E711F04BF9F0EE407A4FE753
:10234000B07F0524AC7F0524A47F0524487B0124AD
:10235000E57F0524C07F0524E67F0524507B01240A
:10236000000002C000000000A87F0524787F05243B
:102370004C7B01240AD7A33C607F0524D47F05242D
:10238000C47F0524E47F0524A57F0524440400249C
:10239000A07F0524000000C02DE9F04FA44D0024CB
:1023A0002DED028B8FB095ED000A05A906A800F06F
:1023B0001FFCA04BD5ED007AB0EE408A9E4A0DF18D
:1023C000100AFDEEE77A8DF8274093E803000B0C26
:1023D0000890ADF8241008A88DF82630082117EED3
:1023E000903A11F0BDFA059BADF81040092B40F270
:1023F0000881FFEE007A00230793B4EEE78AF1EE3E
:1024000010FA07DDF7EE007AB4EEE78AF1EE10FA83
:1024100000F1FD8007AB08EE903A884E00214FF4A2
:10242000806206F1100011F0DDF9082306F1610168
:1024300086F8623006F1120313F8012F42F0080209
:1024400099421A70F8D196F8E233032443F020033E
:1024500086F8E233E20804F00701012306EBC2121A
:102460001C448B4092F862103D2C43EA010382F831
:102470006230EFD196F8933343F0200386F893331C
:102480006F4BA3F14F0113F8012D42F02002994246
:102490001A70F8D1F37C43F00803F374E20804F0F7
:1024A00007010123013C06EBC2128B40032CD17CB7
:1024B00043EA0103D374F1D196F88C3043F008035A
:1024C00086F88C305F4B03F1270113F8012F42F09F
:1024D000080299421A70F8D196F80C3443F02003A0
:1024E00086F80C34E20804F00701012306EBC2125F
:1024F0001C448B4092F88C103D2C43EA010382F877
:102500008C30EFD196F8E53343F0200386F8E533BD
:102510004D4BA3F1270113F8012D42F020029942FF
:102520001A70F8D196F8653043F0080386F86530E4
:10253000E20804F007030125013C06EBC21205FA8C
:1025400003F3032C92F8651043EA010382F8653027
:10255000EED100270AAE26234FF055094FF0270B86
:10256000069A0CA8ADF82E3034494FF01408374BBA
:10257000029501970096ADF82890ADF82A40ADF885
:102580002CB0FEF7EDFEADF828904FF02909524629
:102590000CA82F4B29490096ADF82A90ADF82CB025
:1025A000ADF82E80CDE90175FEF7DAFEADF82A9080
:1025B0004FF04D0918EE902A0CA8254B1F490096A4
:1025C000ADF82840ADF82E80ADF82C90CDE901751E
:1025D000FEF7C6FE082308AA0CA8ADF82A30174952
:1025E0001B4B0096ADF82840ADF82C90ADF82E802E
:1025F000CDE90175FEF7B4FE0FB0BDEC028BBDE86E
:10260000F08F0D4A0221504611F0AAF9F1E6DFEDF4
:10261000117A07A8084A042128EE278A08EE900AB2
:10262000FDEEC87A17EE903A11F09AF9F5E600BF80
:10263000A87F052470400108AC400108507B0524A8
:10264000337F0524B47B05245D7F05248C000024A2
:10265000840000240000C84284B070B584B00446F1
:102660004FF47A7609AD85E80E009DF8383029469A
:102670000025037102F0ACFCAE2303AA00968DF88E
:102680000D302046217902238DF80C5002F036FDE2
:10269000D52303AA0096204621798DF80D30022318
:1026A0008DF80C5002F02AFD802303AA00962046E4
:1026B00021798DF80D3002238DF80C5002F01EFDAB
:1026C000A82303AA0096204621798DF80D30022315
:1026D0008DF80C5002F012FD3F2303AA009620460D
:1026E00021798DF80D3002238DF80C5002F006FD93
:1026F000DA2303AA0096204621798DF80D300223B3
:102700008DF80C5002F0FAFC122303AA0096204622
:1027100021798DF80D3002238DF80C5002F0EEFC7B
:10272000D32303AA0096204621798DF80D30022389
:102730008DF80C5002F0E2FC03AA009602232179E6
:1027400020468DF80C508DF80D5002F0D7FC402338
:1027500003AA0096204621798DF80D3002238DF8CA
:102760000C5002F0CBFCA62303AA00962046217948
:102770008DF80D3002238DF80C5002F0BFFCA4231D
:1027800003AA0096204621798DF80D3002238DF89A
:102790000C5002F0B3FC8D2303AA00962046217949
:1027A0008DF80D3002238DF80C5002F0A7FC142395
:1027B00003AA0096204621798DF80D3002238DF86A
:1027C0000C5002F09BFCA12303AA0096204621791D
:1027D0008DF80D3002238DF80C5002F08FFCC823C9
:1027E00003AA0096204621798DF80D3002238DF83A
:1027F0000C5002F083FC812303AA00962046217925
:102800008DF80D3002238DF80C5002F077FC8F23E9
:1028100003AA0096204621798DF80D3002238DF809
:102820000C5002F06BFCD92303AA009620462179B4
:102830008DF80D3002238DF80C5002F05FFC25233B
:1028400003AA0096204621798DF80D3002238DF8D9
:102850000C5002F053FCDB2303AA0096204621799A
:102860008DF80D3002238DF80C5002F047FC342314
:1028700003AA0096204621798DF80D3002238DF8A9
:102880000C5002F03BFCAF21009603AA02238DF806
:102890000D10204621798DF80C5002F02FFC04B069
:1028A000BDE8704004B070472DE98048002195B024
:1028B0005F484FF0020800F0DDFA10215C48002567
:1028C00000F0FCF903215A48012400F0DBF95949D2
:1028D00057480EAE00F0D2F98DF814808DF81550DF
:1028E0004246059909A801F0CDFC0423012209A95B
:1028F000514801F0DBFC504801F0E6FE3C23102279
:1029000011958DF84C304D4B8DF848200E95DFF821
:102910004891CDE90F3414AB13E907008DE80700A7
:10292000474896E80E00A0F10807FFF795FE0C2334
:102930008DF818409FED430A22468DF819302B463A
:1029400006994148CDF8008001F038FC0B238DF842
:102950001C8022468DF81D302B469FED3A0A0799C0
:102960003A48CDF8008001F029FC0A218DF820803A
:102970002B468DF8211022469FED320A34480899E3
:10298000009401F01BFCFFF7CBFB99F80030002B03
:10299000F9D0304D4FF0B008FFF7FEFC4FF47A7BD2
:1029A0004FF0000A397B022332462548CDF800B0AB
:1029B000A5F180048DF838A08DF8398002F09EFBD7
:1029C000397B022332461E48CDF800B08DF838A07E
:1029D0008DF839A002F092FB4FF0100C397B0223E6
:1029E00032461748CDF800B08DF838A08DF839C0C0
:1029F00002F084FB4FF47A7A14F801CF4FF0400EC6
:102A0000397B022332460E48CDF800A08DF838E01D
:102A10008DF839C002F072FBA542EBD108F1010834
:102A200080355FFA88F8B8F1B80FB7D1ABE700BFCF
:102A3000607F0524FD0C0008787F0524010801094A
:102A4000587B052400000000D47F0524C47F0524A2
:102A5000B07F0524DF7B0524E57F052410B51148F0
:102A60000024114A1149046044610462C46310F0F7
:102A70006DFA0F4B0F480C4A03600F49846010F049
:102A800065FA0E49084A0E4810F060FA064A0B49EA
:102A90000C4810F05BFA044A08490B48BDE81040A6
:102AA00010F054BA607F052400000024DD0C0008FB
:102AB000B8400108507B0524F10C0008D90C00082F
:102AC000D47F0524C47F0524B07F052401292DE986
:102AD000F04380461C462DED068B83B06ED0002956
:102AE0000F4691464FEA4202B8BF4F1C0E46019274
:102AF0007F1003EBC7053946FFF7E8FF019A08EBA3
:102B000089002B463946FFF7E1FF012E51DD07EE24
:102B1000906A0026B8EEE7AA07EE906A9FED327A37
:102B2000D4ED009A0136B8EEE70ADFED307A94ED85
:102B3000019A60EE277A20EE070AC7EE8AAA80EE95
:102B40000A0A10F03BFBB0EE408AB0EE6A0A10F0C1
:102B500007FAF0EE408AB0EE6A0A10F009FC28EE9F
:102B6000000A68EE288AD5ED010AD5ED006A20EE4C
:102B7000C07A68EEA07AA8EEA67AE0EE267AF4EEA5
:102B8000477AF1EE10FA22D639EE876A083579EEE7
:102B9000276AB74239EEC77A04F1080479EE677AFA
:102BA00004ED026A44ED016A05ED027A45ED017A11
:102BB000B2DC03B0BDEC068BBDE8F08302680023F5
:102BC0002260636003B0BDEC068BBDE8F083F0EEDD
:102BD000401AB0EE681AB0EE660AFDF7A5FDB0EE39
:102BE000407AF0EE607ACFE700000080DB0FC9C0CA
:102BF000DFED1F7A38B580EE270A05460C462DED2D
:102C0000028B10F04DFBB2EE088AFAEE027AF0EE7B
:102C1000408AF0EE480AE0EE087AB0EE670A10F05B
:102C2000ADFCB9EE047AF8FE407AFDEEE76A30EECC
:102C3000670A104BA8EE887A0F4916EE902A002AF0
:102C4000B8BF5242C7EE087AA3FB0203DB0803EBCE
:102C50004303A2EB8303BDEC028B51F823302B60BE
:102C6000F8FE677AFDEEE77AC4ED007A38BD00BF62
:102C700013D08241ABAAAAAA04000024143001F0A8
:102C800069BA00BF38B500F1140504462DED028B7A
:102C9000284601F01BFA284601F014FA2846B0EE47
:102CA000408A01F0FDF9D0ED007AF8EE677A88EEFF
:102CB000277ABDEC028B84ED0E7A38BD38B500F171
:102CC000140504462DED028B284601F0EDF9284647
:102CD00001F0F8F92846B0EE408A01F0E1F9D0EDB4
:102CE000007AF8EE677A88EE277ABDEC028B84EDE5
:102CF0000E7A38BD253001F0EBBF00BF10B540F2B1
:102D000003338EB000244FF60B7240F20341ADF84E
:102D1000083009A80123ADF81020ADF82420224680
:102D2000ADF80C100094029907940C94CDE9054479
:102D3000CDE90A4401F0E6FD04A8012322460399E7
:102D4000009401F0DFFD09A801F0C2FE10B90120D6
:102D50000EB010BD04A801F0BBFEA0420CBF0220C3
:102D600020460EB010BD00BF2DE9F04103239AB0FC
:102D7000012700240646CDE914373B4BCDE910432B
:102D800040F20453CDE91647ADF84830FFF7B6FFDF
:102D9000B842054625D0022845D040F60132334BD3
:102DA0000DF12C081894ADF82C200B981997CDF83C
:102DB0004A3000F0E3F810A906F13C0002F0D0FE22
:102DC000302003224FF07E5341460D930E93CDE900
:102DD0000B02F26B06F1140001F02AF91AB0BDE8FB
:102DE000F0811023214A06A906908DF828300DF1B4
:102DF0002C081F4BCDF84A2007930294CDE9180404
:102E0000CDE9080402A802F0E3F80823029A03A916
:102E10004046ADF80C508DF80E40049505930B9488
:102E200000F0ECF8C7E700200121104B0DF12C0851
:102E30003A460094CDF84A304FF60B730C94ADF837
:102E40002C302346CDE9180140F601314046ADF85B
:102E500018100699CDE90D4401F054FD2146404675
:102E600001F042FEA7E700BF0402040404060403C5
:102E70000704010B2DE9F04704462DED028B82B0CB
:102E800000294DD0012140F2011200230091ADF83C
:102E900004208DF80630364A0127364B04F1040928
:102EA000354904F12908626040F20272A36040F6DD
:102EB0000663E16004F1250AA4F82520A4F829306E
:102EC000278284F8277084F82B7003F005FA0546F2
:102ED00003F068F86946064650BB4DB304F1300074
:102EE0008DF8067003F080F9072D3CD104F114052C
:102EF0002046FFF739FF284601F0E4F82846B0EEF7
:102F0000408A01F0CDF8D0ED007AF8EE677A88EECD
:102F1000277A84ED0E7A02B0BDEC028BBDE8F08713
:102F200040F2011300918DF80610ADF80430B2E7BD
:102F300004F1300003F058F9072D11D0494620461E
:102F400002F08EFA0EB9002DD0D1504601F0D6FD18
:102F5000404601F0D3FD04F1120000F079F9C5E715
:102F6000002EF2D1C2E74946204602F079FABDE7C9
:102F70000508050905070506050A060610B584B00B
:102F800003460124ADF8040003A8ADF80C30ADF8F9
:102F90000E4001F0B3FD214603A801F099FE204642
:102FA00002F0FEFF002103A801F092FE204602F08D
:102FB000F7FF214603A801F08BFE04B010BD00BF4F
:102FC00010B5C2F3002384B00C46017C8DF80D20AF
:102FD00043EA4402FA2402238DF80C2003AA009449
:102FE00002F08CF818B10124204604B010BD04464C
:102FF0000A2002F0D5FF204604B010BD034670B58C
:1030000043F8042B044684B007C983E80700A3797A
:1030100083B91A210B461E22FA2523742046ADF8E7
:103020000C20022303AA009502F068F828B10120C1
:1030300004B070BD1B210B46EDE70A2002F0B0FF83
:103040004FF4B85200950223ADF80C20204603AA95
:10305000217C02F053F80028E9D10A2002F0A0FFF9
:1030600041F2027200950223ADF80C20204603AA1B
:10307000217C02F043F80028D9D10A2002F090FF09
:10308000042200950223ADF80C20204603AA217CDF
:1030900002F034F80028CAD10A2002F081FF06228B
:1030A00000950223ADF80C20204603AA217C02F0F3
:1030B00025F80028BBD10A2002F072FF41F2082255
:1030C00000950223ADF80C20204603AA217C02F0D3
:1030D00015F80028ABD10A20064602F061FF0095E2
:1030E000022303AA217C2046ADF80C6002F006F80A
:1030F00000289CD1304602F053FF009522790C2322
:103100002046002A8DF80C3003AA4FF0020314BFAA
:10311000622142218DF80D10217C01F0EFFF002883
:1031200085D1304602F03CFF2279D4E902310B43CD
:10313000DBB20AB943F0400362790AB143F02003DD
:103140000E22FA258DF80D302046009502238DF8C9
:103150000C2003AA217C01F0D1FF00287FF467AF87
:103160000A2002F01DFF102200950223ADF80C206A
:10317000204603AA217C01F0C1FF00287FF457AF4D
:103180000A2002F00DFF122100950223ADF80C1069
:1031900003AA217C204601F0B1FF00287FF447AF4D
:1031A0000A2002F0FDFE012209212046FFF708FF58
:1031B000003818BF01203BE7F0B5102387B0234C3F
:1031C000012200250126002702A920460195CDE90C
:1031D00002234FF48052CDE9046709F035FE6420E4
:1031E00003F020FB02A94FF480522046CDE904678A
:1031F00002261027CDE9026709F026FE03221023DC
:1032000002A92046CDE9022300230422CDE90423AC
:103210004FF4805209F018FE40F23223042202A932
:10322000019310232046CDE90223019A0123059240
:103230004FF48052049309F007FE40F60601204641
:1032400009F022FE284607B0F0BD00BFF07F05243C
:103250001C4B00221C494FF0400C30B5054689B08C
:103260000220596007219A601A620124DA620A2258
:103270004FF4006EDC6006922022CDE900010420AC
:103280000821CDE9020103201021CDE90401082025
:103290006946C3E904024FF4C072181DC3E906C2AF
:1032A0004FF48052C3E909E209F0A4FD38B9284679
:1032B000FFF782FF003818BF012009B030BD20465B
:1032C00009B030BDEC7F052440410052614A002125
:1032D000D0B513688EB00A91002B40F0B9805E4BD8
:1032E00001214FF683700C2411600221D3F8D42001
:1032F0000026032742F48052C3F8D420D3F8D42008
:1033000002F480520092009AD3F8E02042F01002BA
:10331000C3F8E020D3F8E02002F010020192019AF5
:10332000D3F8E02042F04002C3F8E020D3F8E020D8
:1033300002F040020292029AD3F8E02042F0080222
:10334000C3F8E020D3F8E02002F008020392039AC9
:10335000D3F8E02042F48072C3F8E020D3F8E020F4
:1033600002F480720492049AD3F8E02042F08002C2
:10337000C3F8E020D3F8E02002F080020592059A1D
:10338000D3F8E02042F02002C3F8E020D3F8E02098
:1033900002F020020692069AD3F8E02042F00402DE
:1033A000C3F8E020D3F8E0300C9403F00403079353
:1033B0000323079A0B93CDE9080108A9274805F0D4
:1033C000B7F848F23712022308A925480C94CDE932
:1033D0000823CDE90A6705F0ABF84CF2037202232B
:1033E00008A920480C94CDE90823CDE90A6705F027
:1033F0009FF840F2FF62022308A91B480C94CDE914
:103400000823CDE90A6705F093F84FF60C72022302
:1034100008A916480C94CDE90823CDE90A6705F000
:1034200087F84FF63F02022308A911480C94CDE912
:103430000823CDE90A6705F07BF82022022308A9BA
:103440000A480C94CDE90A67CDE9082305F070F825
:103450000EB0D0BDE87F0524004402580010025889
:1034600000180258000C025800200258001C025894
:10347000001402582DE9F04FDFF8108406460D467F
:10348000144608F118002DED028B89B000AF02F050
:103490005FFCD8F8183073B3D8F81C30D8F8049013
:1034A000002B43690BBF4FF0080A4FF0100A4FF092
:1034B000020B4FF0040BB9F1000F2AD0A200EA462C
:1034C000012B02F1070222F00702ADEB020D684664
:1034D000ADEB020D694600F03F81022B00F0D68073
:1034E000002B6FD02246C847D5462437BD46BDECD9
:1034F000028BBDE8F08FD8F81C30002BF5D0D8F83F
:1035000004904FF0080A4FF0020B4369B9F1000F25
:10351000D4D1FB61D8F80030BB61002BE5D0D54891
:1035200002F088FC6B46BBF1020F786108EE103A9E
:10353000FB6900F083816A465146A2EBC4029546BE
:103540006200EA46B2FBFBF2AAEBC40085460AEB36
:103550008200EE46F861ADEB010DF8690EEB820CCE
:10356000C7F810C0EC46ADEB010D00EB8201CCF8C2
:103570000400CCF8081001EB82013869E946CCF868
:103580000C1000EB8201CCF800A001EB8202C9E92B
:1035900000E0C9E90212012B00F06483022B00F065
:1035A0006C82002B00F08081620849466046BB694E
:1035B000984718EE103A24379D46BD46BDEC028B65
:1035C000BDE8F08F002C8DD01A46D8ED0C6A9FED27
:1035D000B27A8446331D36F922E00CF1080C07EE6E
:1035E00090EA33F922E00232F8EEE77A944267EE8D
:1035F000877A67EEA67A4CED027A07EE90EAF8EE4B
:10360000E77A67EE877A67EEA67A4CED017AE2D820
:10361000F9612246C847984ED8ED0D6A0020F96935
:103620002B1D9FED9E7A9FED9E6ADFED9E5A22E054
:10363000F4EEC67AF1EE10FAC0F2C88447F6FE72D4
:10364000D1ED017A45F8202066EEA77AF4EEC77A2C
:10365000F1EE10FA40F2F080F4EEC67AF1EE10FAD4
:10366000C0F2D58447F6FE7243F8202002300831BC
:1036700084427FF639AFD1ED007A66EEA77AF4EE98
:10368000C77AF1EE10FAD3D83246D9E7002C3FF4CE
:1036900029AFD8ED0C6A84469FED787A0022331D5D
:1036A0008E4656F822100CF1080C07EE901A53F8CB
:1036B00022100232F8EEE77A944267EE877A67EEDC
:1036C000A67A4CED027A07EE901AF8EEE77A67EEEA
:1036D000877A67EEA67A4CED017AE2D871462246E7
:1036E000C7F81CE0C847664ED8ED0D6A0020F9699E
:1036F0002B1D9FED6A7A9FED6A6ADFF894C120E086
:10370000F4EEC67AF1EE10FAC0F279843246D1EDC9
:10371000017A45F8202066EEA77AF4EEC77AF1EE3A
:1037200010FA40F28780F4EEC67AF1EE10FAC0F299
:103730005E84324643F820200230083184427FF60E
:10374000D3AED1ED007A66EEA77AF4EEC77AF1EE49
:1037500010FAD5D86246DAE7002C3FF4C3AED8EDB4
:103760000C6A86469FED477A4FF0000C331D56F8E1
:103770002C200EF1080E82F40002A2F5000207EEE2
:10378000902A53F82C200CF1020CF8EEE77A82F420
:1037900000026445A2F5000267EE877A67EEA67A1A
:1037A0004EED027A07EE902AF8EEE77A67EE877A16
:1037B00067EEA67A4EED017AD9D8F9612246C8475C
:1037C000314ED8ED0D6A0020F9692B1D9FED337A3B
:1037D0009FED336ADFF8BCC01FE0F4EEC67AF1EE6D
:1037E00010FAC0F2FC833246D1ED017A45F8202070
:1037F00066EEA77AF4EEC77AF1EE10FA18D9F4EE75
:10380000C67AF1EE10FAC0F2DA83324643F820208D
:103810000230083184427FF667AED1ED007A66EE61
:10382000A77AF4EEC77AF1EE10FAD6D86246DBE753
:103830006246EBE762467DE7324615E7A100D646D1
:103840006208073121F00701ADEB010DEA46ADEB4F
:10385000010D6946ADEB0E0D0AEB8200EC46ADEBB7
:103860000E0D01EB8202F861E946CCE900A0C9E93E
:10387000001290E6408005240280FFFF0000003027
:103880000082FF7F0000003482FF7F002480052437
:10389000007E00807E0080FF0000003804FF7FBFB4
:1038A00004FF7F3F00FEFF46002C00F0C982BBF101
:1038B000020FD8F8242000F0FA827969C7F8049042
:1038C00002EB810E5FED0C5A8A00DCF808100EF155
:1038D00004007A611A46DCF80C303B61331DD7F8DE
:1038E00010903D61FD69C7E902CB8C46834636F9ED
:1038F0002210D8ED0C7A06EE101A33F9221006EEDB
:10390000901A3EF92210B8EEC66A07EE101AF8EEC9
:10391000E66A3BF92210B8EEC77A26EE256A66EE13
:10392000A56A27EE257A26EE276A66EEA76A27EEB5
:10393000277A07EE901A51080232F8EEE77A0AEB7E
:103940008100944280ED006A05EB810067EEA57A64
:10395000C0ED006A0CEB810009EB810180ED007A7B
:1039600098ED0C7A67EE877AC1ED007ABFD8D7F868
:1039700004903D69D7E902CB60466208BB694946BD
:103980009847D8F82C307A69D8ED0D6A1A441FEDA3
:103990003D7A1FED3D6A2B1D904602F1040A5FED52
:1039A0003F5A0022A84ED9E900EC51E0F4EEC67A65
:1039B000F1EE10FAC0F2C78247F6FE7045F8220019
:1039C0000CEB0100D0ED007A66EEA77AF4EEC77A30
:1039D000F1EE10FA4BD9F4EEC67AF1EE10FAC0F21D
:1039E000BA8247F6FE70BBF1020F43F822002BD0DB
:1039F000D9F808000844D0ED007A66EEA77AF4EE14
:103A0000C77AF1EE10FA36D9F4EEC67AF1EE10FA72
:103A1000C0F2CD8247F6FE7048F82200D9F80C00BB
:103A20000144D1ED007A66EEA77AF4EEC77AF1EEA2
:103A300010FA1ED9F4EEC67AF1EE10FAC0F2AF8297
:103A400047F6FE714AF82210023294427FF6B1AD79
:103A500051080EEB81008900D0ED007A66EEA77A5E
:103A6000F4EEC77AF1EE10FAA0D83046A6E7304659
:103A7000B9E73146E6E73046CEE7002C00F0E081BA
:103A8000BBF1020FD8F8243000F0E1817A69DCF84C
:103A9000081003EB820EC7F804909300DFED6B5A19
:103AA0000EF1040000227B61DCF80C303B61331D19
:103AB000D7F810903D61FD69C7E902CB8C4683467B
:103AC00056F82210D8ED0C7A07EE101A53F822108F
:103AD000B8EEC76A07EE101A5EF82210F8EEC76A51
:103AE00007EE101A26EE256A5BF82210B8EEC77AA8
:103AF00066EEA56A26EE276A27EE257A66EEA76AA5
:103B000027EE277A07EE901A51080232F8EEE77A8C
:103B10000AEB8100944280ED006A05EB810067EEBC
:103B2000A57AC0ED006A0CEB810009EB810180ED04
:103B3000007A98ED0C7A67EE877AC1ED007ABFD8EB
:103B4000D7F804903D69D7E902CB60466208BB69AB
:103B500049469847D8F82C307A69D8ED0D6A1A444E
:103B60009FED3E7A9FED3E6A131D9246DFF8E4C05A
:103B70000022FB612B1D364ED9E9008E4EE0F4EE9B
:103B8000C67AF1EE10FAC0F2FC81304645F8220008
:103B90000EEB0100D0ED007A66EEA77AF4EEC77A5C
:103BA000F1EE10FA49D9F4EEC67AF1EE10FAC0F24D
:103BB000EF813046BBF1020F43F822002AD0D9F83A
:103BC00008000844D0ED007A66EEA77AF4EEC77AD2
:103BD000F1EE10FA35D9F4EEC67AF1EE10FAC0F231
:103BE000C98130464AF82200D9F80C000144D1EDD1
:103BF000007A66EEA77AF4EEC77AF1EE10FA1ED9D3
:103C0000F4EEC67AF1EE10FAC0F2AD813146F869F1
:103C100040F82210023294427FF6CBAC510808EBF8
:103C200081008900D0ED007A66EEA77AF4EEC77ABB
:103C3000F1EE10FAA3D86046A8E76046BAE76146FD
:103C4000E5E76046CEE700BF0280FFFF00000030DE
:103C50000082FF7F007E00800000003404FF7FBFF1
:103C600004FF7F3F002C00F0EB807A690021D8F838
:103C70002430C7F8109003EB820ED7F81C90930005
:103C8000FD610EF104021FED0C6A7B61331D1546C8
:103C900056F821204808D8ED0C6ABBF1020F82F4D7
:103CA0000002A2F5000207EE902A53F8212082F4C8
:103CB0000002B8EEE77AA2F5000227EE067A07EED8
:103CC000902A0AEB8002F8EEE77A27EE267A67EE72
:103CD000867A82ED007A09EB80024FEA800067EE77
:103CE000A67AC2ED007A27D05EF8212082F4000285
:103CF000A2F5000207EE902A55F8212082F4000276
:103D0000B8EEE77AA2F5000227EE067A07EE902ACF
:103D1000DCF80820F8EEE77A024427EE267A67EE10
:103D2000867A82ED007A98ED0C7ADCF80C2067EE4A
:103D3000877A0244C2ED007A02318C42A8D8D7F8C3
:103D4000109060466208BB694946FD699847D8F8FB
:103D50002C307A69D8ED0D6A1A441FED407A1FEDB8
:103D6000406A131D9246DFF8C4C20022FB612B1D7E
:103D7000AB4ED9E9008E4EE0F4EEC67AF1EE10FAC1
:103D8000C0F2C580304645F822000EEB0100D0EDB0
:103D9000007A66EEA77AF4EEC77AF1EE10FA49D906
:103DA000F4EEC67AF1EE10FAC0F2BF803046BBF1F5
:103DB000020F43F822002AD0D9F808000844D0EDB9
:103DC000007A66EEA77AF4EEC77AF1EE10FA35D9EA
:103DD000F4EEC67AF1EE10FAC0F2AE8030464AF840
:103DE0002200D9F80C000144D1ED007A66EEA77AE2
:103DF000F4EEC77AF1EE10FA1ED9F4EEC67AF1EEBF
:103E000010FAC0F28B803146F86940F82210023275
:103E100094427FF6CEAB510808EB81008900D0EDCB
:103E2000007A66EEA77AF4EEC77AF1EE10FAA3D81C
:103E30006046A8E76046BAE76146E5E76046CEE738
:103E4000224649466046BB699847FFF7B2BBC7F8B0
:103E500010B0002298ED0C6A331DDFED726AD7F8BE
:103E60001CB0786956F8221007EE901A53F8221009
:103E7000B8EEE77A07EE901A51080232F8EEE77AC8
:103E800027EE267A0AEB810E94420BEB810167EE56
:103E9000A67A27EE067A67EE867A8EED007AC1ED75
:103EA000007ADFD88300D7F810B07B614DE61A4660
:103EB000C7F810B098ED0C6A331DDFED5B6AD7F8D8
:103EC0001CB0786936F9221007EE101A33F9221067
:103ED00007EE901AB8EEC77A51080232F8EEE77A88
:103EE00027EE267A0AEB810E94420BEB810167EEF6
:103EF000A67A27EE067A67EE867A8EED007AC1ED15
:103F0000007ADFD88300D7F810B07B6134E5F0EE9B
:103F1000675AFEEEE45A15EE900A34E7F0EE675A5F
:103F2000FEEEE45A15EE901A6EE7F0EE675AFEEEDA
:103F3000E45A15EE900A3AE7F0EE675AFEEEE45ABC
:103F400015EE900A4BE767EEA57AFDEEE77A17EEDD
:103F5000900A00B232E567EEA57AFDEEE77A17EE39
:103F6000900A00B23FE5F0EE675AFEEEE05A15EE19
:103F7000901A4CE6F0EE675AFEEEE05A15EE900A03
:103F800030E6F0EE675AFEEEE05A15EE900AFDE5D7
:103F9000F0EE675AFEEEE05A15EE900A0AE667EE7A
:103FA000A57AFDEEE77A17EE901A09B24AE567EEB8
:103FB000A57AFDEEE77A17EE900A00B22CE5F0EE56
:103FC000675AFEEEE45A15EE902A1FE467EEA57AD2
:103FD000FDEEE77A17EE902A12B2FFF731BBF0EE52
:103FE000675AFEEEE45A15EE902AFFF7FDBBF0EE9D
:103FF000675AFEEEE05A15EE902AFFF79BBBF0EEF3
:10400000675AFEEEE05A15EE902AFFF780BB67EE86
:10401000A57AFDEEE77A17EE902A12B2FFF724BBDD
:1040200082FF7F0000000030000000387E0080FF2B
:1040300030B5184C154685B0046004F1080EEC4606
:104040000FC98EE80F00D4ED047AF5EEC07A8CE843
:104050000F00F1EE10FA1ADDB7EE006A94ED057A62
:1040600027EE277AC6EE276A84ED0D7AC4ED0C6A36
:104070006DB1204640F8185F01F06AFE06490369F9
:104080000020064A2162A262E36005B030BD012033
:1040900005B030BD24800524002000300000003031
:1040A00000680830704700BFB1F5807F03680A469A
:1040B00028BF4FF48072B1F5807F9A6094BF0020D2
:1040C000012070470068183001F0A2BE70B5046886
:1040D0008AB0A369E160CBB104F11805284601F06C
:1040E00037FE8446EE46E668BCE80F00AEE80F00F7
:1040F000BCE80F00AEE80F009CE803008EE8030068
:1041000069462846049601F02BFDF8B9E069D8B15C
:1041100004F11C05284601F01BFE8446EE46E468C7
:10412000BCE80F00AEE80F00BCE80F00AEE80F00DF
:104130009CE803008EE8030069462846049401F0D9
:104140000FFD003818BF01200AB070BD01200AB071
:1041500070BD00BF30B5046883B00D46E3694BB154
:10416000A3680020E26A616A9B00009004F11C00D1
:1041700001F0F0FDA3680748A26A9B00216A009045
:1041800004F1180001F0E6FD0020C4E9005003B07E
:1041900030BD00BF7534000810B4074B4FF07E519E
:1041A00030240022032019619C60D8605DF8044B24
:1041B0005961C3E90622704724800524F0B51D46E5
:1041C00083B004461646A5F101059DF82070ADF8B0
:1041D000041001F0E3FEB5FA85F50023BDF80420D4
:1041E000012F4FEA551566712060E572E280237158
:1041F000A372237209D0022F0FD00123A01D637276
:1042000003B0BDE8F04000F079BC0223A01D63724A
:1042100003B0BDE8F04000F071BCA01D637203B0B4
:10422000BDE8F04000F06ABC38B5044601F0B6FEC7
:10423000002223682271834210D00122A57AE37AFA
:10424000954020602271A01D6DB243B900F032FD8F
:1042500040B22843C0B27F28A0720AD038BD00F017
:1042600029FDB0FA80F040092843C0B27F28A0722F
:10427000F4D101F093FE07EE900AF8EE677AC4EDF0
:10428000037A38BD00B583B04FF0000E4FF0030C39
:104290004274ADF80410BDF8043080F810E0A0F8C6
:1042A00002C0038003B05DF804FB00BF2DE9F04FAE
:1042B000DFF81C8300258DB0C04C037008F140036B
:1042C0004260074601920E46202229464046C4F825
:1042D0006831C4F86481CDE90255CDE90455CDE9D2
:1042E0000655CDE90855CDE90A550FF07BFA202295
:1042F000294604F5A170C4F83151C4F83551C4F809
:104300003951C4F83D510FF06DFA019B84F84852C1
:1043100084F830317A68002A6AD02B4604F5987107
:10432000454606F1100A9E46F01856F803B0E2180A
:104330000EF1010ED0F80CC0D0F80490D0F808802F
:1043400044F803B0C2F80CC04FF0000CC2F804905F
:10435000C2F80880008A25F802CB10821AF80320E0
:1043600001F8012F002A70D07A684FF00100123353
:10437000724584F84802D7D84FF4802290489DF8BF
:10438000043008214FF000084FF00009C4F88431D0
:104390000023C4E95B020122C4F8743184F880313F
:1043A000C4E95E2194F84812C4E96489A9B3C4F849
:1043B0009821002284F8813184F888313B78C4E95F
:1043C0006722002B38D0012200200121013B84F814
:1043D000A421C4E96C01082B30D8DFE813F0BD003C
:1043E000C200C700CC00D100D600DB00E100E8002D
:1043F0009DF804300121C4F87421C4F884314FF4CD
:10440000802384F880216E4AC4E95B2308230022BC
:10441000C4E95E130023C4E964230123002284F865
:104420008131002384F888310323C4F898313B7824
:10443000C4E96722002BC6D184F8A431614802F098
:1044400029FE034638B1FFBEFEE77A681233724593
:104450003FF66AAF90E702A95A48029302F078FF4C
:104460008246002876D1042240F2FF710A90CDE9FD
:10447000081294F83021002A00F0F3804FF006086B
:104480000AEBCA034FEACA0904EB43035B7C072B20
:1044900007D8DFE803F0595C5653504D4A04072310
:1044A00007930FFA8AF6D14406EBC60604EB4909D6
:1044B00004EB46077500384600F020FB99F81030F1
:1044C000042B00F3AA80022B00F3BD8000F0B9801A
:1044D00004EB0A03002283F8202114F81630002B85
:1044E00078D0022B00F08A80012B40F0B2807B78DC
:1044F000012B00F0B080002B334B18BF002305A91F
:104500003048CDE9053802F0F1F9002840F0AC80E0
:104510000AF1010A94F830315FFA8AFA534540F201
:10452000A0802A4B53F82A80AAE706230793B8E70E
:1045300005230793B5E704230793B2E70323079303
:10454000AFE702230793ACE700230793A9E7012312
:104550000793A6E7FFBEFEE703224023C4E96A23D0
:104560006CE707226023C4E96A2367E70F228023F0
:10457000C4E96A2362E71F22A023C4E96A235DE736
:104580003F22C023C4E96A2358E77F22E023C4E91D
:104590006A2353E7FF224FF48073C4E96A234DE78F
:1045A00040F2FF124FF49073C4E96A2346E740F2E9
:1045B000FF324FF4A073C4E96A233FE7608005240B
:1045C00000200240CC8105240002B0251C410108D6
:1045D000004000307B78062B37D0072B3DD0022BD4
:1045E0004AD0032B4AD0002B4CD0012B48D0042BAF
:1045F0004AD0052B254B18BF002380E77B78042B7E
:1046000025D0052B2BD08BB3012B31D0022B31D0F1
:10461000032B1F4B18BF002371E70323043504EB62
:104620000A0B4FF0000925448BF82031284609F188
:10463000010900F063FA9BF8203104354B45F5DCA5
:104640004BE70123EAE70223E8E7124B57E7124B57
:1046500055E7002353E7114B51E7114B4FE7114B3F
:104660004DE70DB0BDE8F08FFFBEFEE70E4B46E70D
:104670000E4B44E70E4B42E70E4B40E70E4B3EE736
:104680000E4B3CE70E4B3AE70E4B38E70000B84FB5
:10469000002090360800900C1000C0102000F0148C
:1046A0008000501D000180210004002A0008302EE7
:1046B000001060320040C03A0080F03E00005247D7
:1046C000000021430000844B38B5094C40F2FF72D2
:1046D0004FF0011104F5B675284602F0E7FD94F895
:1046E0003021D4F864112846BDE8384002F052BBAE
:1046F00060800524064B0F29D3F8643198BF03EB83
:1047000041031B8800EE103ABBEEC80A704700BF99
:1047100060800524214B02689A4200D07047204AED
:1047200000232048D2F8D81030B51F4C41F02001AA
:1047300083B0C4F8D001092004F5E875C4E9750315
:104740004FF48060C2F8D810D2F8D8204FF400613E
:10475000C4E9773094F8480202F02002C4F8E4116A
:104760004FF40051984201922846C4F8E811C4E978
:104770007C33019B14BF00234FF48073C4F8EC31E9
:1047800003F00CF808B1FFBEFEE704F5B673C4F8F9
:10479000B851C4F8083203B030BD00BF0020024059
:1047A000004402584000024060800524014803F0A4
:1047B0006DBB00BF3082052402682DE9F84F4B4BDA
:1047C0009A4201D0BDE8F88F494D95F84832002B48
:1047D000F8D095F83031002B77D0002405F10C0982
:1047E00005F5A17605F59877A04613E003F00101E1
:1047F00017F811BCA9F1080000F06AFABBF1010F2B
:1048000025D895F83031013409F112090236A2B2E7
:1048100093422BD917F8012F002AF4D0D5F8643130
:104820000021327833F81400D5F8683103EB041313
:1048300023F81200338801339BB233805FFA83FA86
:104840003A789A42D2D88A46A6F80080D0E7CAF3CE
:104850004001A9F1040000F03BFABBF1020FCAF3DA
:104860008001CED0484600F033FACAE7002395F81D
:104870004802204909229842C5F8D8314FF4806097
:10488000C5F8D011C5F8D4214FF400614FF400529F
:10489000C5F8DC3108BF4FF48073C5F8E821C5E9DD
:1048A000780100221448C5E97B32C5F8F42102F0F2
:1048B00075FF08B1FFBEFEE795F83021D5F8641109
:1048C0000E48BDE8F84F02F065BA0A4909224FF4D4
:1048D0008060C5F8D831C5E974124FF400614FF417
:1048E0000052C5E97730C5E97912DAE700200240C5
:1048F000608005244000024030820524CC810524DC
:10490000704700BF10B592B0ADF804100180C9B275
:10491000149C0B29C460C0E901233FD090F801C06A
:10492000BCF10F0F3AD8022A3FD0032A02D0012A45
:1049300000D000220E92012B02D0022B18BF0023C0
:10494000022C0F932CD0032C2AD0012C28D000232A
:104950000A29109327D85C4A02EB812202610A29B6
:1049600014D8DFE801F0A39587796B5D4F413325BB
:104970000600564BD3F8E01041F48061C3F8E01014
:10498000D3F8E03003F480630C930C9B01230DA952
:10499000104603FA0CF30D9303F0CAFD12B010BDDC
:1049A0000A291094D7D90022D8E711220E92C2E723
:1049B000464BD3F8E01041F40071C3F8E010D3F88F
:1049C000E03003F400730B930B9BDFE73F4BD3F80E
:1049D000E01041F48071C3F8E010D3F8E03003F444
:1049E00080730A930A9BD1E7384BD3F8E01041F06B
:1049F0008001C3F8E010D3F8E03003F0800309939E
:104A0000099BC3E7314BD3F8E01041F04001C3F8F4
:104A1000E010D3F8E03003F040030893089BB5E7BB
:104A20002A4BD3F8E01041F02001C3F8E010D3F88E
:104A3000E03003F020030793079BA7E7234BD3F84D
:104A4000E01041F01001C3F8E010D3F8E03003F0BB
:104A500010030693069B99E71C4BD3F8E01041F036
:104A60000801C3F8E010D3F8E03003F00803059321
:104A7000059B8BE7154BD3F8E01041F00401C3F818
:104A8000E010D3F8E03003F004030493049B7DE7C7
:104A90000E4BD3F8E01041F00201C3F8E010D3F858
:104AA000E03003F002030393039B6FE7074BD3F857
:104AB000E01041F00101C3F8E010D3F8E03003F05A
:104AC00001030293029B61E7000002580044025870
:104AD00008B5012143780069994089B203F030FF9D
:104AE000003818BF012008BD01230A46417800693B
:104AF00003FA01F189B203F029BF00BF8378022BCA
:104B000030B504468FB037D0032B33D0012B31D0D2
:104B100000230A93E378012B2AD0022B28D000230C
:104B20000B93002320460C9301F05AFD05462046C6
:104B300001F05EFD23780990082B13D8DFE803F01D
:104B40001F3245586B7E91A40500594BD3F8E020E5
:104B500042F48072C3F8E020D3F8E03003F48073AD
:104B60000893089B09A9284603F0E2FC0FB030BD6A
:104B70000B93D6E70A93CDE711230A93CAE74C4B70
:104B800009A92846D3F8E02042F00102C3F8E0204A
:104B9000D3F8E03003F001030093009B03F0C8FC5E
:104BA0000FB030BD424B09A92846D3F8E02042F0AF
:104BB0000202C3F8E020D3F8E03003F002030193CF
:104BC000019B03F0B5FC0FB030BD394B09A9284655
:104BD000D3F8E02042F00402C3F8E020D3F8E0303C
:104BE00003F004030293029B03F0A2FC0FB030BD5C
:104BF0002F4B09A92846D3F8E02042F00802C3F859
:104C0000E020D3F8E03003F008030393039B03F0A4
:104C10008FFC0FB030BD264B09A92846D3F8E02001
:104C200042F01002C3F8E020D3F8E03003F01003A4
:104C30000493049B03F07CFC0FB030BD1C4B09A90E
:104C40002846D3F8E02042F02002C3F8E020D3F851
:104C5000E03003F020030593059B03F069FC0FB0DF
:104C600030BD134B09A92846D3F8E02042F040029A
:104C7000C3F8E020D3F8E03003F040030693069B2E
:104C800003F056FC0FB030BD094B09A92846D3F8F4
:104C9000E02042F08002C3F8E020D3F8E03003F0D7
:104CA00080030793079B03F043FC0FB030BD00BFA8
:104CB0000044025838B5054601F092FC04462846E7
:104CC00001F096FC01462046BDE8384003F038BEAE
:104CD00070B506460D4601F083FC0446304601F0EF
:104CE00087FC2A1E0146204618BF0122BDE87040FD
:104CF00003F02CBE0023122270B586B0CDE902234A
:104D000004930368032B01D804230593061D841D17
:104D1000304601F065FC0546304601F069FC03466B
:104D200001A92846019303F003FC204601F058FC3A
:104D3000034620461C4601F05BFC01A903462046C1
:104D4000019303F0F5FB06B070BD00BF634A036832
:104D5000934210B58CB028D0614A934258D0614A32
:104D6000934200F09480604A934201D00CB010BD91
:104D70005E4C5F48D4F8E03043F00203C4F8E03002
:104D8000D4F8E03003F002030A930A9BFFF7B2FF66
:104D9000D4F8F43043F08003C4F8F430D4F8F4309D
:104DA00003F080030B930B9BE0E7504C5148D4F881
:104DB000E03043F00203C4F8E030D4F8E03003F010
:104DC00002030193019BFFF795FFD4F8E83000221E
:104DD0001F2043F400131146C4F8E830D4F8E8303B
:104DE00003F400130293029BD4F8D83043F001037C
:104DF000C4F8D830D4F8D83003F001030393039BF0
:104E000002F01AFB1F200CB0BDE8104002F052BBAC
:104E1000364C3948D4F8E03043F08003C4F8E03031
:104E2000D4F8E03003F080030493049BD4F8E0301E
:104E300043F00203C4F8E030D4F8E03003F002039A
:104E40000593059BFFF756FFD4F8E8300022212098
:104E500043F480031146C4F8E830D4F8E83003F492
:104E600080030693069BD4F8D83043F00103C4F8BE
:104E7000D830D4F8D83003F001030793079B02F031
:104E8000DBFA21200CB0BDE8104002F013BB1B4838
:104E9000FFF730FF154B00224820D3F8E8401146B9
:104EA00044F40004C3F8E840D3F8E84004F40004F4
:104EB0000894089CD3F8D84044F00104C3F8D840C3
:104EC000D3F8D83003F001030993099B02F0B4FA38
:104ED00048200CB0BDE8104002F0ECBA005400408D
:104EE00000580040005C0040001C0058004402587C
:104EF00038850524B0820524888305246084052430
:104F00002DE9F0431A4B87B000254FF010099E465B
:104F1000EC46184BFF22E04667461A700EF1180661
:104F20000EF13004CDE90055CDE90255ADF8009001
:104F3000BCE80F00CDE90455AEE80F009CE8030083
:104F40000095ADF800908EE80300B8E80F000FC69A
:104F50009CE803000095ADF8009086E803000FCFB1
:104F60000FC49CE8030084E8030007B0BDE8F083A9
:104F700034000024AC82052410B5EFF3108472B61F
:104F8000084B1A78120602D504B962B610BD1B7818
:104F9000D82205485BB202FB0300143002F076FF12
:104FA000F2E700BFAC820524B0820524014804F07A
:104FB00065BB00BF3C830524014804F05FBB00BF14
:104FC00014840524014804F059BB00BFEC84052477
:104FD0002DE9F0430F68D8243F4D85B007FB04F45A
:104FE000032F05EB0403036040DCCB680E46012B66
:104FF0003CD84DD04FF0D808B646DFF8FC9008FBFF
:105000000758BEE80F00C446ACE80F00DEF80030D9
:105010000DF1100ECCF80030D8F808C099E80F0058
:105020000EE90F000EEB8703BCF1010F53F8103CA3
:10503000C8F88C3031D0BCF1020F42D0BCF1000F67
:1050400035D0317C8C34D823002201202C4403FB42
:1050500007534900C3E92602C3F894102046C3E968
:105060002822C3E92A2204F0FBF818B1012005B078
:10507000BDE8F0830146204604F00CFB0028F5D182
:105080000146204604F030FB003818BF0120EEE74F
:105090000B7C103B672BADD9E8E701F01BF90F4BF8
:1050A00098420CBF0E4B0F4BC8F89030C9E701F087
:1050B00011F90A4B98420CBF0B4B0C4BC8F89030BF
:1050C000BFE701F007F9054B98420CBF084B094BAD
:1050D000C8F89030B5E700BFB0820524000E27075E
:1050E0002D0FB0303211D0205F4390608A62E030E3
:1050F000200BA0101A098010784001082DE9F0411A
:10510000D0F8008082B00D4617461E4608F18C0488
:10511000204604F0BBFA2028FAD1D8F80C3073B935
:105120006D002046089C33463A46A9B2009404F02C
:10513000EDF8003818BF012002B0BDE8F081089BEF
:1051400032463946204604F0B5F9F2E7044B102206
:105150001A7483F8E82083F8C02183F898227047F6
:10516000B082052430B5002395B04FF4807106223B
:1051700004460B9306921393CDE90C13CDE90E333D
:10518000CDE9113301F0A8F807282BD004F1100560
:1051900041F2883206A9284605F0B8F828B1012363
:1051A000184684F85C3015B030BD0222022306A9EF
:1051B0002846CDE9002310220123CDE90223002255
:1051C0004FF48003CDE9042305224FF0807306924B
:1051D0006A460F9341F2883305F004FA0028DED1C5
:1051E00015B030BD0323012084F85C3015B030BD0C
:1051F00070B50023A4B04FF080724FF48075044660
:10520000ADF806300D93CDE910320122CDE90E53F1
:10521000CDE91223CDE91433002943D0F02300F166
:10522000100508AEADF80630C02341F28832314691
:105230002846089305F06AF828B10123184684F837
:105240005C3024B070BD41F288320DF10601284671
:1052500005F0C6F803460028EFD105224FF480710F
:105260001E93284616924FF080721B9321931F9233
:1052700002AA9FED1F7BCDE91C13CDE922338DEDF2
:10528000027B9FED1D7B41F2883316A98DED047BD7
:105290009FED1B7B8DED067B05F0A4F90028CCD19A
:1052A00024B070BD00F1100508AE612341F28832D0
:1052B00031462846089305F029F80028BDD141F26F
:1052C00088320DF10601284605F008F90028B4D10E
:1052D000BDF80630204623F0780343F04003ADF8D4
:1052E0000630FFF73FFF00289ED0A6E7AFF300800F
:1052F000000000000100000010000000010000009C
:1053000000000000000040002DE9F04F00234FF4A2
:10531000807501264FF0807804462DED028BABB0EE
:105320008DF8073013932193299314950E96CDF899
:105330005C80CDE91533CDE91863CDE91A33CDE9A9
:105340002253CDE92433CDE9273306231C9300F003
:10535000C3FF072808D004F1100741F288321CA9C6
:10536000384604F0D3FF40B10123184684F85C307E
:105370002BB0BDEC028BBDE8F08F4FF0020A4FF06E
:10538000020B4FF0050941F2883308AA1CA93846E0
:10539000CDF89480CDF870909FED2D8BCDE908ABC2
:1053A0004FF0000A4FF4800B8DED0A8BCDE90CAB6A
:1053B00005F018F90028D7D141F2883238460EA9F5
:1053C00004F0A4FF0028CFD1402341F288320DF130
:1053D000070138468DF8073005F002F80028C3D1E0
:1053E00041F288330EA902AA3846CDF83890CDF89C
:1053F0005C809FED197B8DED048BCDE906AB8DEDC7
:10540000027B05F0EFF803460028ADD1CDF870908F
:105410004FF00109CDF894804FF00008219308AABD
:1054200029931CA938462295CDE92333CDE92733AA
:1054300041F288338DED0A8BCDE90CABCDE90889BB
:1054400005F0D0F8002893D0304684F85C608FE7F0
:1054500010000000010000004000000040000000BB
:105460002DE9F043624CA3B00D46046000F034FF18
:10547000072800F0A980286823466968AA6807C33E
:105480001E46AB8926F8043B3046257B677B04F03B
:105490001FFFE0B9574B012D4FF00108E061236178
:1054A00014BF4FF480134FF40003C4E9058893FA46
:1054B000A3F3B3FA83F34FF48079013BC4F824904B
:1054C000C4E90B003046236204F096FE38B1012295
:1054D000134684F85C20184623B0BDE8F0836623A9
:1054E0000B90139041F2883206A90693CDE90C90F7
:1054F000CDE90E00CDE91100304604F007FF002889
:10550000E5D1992341F2883206A93046069304F08A
:10551000FDFE0028DBD105231C9019906A461493E8
:105520004FF08073219014A91D9341F288339FEDB1
:105530002A7BCDE91A90CDE91F008DED007B9FED10
:10554000287B30468DED027B9FED277B8DED047B24
:1055500005F048F80028BAD129462046FFF748FE52
:105560000028B4D12046FFF7CFFE03460028AED175
:10557000002FB0D1189330460027002606AA14A9A0
:10558000CDF86890CDE91F33EB2314934FF44063BB
:105590001B934FF4005317934FF440431C93A023E5
:1055A0001693062319934FF0805321934FF04073C5
:1055B000CDE906671D9305F08DF8034600288AD0D3
:1055C000434684F85C8086E701230322184684F86A
:1055D0005C2023B0BDE8F083000000000100000063
:1055E000100000000100000000000000000040006A
:1055F00010860524005000522DE9F04F8FB0414B2A
:105600000024026800AF9A427C63C7E90944C7E9F5
:105610000B4403D03C37BD46BDE8F08F3A4B40F613
:1056200009213A48EB46D3F8D42007F11C0607F1CC
:10563000220A4FF0020942F480424FF00308C3F8F7
:10564000D420D3F8D42002F48042BA60BA68D3F8E8
:10565000E02042F04002C3F8E020D3F8E02002F05E
:105660004002FA60FA68D3F8E02042F02002C3F862
:10567000E020D3F8E02002F020023A613A69D3F842
:10568000E02042F01002C3F8E020D3F8E02002F05E
:1056900010027A617A69D3F8E02042F00202C3F87E
:1056A000E020D3F8E030F86103F002033984BB61F5
:1056B000174B7B60BB697B6853F8040F7B6000F07D
:1056C0008FFF7B680546186800F092FF16F8013BD3
:1056D000786207F124012846C7F830807B63C7E968
:1056E0000A9402F025FF5645E5D100225C201146C0
:1056F00001F0A2FE5C2001F0DDFE3C37DD46BD4638
:10570000BDE8F08F00500052004402580A0A09090F
:105710006C860524114B02689A4200D07047104AEB
:1057200070B5D2F8D4300F4C23F4804304F118063E
:10573000C2F8D43054F8040F00F052FF0546206838
:1057400000F056FF0146284603F032F8B442F1D18A
:105750005C20BDE8704001F0BBBE00BF00500052AD
:10576000004402586C860524014805F03FB800BF8C
:1057700020860524084B1A1D981D03F1080110B45A
:105780009C1C9A6603F10A02C3E91834C3E91B01A1
:105790005DF8044B5A6770471086052438B50368D6
:1057A00071B9026A00F1280500F5AC74012A0CBF3A
:1057B000002140218BBB1D4B5722C0F858310DE012
:1057C000426A00F1C00500F5E874012A0CBF00210F
:1057D0004021EBB1164B5A22C0F8D03100232046AD
:1057E000C4E901214FF480524FF480616362626129
:1057F0004FF48042C4E903314FF48073C4E90623B7
:105800004FF40033236201F0C9FF58B1FFBEFEE739
:10581000084B5822C0F8D031E0E7074B5922C0F8B6
:105820005831DBE7C5E92044A56338BD10000240CC
:105830007000024028000240580002402DE9F04369
:10584000821D05468BB0031D05F10A010830CDE924
:10585000052305F10C02AB69CDE907010992002B84
:105860003DD0EB69B3FA83F84FEA581801230222BE
:1058700005AE0AAF4FF006090393CDE9012356F8B0
:10588000044B2B792278934216D02B68F3B1012B6D
:1058900002D1F2B10A230493204600F0A9FE034688
:1058A0002046009300F09CFE694602F041FEBE4295
:1058B000E5D10BB0BDE8F083697963789942E4D112
:1058C000B8F1000FF3D02B68002BE0D1CDF8109089
:1058D000E2E76378022B14BF0A230823DBE74FF0CB
:1058E0000108C3E7534A0368934230B505468BB0BD
:1058F00055D02032934252D04F4A934204D02032A6
:10590000934201D00BB030BD4C4C4D48D4F8E03040
:1059100043F00103C4F8E030D4F8E03003F00103B1
:105920000593059BD4F8E03043F00803C4F8E03059
:10593000D4F8E03003F008030693069BD4F8E03077
:1059400043F04003C4F8E030D4F8E03003F0400303
:105950000793079BD4F8F03043F40003C4F8F03009
:10596000D4F8F03003F400030893089BFFF766FFB8
:10597000D4F8D830296843F001032F4A3048C4F8DE
:10598000D830891AD4F8D83018BF012103F00103A8
:105990000993099B0BB0BDE83040FFF7FFBE274CD1
:1059A0002848D4F8E03043F00103C4F8E030D4F8DC
:1059B000E03003F001030093009BD4F8E03043F0A3
:1059C0001003C4F8E030D4F8E03003F01003019382
:1059D000019BD4F8E03043F04003C4F8E030D4F841
:1059E000E03003F040030293029BD4F8F03043F41C
:1059F0008003C4F8F030D4F8F03003F4800303934C
:105A0000039BFFF71BFFD4F8D830296843F001034C
:105A1000084A0C48C4F8D830891AD4F8D83018BFCE
:105A2000012103F001030493049B0BB0BDE8304057
:105A3000FFF7B4BE04580140045C01400044025822
:105A4000E488052488860524014802F01FBA00BFB7
:105A5000E0870524014802F019BA00BF58880524E0
:105A6000014802F013BA00BF3C8A0524014802F045
:105A70000DBA00BFB48A05241A4A0368934210B4D1
:105A80000BD02032934208D0174A934216D02032CE
:105A9000934213D05DF8044B7047144B0022D3F8A7
:105AA0005442C3F85822002CF4D0D3F84802D3E96A
:105AB000931223465DF8044B520818470B4B002203
:105AC000D3F8B044C3F8B424002CE3D0D3F8AC240A
:105AD000D3F8A814D3F8A404520823465DF8044B65
