:020000040800F2
:1000000000000220950C0008910C000811900008D7
:10001000910C0008910C0008910C000800000000F1
:10002000000000000000000000000000910C00082B
:10003000910C000800000000910C0008958F00084A
:10004000910C0008910C0008910C0008910C00081C
:10005000910C0008910C0008910C0008910C00080C
:10006000910C0008910C0008910C0008E98600082A
:10007000F58600089D6A0008018700080D870008C2
:100080008533010869720008910C0008910C000882
:10009000910C0008910C0008910C0008910C0008CC
:1000A000910C0008910C0008910C0008910C0008BC
:1000B000018D00080D8D0008198D00089D72000843
:1000C000910C0008A9720008910C00088D2301080A
:1000D00099230108B9310108E531010819320108F5
:1000E000910C0008910C000800000000910C000821
:1000F000910C0008910C0008910C0008910C00086C
:10010000910C0008910C0008258D0008A52301081A
:100110004D32010881320108910C0008910C000851
:10012000910C0008910C0008C9230108FD23010867
:10013000B9330108910C0008910C0008910C0008DB
:1001400000000000000000000000000000000000AF
:10015000910C0008910C0008910C0008B5320108C0
:10016000B5720008910C0008A58F0008C98F00081F
:10017000910C0008ED8F0008910C0008910C00080C
:10018000910C0008910C0008E93201081D330108A8
:10019000B1230108BD230108910C0008910C00084F
:1001A000910C0008910C0008910C0008910C0008BB
:1001B00009840008910C0008910C0008910C0008BB
:1001C000910C0008910C0008910C0008910C00089B
:1001D000910C0008910C0008910C0008910C00088B
:1001E000910C0008910C0008910C0008910C00087B
:1001F000910C0008910C0008910C0008910C00086B
:10020000910C0008910C0008910C0008910C00085A
:10021000910C0008910C0008910C0008910C00084A
:10022000910C0008910C0008910C000800000000DF
:10023000910C0008910C000800000000910C0008CF
:10024000910C0008910C0008910C0008910C00081A
:10025000910C0008910C0008910C0008910C00080A
:10026000910C0008910C0008910C0008910C0008FA
:10027000910C0008910C00085133010800000000A7
:10028000910C0008910C0008910C0008000000007F
:0802900000000000910C0008C1
:1002A00010B5054C237833B9044B13B10448AFF3B0
:1002B00000800123237010BD2804002400000000EA
:1002C00034A3010808B5034B1BB103490348AFF33E
:1002D000008008BD000000002C04002434A30108A5
:1002E00001F0FF01102A2BDB10F0070F08D010F8E7
:1002F000013B013A8B422DD010F0070F42B3F6D1EB
:10030000F0B441EA012141EA014122F007047FF003
:1003100000070023F0E80256083C85EA010586EA5A
:10032000010685FA47F5A3FA87F586FA47F6A5FA96
:1003300087F68EB9EED1F0BC01F0FF0102F00702A2
:1003400032B110F8013B013A83EA010313B1F8D14D
:100350000020704701387047002D06BF354603382E
:10036000073815F0010F07D1013015F4807F02BF67
:10037000013015F4C03F0130F0BC0138704700BFB8
:1003800081F0004102E000BF83F0004330B54FEA46
:1003900041044FEA430594EA050F08BF90EA020FB3
:1003A0001FBF54EA000C55EA020C7FEA645C7FEA46
:1003B000655C00F0E2804FEA5454D4EB5555B8BF69
:1003C0006D420CDD2C4480EA020281EA030382EADA
:1003D000000083EA010180EA020281EA0303362D6C
:1003E00088BF30BD11F0004F4FEA01314FF4801C3F
:1003F0004CEA113102D0404261EB410113F0004F51
:100400004FEA03334CEA133302D0524263EB430307
:1004100094EA050F00F0A780A4F10104D5F1200EA5
:100420000DDB02FA0EFC22FA05F2801841F1000100
:1004300003FA0EF2801843FA05F359410EE0A5F1D4
:1004400020050EF1200E012A03FA0EFC28BF4CF005
:10045000020C43FA05F3C01851EBE37101F00045BB
:1004600007D54FF0000EDCF1000C7EEB00006EEBC8
:100470000101B1F5801F1BD3B1F5001F0CD3490852
:100480005FEA30004FEA3C0C04F101044FEA4452A9
:1004900012F5800F80F09A80BCF1004F08BF5FEA30
:1004A000500C50F1000041EB045141EA050130BD10
:1004B0005FEA4C0C404141EB0101013C28BFB1F522
:1004C000801FE9D291F0000F04BF01460020B1FA6D
:1004D00081F308BF2033A3F10B03B3F120020CDA40
:1004E0000C3208DD02F1140CC2F10C0201FA0CF01E
:1004F00021FA02F10CE002F11402D8BFC2F1200C83
:1005000001FA02F120FA0CFCDCBF41EA0C01904038
:10051000E41AA2BF01EB0451294330BD6FEA040481
:100520001F3C1CDA0C340EDC04F11404C4F120026C
:1005300020FA04F001FA02F340EA030021FA04F37E
:1005400045EA030130BDC4F10C04C4F1200220FAD5
:1005500002F001FA04F340EA0300294630BD21FA13
:1005600004F0294630BD94F0000F83F4801306BFD9
:1005700081F480110134013D4EE77FEA645C18BFCD
:100580007FEA655C29D094EA050F08BF90EA020F64
:1005900005D054EA000C04BF1946104630BD91EA5C
:1005A000030F1EBF0021002030BD5FEA545C05D15F
:1005B0004000494128BF41F0004130BD14F580049E
:1005C0003CBF01F5801130BD01F0004545F0FE4112
:1005D00041F470014FF0000030BD7FEA645C1ABF47
:1005E000194610467FEA655C1CBF0B46024650EA7E
:1005F000013406BF52EA033591EA030F41F40021AA
:1006000030BD00BF90F0000F04BF0021704730B52F
:100610004FF4806404F132044FF000054FF0000104
:1006200050E700BF90F0000F04BF0021704730B5C5
:100630004FF4806404F1320410F0004548BF40429A
:100640004FF000013EE700BF42004FEAE2014FEAEF
:1006500031014FEA02701FBF12F07F4393F07F4FCA
:1006600081F06051704732F07F4208BF704793F0CD
:100670007F4F04BF41F40021704730B54FF46074E0
:1006800001F0004521F000411CE700BF50EA0102E3
:1006900008BF704730B54FF000050AE050EA01028C
:1006A00008BF704730B511F0004502D5404261EBFC
:1006B00041014FF4806404F132045FEA915C3FF43D
:1006C000D8AE4FF003025FEADC0C18BF03325FEADA
:1006D000DC0C18BF033202EBDC02C2F1200300FA8B
:1006E00003FC20FA02F001FA03FE40EA0E0021FAB0
:1006F00002F11444BDE600BF53B94AB9002908BF4E
:1007000000281CBF4FF0FF314FF0FF3000F0BEBAA1
:10071000ADF1080C6DE904CE00F050F9DDF804E00D
:10072000DDE9022304B0704760EE016A20EEA16AA1
:1007300020EE215A76EEC67A61EE205AF4EE677A00
:10074000F1EE10FA35EE257A04D6B0EE670AF0EE37
:10075000470A7047B4EE477AF1EE10FAF5D7DFEDAD
:10076000934AB0EEC04AB4EE644AF1EE10FACCBF40
:1007700001230023B0EEE04A00F39D80B4EE644A0A
:10078000F1EE10FA00F397800023DFED884AB0EE17
:10079000C14AB4EE644AF1EE10FAF0EEE13A48DCF8
:1007A000F4EE643AF1EE10FA43DC9BBBF0EEE66A3D
:1007B000F4EE646AF1EE10FA14DCB0EEC66AB4EE40
:1007C000646AF1EE10FA0DDCB0EEC55AB4EE645A6C
:1007D000F1EE10FA06DCF0EEE55AF4EE645AF1EEB2
:1007E00010FAB2DDB4EE400AF1EE10FA80F1D380D7
:1007F000F4EE600AF1EE10FA80F1C380B4EE411A13
:10080000F1EE10FA80F1B380F4EE611AF1EE10FA15
:1008100080F1A38061EEE07A60EE810AE0EE017A79
:10082000E0EE210A9FED627A67EE877A20EE877A02
:100830008BE7DFED5E7A9FED5D7AB4EE674AF1EE0D
:1008400010FACCBF0123002307EE903A11EE103AC4
:10085000F8EEE77A002BF0EEE77AF4EE473AB8BF0D
:10086000F1EE677AF1EE10FACCBF01230023B0EE6F
:10087000671A07EE903A11EE903AF8EEE77A002BFD
:10088000F0EEE77AB4EE400AB8BFF1EE677AF1EE27
:1008900010FAF0EE671A4CD6F4EE600AF1EE10FA98
:1008A000B8D710EE903A9FED437ADFED437A002BF4
:1008B00067FE270AAEE704EE903ADFED3C3A10EE11
:1008C000103AF8EEE44A002BF0EEE44AB4EE634A44
:1008D000B8BFF1EE644AF1EE10FACCBF0123002359
:1008E000B0EE640A04EE903A10EE903AF8EEE44A64
:1008F000002BF0EEE44AB4EE411AB8BFF1EE644AC0
:10090000F1EE10FAF0EE640A1DD6F4EE611AF1EE83
:1009100010FA78BF0123FFF538AF11EE903A9FED42
:10092000254ADFED254A002B4FF0010364FE241A0F
:100930002BE710EE103A9FED1F7ADFED1F7A002BA8
:1009400027FE270AA8E711EE103A9FED1A4ADFEDBD
:100950001A4A002B24FE241AD7E711EE903A9FED95
:10096000157ADFED157A002B67FE271A52E711EE94
:10097000103A9FED107ADFED107A002B27FE271A30
:1009800042E710EE903A9FED0B7ADFED0B7A002BE9
:1009900067FE270A32E710EE103A9FED067ADFED88
:1009A000067A002B27FE270A22E700BFFFFF7F7F82
:1009B0000000807F00000000000000802DE9F0476B
:1009C000089D04468E46002B4DD18A42944669D933
:1009D000B2FA82F252B101FA02F3C2F1200120FA16
:1009E00001F10CFA02FC41EA030E94404FEA1C4864
:1009F000210CBEFBF8F61FFA8CF708FB16E341EA60
:100A0000034306FB07F199420AD91CEB030306F1E5
:100A1000FF3080F01F81994240F21C81023E634406
:100A20005B1AA4B2B3FBF8F008FB103344EA0344AA
:100A300000FB07F7A7420AD91CEB040400F1FF33BF
:100A400080F00A81A74240F207816444023840EAFC
:100A50000640E41B00261DB1D4400023C5E9004335
:100A60003146BDE8F0878B4209D9002D00F0EF80B8
:100A70000026C5E9000130463146BDE8F087B3FAEB
:100A800083F6002E4AD18B4202D3824200F2F980D3
:100A9000841A61EB030301209E46002DE0D0C5E9D6
:100AA000004EDDE702B9FFDEB2FA82F2002A40F022
:100AB0009280A1EB0C014FEA1C471FFA8CFE012625
:100AC000200CB1FBF7F307FB131140EA01410EFBC9
:100AD00003F0884208D91CEB010103F1FF3802D270
:100AE000884200F2CB804346091AA4B2B1FBF7F06A
:100AF00007FB101144EA01440EFB00FEA64508D98D
:100B00001CEB040400F1FF3102D2A64500F2BB80C9
:100B10000846A4EB0E0440EA03409CE7C6F1200718
:100B2000B34022FA07FC4CEA030C20FA07F401FA5E
:100B300006F31C43F9404FEA1C4900FA06F3B1FBE7
:100B4000F9F8200C1FFA8CFE09FB181140EA01414C
:100B500008FB0EF0884202FA06F20BD91CEB0101E9
:100B600008F1FF3A80F08880884240F28580A8F141
:100B700002086144091AA4B2B1FBF9F009FB101193
:100B800044EA014100FB0EFE8E4508D91CEB010131
:100B900000F1FF346CD28E456AD90238614440EAD4
:100BA0000840A0FB0294A1EB0E01A142C846A64654
:100BB00056D353D05DB1B3EB080261EB0E0101FADD
:100BC00007F722FA06F3F1401F43C5E9007100263A
:100BD0003146BDE8F087C2F12003D8400CFA02FC90
:100BE00021FA03F3914001434FEA1C471FFA8CFEA0
:100BF000B3FBF7F007FB10360B0C43EA064300FB90
:100C00000EF69E4204FA02F408D91CEB030300F12D
:100C1000FF382FD29E422DD9023863449B1B89B2E4
:100C2000B3FBF7F607FB163341EA034106FB0EF36D
:100C30008B4208D91CEB010106F1FF3816D28B421A
:100C400014D9023E6144C91A46EA004638E72E46E6
:100C5000284605E70646E3E61846F8E64B45A9D2DE
:100C6000B9EB020864EB0C0E0138A3E74646EAE74D
:100C7000204694E74046D1E7D0467BE7023B6144FB
:100C800032E7304609E76444023842E7704700BF64
:100C9000FEE700BF0B480C4A904203D0121A0B49E2
:100CA00015F02AFE0A480B4A904203D0121A00217E
:100CB00015F030FE08F006FC15F0EAFD03F0EEFB3F
:100CC000FEE700BF00000024280400246CA30108F4
:100CD00028040024EC380024704700BF704700BF90
:100CE00090F824207AB190F8203003B98361037919
:100CF00023B190F82110A1B90021C16180F8213001
:100D000080F820207047037923B190F82110002942
:100D1000F2D00B4690F820100029EFD00021C161DD
:100D2000ECE70B4680F8202080F82130704700BFA8
:100D3000F2EE0E7A90ED167A9FED0C0AA7EE270AD6
:100D400010B50446143084ED070A15F069F9D4EDA6
:100D5000147A94ED197AF8EE677A84ED0C0A67EE4E
:100D6000877AFCEEE77AC4ED157A10BDCDCCCC3D88
:100D700010B5047982B01CB3F0EE007AD0ED076AAA
:100D80009FED107AE6EE877AFDEEE77ACDED017AF7
:100D9000B3B14FEA830E8469002308E0D0F814C091
:100DA0000433013C043142F804CB734507D0002CD6
:100DB000F4DCD1F800C0019CC0F814C0F0E78461F5
:100DC00002B010BD000000422DE9F04198460379C1
:100DD0000BB9BDE8F081D0ED087A00F1140790ED71
:100DE000097A0E46F8EE677A3846144667EE877A37
:100DF000FCEEE77A17EE901A03F076FFB8F1000FD9
:100E0000E7D00025B6EC010A384603F091FF3846DA
:100E100003F080FFD4ED007A013530EE270AA845B3
:100E2000A4EC010AEED1BDE8F08100BFF8B504469C
:100E300090F824001F4630B1A269184802EB030C59
:100E4000844520D9F8BD21790029FBD0A5694BF64E
:100E500080318D42F6DDE66973B1616902EB830092
:100E600001EB8601D2ED007AB1EC017A77EE877A58
:100E7000E2EC017A8242F5D1BB1993FBF5F205FB56
:100E80001233E361F8BD606900EB82009A0015F04F
:100E900033FDA2693A44A261F8BD00BF00F22B0005
:100EA00038B51D46037923B3037F0446006A0BBBA4
:100EB000A369AA0003EB800015F01EFD236A1D4400
:100EC000B5F5004F256214DB04F580230121227F54
:100ED00083F82410AAB9A1694FF4803260691144E3
:100EE00015F00AFD237F4FF4804283F00103226254
:100EF000237738BD6369AA0003EB800015F0FCFC82
:100F0000DCE761694FF48032A069114415F0F4FC0C
:100F1000E8E700BF2DE9F047994603798BB3B9F1B3
:100F2000000F2ED0074600F140068846144600F117
:100F3000140A00255046013514F0B8FEB6EE007ACA
:100F4000D7ED157A304630EE070AF8EE677A67EE8D
:100F5000807AFCEEE77A17EE901A03F0CFFEB8EC39
:100F6000010A304603F0E4FE304603F0D3FED4ED30
:100F7000007A97ED1C7AA945E0EE077AE4EC017A55
:100F8000D8D1BDE8F08700BF0369BBB110B50446F6
:100F900080682179183005F025FD23699FED087AD6
:100FA000D3ED007A70EE677AF0EEE77AF4EEC77A66
:100FB000F1EE10FAA8BF83ED000A10BD704700BF24
:100FC0000AD7A33B83696BB110B50446043005F022
:100FD000A3FAA37BA269A3F1FF03B3FA83F35B092E
:100FE000137010BD704700BFF8B500F5802696F865
:100FF00024302DED028B002B52D003790746002BB5
:101000004ED00022037F86F82420002B4BD000F125
:10101000240301224FF40041806903F083FD002581
:10102000DFED288A2C46D7ED0A6A97ED097AB0EEF3
:10103000E68AF0EEC77AF4EEC87AF1EE10FA58BFFD
:10104000B0EE678AB5EE408AF1EE10FA10D086EE67
:10105000880AC7EE087A20EE000AA7EEA70AB5EEC6
:10106000400AF1EE10FA27D4F1EEC07A28EE278A72
:10107000B4EEE88A44F201030837F1EE10FA02DD1B
:10108000F0EE488A254601349C42CCD14BF68033A1
:1010900003FB05F307EE903AFAEEE87AC6ED0A7A1A
:1010A000BDEC028BF8BD00F1240301224FF4004196
:1010B000406903F037FDB2E715F012FBF0EE407A1D
:1010C000D4E700BF0000000070B5054600F114042D
:1010D00000F19406D4ED077A204695ED377A203456
:1010E000F8EE677AD5F8E83004ED037A44F8083C66
:1010F00067EE877AFCEEE77A17EE901A03F0F4FDBC
:10110000B442E7D170BD00BF30B585B0094B0225B0
:101110000446ADF80C10043003999FED070A40F81F
:10112000043C002302610122009505F0A5F9204648
:1011300005B030BD647301080000000010B582B036
:10114000044609491046ADF804300222049B216090
:101150000199E36005F00EFA044B20461A68511C11
:101160006260196002B010BD70730108440400246D
:101170008B680A781BB15B690270436070474FF05F
:10118000FF330270436070478B680A681BB1DB68ED
:101190000260436070474FF0FF3302604360704766
:1011A00082B0032A02AB03E9060005D81346054ABC
:1011B00052F82330836098619DF80030037002B0CC
:1011C000704700BF3C0A002482B0032A02AB03E947
:1011D000060005D813460F4A52F823308360186181
:1011E000DDED007AF5EEC07AF1EE10FA0BD4B7EE31
:1011F000007AF4EE477AF1EE10FA77FE277AC0ED26
:10120000007A02B07047DFED047AC0ED007A02B0D8
:10121000704700BF980B0024000000000000000091
:101220009FED177BB7EEE06A4FF07E5370B5B4EEDA
:10123000C76B84B00446C0ED040A4361F1EE10FAB6
:10124000836101DD104B0361DFED107A6E460121F1
:1012500020EE270AFCEEC07A17EE905AA80003F0A1
:1012600045FC2B4601462A46304603F033FDE56136
:1012700096E80F0084E80F00204604B070BD00BF60
:10128000AE47E17A14AEEF3FA4707D3F00803B474C
:101290005BB32DE9F041044698460F4615460026FB
:1012A0002DED028B2046013603F034FDD4ED047A97
:1012B000B7EC017AB0EE408A60EE277AD4ED056A89
:1012C0002046A7EEA67AB0EE470A03F031FDD5ED31
:1012D000007A94ED067AB045E7EE087AE5EC017AFB
:1012E000E0D1BDEC028BBDE8F0817047000000004A
:1012F0009FED1D7BB7EEE06AF0B5B4EEC76B85B02D
:101300000646F1EE10FA2CDCC0ED080ADFED187A83
:101310006C46012120EE270AFCEEC07A17EE905AA7
:10132000AF00384603F0E2FB2B4601462A46204632
:1013300003F0D0FC94E80F0086E80F000121384646
:1013400003F0D4FB2B4601462A46204606F1100541
:1013500003F0C0FC94E80F0085E80F00304605B0AC
:10136000F0BD044B0362D1E7AE47E17A14AEEF3F24
:1013700000803B47A4707D3F9BB32DE9F8430446B2
:10138000994600F110080E46154600272DED048BF6
:101390002046013703F0BEFCD4ED088A96ED009A92
:1013A0004046F1EE688AB0EE408A03F0B3FCD4ED1B
:1013B000087A2046A8EE890AA7EE880A03F0B8FC4E
:1013C000B6EC010A404603F0B3FC95ED000AB945BE
:1013D00030EE088AA5EC018ADAD1BDEC048BBDE8B9
:1013E000F8837047F0B50E46017983B0F9B1054630
:1013F00000F1140400F19407204620343146CDE971
:101400000023FFF745FFBC42DDE90023F4D120466D
:10141000114601930092FFF7AFFF05F1B800DDE937
:101420000023114603B0BDE8F040FFF7A5BF03B0AD
:10143000F0BD00BF10B50A460446094B00212274D6
:101440002360084803F052FB00230749074A84F849
:101450002430A1622371A260C4E90503204610BDB7
:10146000AC73010800F22B0098720108A472010805
:1014700030B5114D85B004460022104B05606D4615
:10148000017401216262A3620D4803F02FFB002367
:10149000014645F6C052284603F01CFC04F1140C2A
:1014A00095E80F008CE80F000022064B20462271C1
:1014B000A36005B030BD00BF7C730108B4720108A1
:1014C00000770100C072010838B504460025114BB1
:1014D0004FF4802201742946036024302577256269
:1014E00015F018FA04F580230022294683F82450C9
:1014F0004FF400309A6203F0F9FA034629464FF49C
:101500000030636103F0F2FA034BA06120462571BD
:10151000A36038BD8C730108C87201084FF07C537A
:101520004FF07E52DFED4B0A9FED4B0A70B52DED6B
:10153000028BC0F8DC308AB0484B04460025C0F866
:10154000E820C0F8E030464B0574C0F8EC3001A844
:10155000444B9FED458A2360FFF762FE0DF1040EB8
:1015600004F1140CDFED410A9FED410A414EBEE843
:101570000F00ACE80F009EE80F008CE80F0001A8F8
:10158000FFF74EFE0DF1040E04F1340CDFED3A0AC4
:101590009FED3A0ABEE80F00ACE80F009EE80F008E
:1015A0008CE80F0001A8FFF73BFE0DF1040E04F1DB
:1015B000540CDFED330A9FED330ABEE80F00ACE8B0
:1015C0000F009EE80F008CE80F0001A8FFF728FE2F
:1015D0000DF1040E04F1740CF0EE480A9FED2A0A96
:1015E000BEE80F00ACE80F009EE80F008CE80F008B
:1015F00001A8FFF77DFE0DF1040E04F1940CF0EE4E
:10160000480A9FED220ABEE80F00ACE80F00BEE8D2
:101610000F00ACE80F00DEF8003001A8CCF8003075
:10162000FFF766FE0DF1040C04F1B80EBCE80F00E4
:10163000AEE80F00BCE80F00AEE80F00DCF80030A9
:101640002046CEF800302571A6600AB0BDEC028BB2
:1016500070BD00BFB6F33D3FCDCCCC3DD07201088C
:10166000E0720108BC7301083333333FE3A53B3F0D
:101670006132D53DEC7201083D0A373F6666E63DB2
:10168000986E323F6B9AF73DA167B33C6B10E63B17
:101690002C4B4FF07E52DFED2C7AF0B52DED028B06
:1016A00003600446294B4FF07C550267B0EE408A38
:1016B000836585B0264BB0EE670A264A1430036571
:1016C0000026254B00F8041C826403660023234A8D
:1016D000DFED238A2349244F4165A262C4ED077AD6
:1016E000A5612562E362C4ED098A14F099FC28EE35
:1016F000288A40F20113A5616D4684ED0C0AFCEEC8
:10170000C87AA3870121267517EE900AC4ED147AD2
:10171000800003F0EBF933460146226D284603F0C2
:10172000D9FA04F1400CD4F850E095E80F008CE8A9
:101730000F002046C4F854E02671A76005B0BDEC48
:10174000028BF0BD9C7301080000C8429A99993E33
:10175000CDCCCC3EF8720108147301083EC3AE37FD
:1017600000803B470473010820730108064ADFF834
:1017700024C00260054A017400210262044AC0F8D4
:101780001CC0017182607047547301082C730108FA
:101790003C730108CDCC4C3F704700BF044B1B6825
:1017A0009A680AB100219161C26893619A6070479A
:1017B00000050024044B1B689A680AB100211161DE
:1017C000C26813619A607047040500248020704746
:1017D00051B9002A04DB06D0836801221A707047D1
:1017E000836819707047704710B480681C68044A99
:1017F0000449546008605DF8044B1A60704700BFEC
:10180000180500240005002438B5044649B9D0E97C
:101810000203D21803D4411E9142A8BF1146E160D1
:1018200038BD1D46D0E90323294653F8220003683A
:101830001B6898472968054AD4E9030353F8203008
:101840005B68596000212B60516038BD980400240A
:1018500010B483B0019201BBDDED017A8368B8EE6C
:10186000E77ADFED136AD3ED007AE7EE267AF5EE3C
:10187000C07AF1EE10FA0DD4B7EE007AF4EE477AA2
:10188000F1EE10FA77FE277AC3ED007A03B05DF827
:10189000044B7047DFED077AF6E71C688068064A5C
:1018A0000649546008601A6003B05DF8044B704745
:1018B0000AD7233C000000003C0500240405002456
:1018C000002900F0A9802DE9F04FBFB00E469B46DD
:1018D000DFF850A14FF00008504D0DF1080905EB5D
:1018E000C80408F101085AF8041F4846FFF740FCF5
:1018F00004F17803B8F1070F99E8030083E80300C7
:10190000EDD1DFF824A14FF00008E94608F1070205
:1019100008F101085AF8041F484605EBC204FFF716
:1019200033FCB8F1070F04F1780299E8030082E86C
:101930000300EBD1DFF8F4800223702222A8414695
:10194000C5F8E830219314F0D7FFD5E9000106F07F
:101950009DFC044607F06CFD002858D1211D702223
:1019600005A814F0C9FF05A900200A46034604E0B3
:10197000013330460832072B13D092F800C0DC0048
:1019800018F833E0E645F3D105EB040C5768013352
:101990000832DCF87C40BC4218BF40F00100072B45
:1019A000EBD1002309E0D46F0133CA6B08319442B4
:1019B00018BF40F00100072B10D0DA1DD1ED0E7AD0
:1019C00005EBC20292ED1E7AB4EE677AF1EE10FAE0
:1019D000E9D0013330460831072BEED128B9104B3E
:1019E000CBF800303FB0BDE8F08F6968286801F19E
:1019F000740206F061FB21AB7422D5E9000106F008
:101A000057FB074BCBF800303FB0BDE8F08F742197
:101A1000204607F0A9FAA1E7704700BFAC0A0024EE
:101A2000980400241C0A0024480A0024240B0024E3
:101A30002DE9F04F83B05C1A0C9E002C9DF8349079
:101A4000A6EB0208B8BF6442B8F1000FB8BFC8F1F6
:101A500000088B428CBF4FF0010A4FF0FF3A9642CC
:101A6000A4EB080C51D84FF0FF357F2B019512D80D
:101A70003F2E10D8F50806F0070E012703EBC51519
:101A80000544B9F1000F47D007FA0EF795F810E0BA
:101A900047EA0E072F74964201D18B4229D0C8F134
:101AA00000077F2914D83F2A12D8D50802F0070B67
:101AB0004FF0010E01EBC5150544B9F1000F1BD025
:101AC0000EFA0BFE95F810B04EEA0B0E85F810E0FA
:101AD000B7EB4C0F4FEA4C0502DAACEB080C514463
:101AE000AC4202DD019DA4442A449942D9D19642D8
:101AF000D7D103B0BDE8F08F0EFA0BFB95F810E0DC
:101B00002EEA0B0E85F810E0E2E701257F2B019508
:101B1000C5D83F2EAED9C2E707FA0EFE2F7C9642FB
:101B200027EA0E072F74B8D0B9E700BF0B682DE97C
:101B3000F04F9D6985B0C04B0C4680469D4240F0F9
:101B4000968191F89130022243F0080381F8913098
:101B5000D10802F00700012304EBC1111A448340AD
:101B6000487C0B2A43EA00034B74F1D1D8F80C509F
:101B70002E4640E0762301220A212046CDE900527C
:101B80002A46D847236805F10209DA681FFA89F95D
:101B9000BA4240F0CA800B229B682046A280984738
:101BA000814506D3236820469B68984701381FFA71
:101BB00080F9D8F810204FF0010ED4F800C020466C
:101BC00052F826109D4B89680CCBA4F80690CDF8EE
:101BD00000E0DCF82890C847D8F80830013BB34251
:101BE00002D1322D40F3CD80D8F80C5001362B1D98
:101BF000B342C0F2DF80D8F80830B34240F3DA8055
:101C0000751B22685A274FF0010B05EB45004FF07A
:101C1000B40C07230A2105EB8005CDF800C020464F
:101C200005F1060ACDE9017BD2F820905246C8475B
:101C3000226805F10709009707230A212046CDE90C
:101C4000017BD2F820B04A46D84723687C4FDA6837
:101C5000D3F820B0BA4240F08A80762101205A237E
:101C60004FF4877C5246CDE90130CDF800C0072300
:101C70002046D8472368DA68D3F820B0BA427BD12F
:101C800076214FF0010C5A204FF0000A07234A46F4
:101C9000CDF800A0CDE9010C2046D8472368DA68CA
:101CA000D3F818B0BA424BD1634B9B457FF462AF77
:101CB0004FF06C0976233F2D4FF0010B10D8BAF18D
:101CC000000F0DD1EA0805F00700012103EBC21255
:101CD00081402244107C014311740A2B3FF452AF1F
:101CE000CE4628464FF00A0CC20800F007014FF01C
:101CF000010ABCF17F0F0CEBC2120AFA01F107D8FE
:101D00003F28224404D892F810A041EA0A01117435
:101D10005FEA4E0218BFDC44914501DDCE44013834
:101D20006345E1D18542DFD12CE7204690470B285F
:101D300023683FF630AFDA68BA423ED17F222BE704
:101D4000204690473C4AA0F10A0393457FF413AF25
:101D5000A0F11409B9F1000FB8BFC9F100090A2BAD
:101D600000F293803F2D4FF0FF3BABD9B5E7204603
:101D70009047A0F10A0171E720469047A0F10A01BF
:101D80007FE723680D35D3F81890DB68BB4259D143
:101D9000294B994517D0762301212A4600952046E4
:101DA00001910A21C847D8F80C5001362B1DB342C7
:101DB000BFF621AF05B0BDE8F08F2046904701384F
:101DC000236882B2E8E600224FF06C0E76233F2DA6
:101DD0004FF001090ED86AB9EA0805F007000121A1
:101DE00003EBC21281402244107C014311740A2B80
:101DF0003FF4FAAEF4462F460A22F90807F0070A24
:101E000001207F2A02EBC11100FA0AF007D83F2F08
:101E1000214404D891F810A040EA0A0008745FEA4F
:101E20004C0118BF4A448E4501DDF444013F934202
:101E3000E3D1BD42E1D1D7E6311A00089400002475
:101E4000CD17000820469847134AA0F10A03914590
:101E5000A2D1A0F1140EBEF1000FB8BFCEF1000E5A
:101E60000A2B0DD83F2D4FF0FF39B5D9BFE701231D
:101E70000B2220461946CDE900230222A84775E629
:101E80007F2B94BF00220122A1E77F2B94BF4FF04C
:101E9000000A4FF0010A0EE7311A00082DE9F04F51
:101EA00087B09DF84850109C2E4601959DF84450EF
:101EB0009EB399422ED89946A24228D87F29164629
:101EC00094BF0023012308E09CF810804EEA080E1E
:101ED0008CF810E00136B44219D33F2EFAD8002B0B
:101EE000F8D14FEAD60C06F0070E4FF0010801EBCF
:101EF000CC1C08FA0EFE8444002DE5D19CF810B0ED
:101F000001362BEA0E0AB4428CF810A0E5D201315A
:101F10008945D1D207B0BDE8F08FA3EB0108B8F135
:101F2000000FB8BFC8F100089942C0F04E817F2B66
:101F30004FF0FF3A94BF002601263F2A009694BF37
:101F4000002701270397A6B99FB9D60802F0070C0E
:101F5000012703EBC6160644002D00F0958107FA11
:101F60000CF796F810C047EA0C0737740026039662
:101F70000096994200F09881464694468E46BEF1FE
:101F80007F0F16D8BCF13F0F13D84FEADC070CF0D7
:101F9000070B4FF001090EEBC7170744002D00F0A7
:101FA000398109FA0BF997F810B049EA0B0987F85B
:101FB0001090770018BFD644B84502DD46440CF1B6
:101FC000FF3C7345DBD16245D9D100260496A4EBD2
:101FD0000209B9F1000FB8BFC9F100093F2C94BF45
:101FE00000260126A242C9F100080296C0F0248111
:101FF000002E40F05281009E002E40F04E814FF0A6
:10200000FF360096E60803EBC6160644002D00F0E6
:102010001F814FF0010C04F007070CFA07F796F840
:1020200010C047EA0C07377400260296A24200F05F
:102030003E81C44616461F4605927F2F15D83F2E77
:1020400013D84FEAD60E06F0070B4FF0010A07EB44
:10205000CE1E8644002D00F0E6800AFA0BFA9EF8A8
:1020600010B04AEA0B0A8EF810A0B8EB4C0F4FEAFA
:102070004C0E02DAACEB090C013FBEF1000F01D0AF
:10208000009A1644BB42D8D1B442D6D1059AA1EBEE
:10209000030EBEF1000FB8BFCEF1000E7F2994BF32
:1020A0004FF0000A4FF0010A99428CBF4FF001092E
:1020B0004FF0FF39BAF1000F13D1029E8EB9E60836
:1020C00001EBC6160644002D00F0D4804FF0010C41
:1020D00004F007070CFA07F796F810C047EA0C0758
:1020E0003774049E26BB774626467F2B14D83F2E96
:1020F00012D84FEAD60C06F0070B4FF0010803EB9D
:10210000CC1C8444002D73D008FA0BF89CF810B056
:1021100048EA0B088CF810805FEA470C18BF4B4464
:10212000E64501DD7744013E9942DED1B442DCD17F
:10213000A2EB040EBEF1000FB8BFCEF1000EA2421A
:102140008CBF4FF001084FF0FF38CEF1000CBAF110
:10215000000F0ED1039B63B9D30802F007070126D5
:1021600001EBC3130344002D7DD0BE401F7C3E43D2
:102170001E74019B002B7FF4CDAE66460B467F2B71
:1021800012D83F2C10D8E70804F0070A4FF00109D5
:1021900003EBC7170744A5B309FA0AF997F810A08B
:1021A00049EA0A0987F81090BCEB460F4FEA460748
:1021B00002DAA6EB0E06013B07B144449942DED198
:1021C000A242DCD107B0BDE8F08F3F2A4FF0010AF0
:1021D00094BF002601267F2B039694BF002701277A
:1021E0000097002E7FF4C8AE002F3FF4AEAEC3E6DA
:1021F00008FA0BFB9CF8108028EA0B088CF810807A
:102200008AE709FA0AFA97F8109029EA0A0987F882
:102210001090C9E709FA0BFB97F8109029EA0B090F
:1022200087F81090C5E60AFA0BFB9EF810A02AEA80
:102230000B0A8EF810A018E79EBB009E8EBB0126ED
:102240000096E60803EBC6160644002D7FF4E1AEC7
:10225000012704F0070C029507FA0CFC377C27EAEB
:102260000C073774E2E606FA07F71E7C26EA070633
:102270001E747EE7012704F0070C07FA0CFC377C7C
:1022800027EA0C0737742CE707FA0CFC377C039518
:1022900027EA0C07009537746BE64FF0FF3600967F
:1022A000C4E601260096C4E6012604968FE60126C0
:1022B0000196ECE6024BC26843609A60704700BF2B
:1022C00068040024024BC26843609A60704700BFF4
:1022D000540400242DE9F04F89B008AC9DF84870F3
:1022E000019104E90C000B78002B00F0AD801A4638
:1022F0009DF8193080469DF8184003939146079B3E
:102300000593A9F12005EBB25E2B00F2A180D8F86D
:1023100000305A4ADB68934240F09D808020B8F834
:1023200004302344834200F39380D8F800304046C1
:102330009B689847B8F80610039A02918B18984248
:10234000C0F28680002A00F08E8002FB05F56FF057
:10235000004E059BAE441544B8F804B003EB4E0E96
:10236000023BCDF8109003EB45030D469A463EF82C
:10237000026FA4B305F007034FF0010CEA085946B9
:102380000CFA03FC0BF110034FFA8CFC03EBC212A6
:1023900000236FEA0C0942440DE07F2906D83F2D47
:1023A00004D8107897B14CEA000010700133013264
:1023B0000131A34213D006FA03F00004EDD47F29C3
:1023C000F4D83F2DF2D81078002FECD0013309EA71
:1023D000000001320131A34202F8010CEBD1D645D5
:1023E00005F10105C3D1DDF81090D8F800200BEB02
:1023F00004052249D368ADB28B422FD1802085429B
:1024000004D3D3681D498B4230D17F259368404661
:10241000A8F804509847029B834207D3D8F80030AD
:1024200040469B689847013883B20293029BA8F804
:102430000630019B1878484507D113F8019F019396
:10244000B9F1000F7FF45DAF002009B0BDE8F08F57
:102450004FF00009EDE74046984760E7404698474F
:10246000D8F80020CBE7B8F804B0BEE7404698475C
:102470000138D8F8002085B2C8E700BFCD170008A2
:102480002DE9F04F964683B0984691461EF8014BD1
:1024900005460F460C9B9DF83860002C00F0F98033
:1024A0004FF0000C1EF8014B0CF1010C002CF9D17F
:1024B0001FFA8CFC98F8004098F8012014FB0CFCE3
:1024C0000D9811B20FFA8CFC2CEAEC7C082800F273
:1024D000E980DFE800F04558B5CC6F7F989F050094
:1024E0009A88B3F800A09244B3F90620AAEB0C0A2C
:1024F000002A1FFA8AFA44DB5C88E98004EB620454
:10250000A5F804C0A5F800A0A4EB51018CB26C8022
:102510003B68DFF8ACB1DA685A4547D180205045B6
:1025200005D8DA685A4540F0B6804FF07F0A9B68BC
:102530003846A7F804A09847A04205D83B6838461B
:102540009B689847013884B2FC804946009638461B
:1025500098E80C00FFF7BEFE284603B0BDE8F08FF8
:10256000B3F90420B3F800A0002AB8BF01320AEB87
:10257000620AB3F90620AAEB6C0A002A1FFA8AFA4B
:10258000BADA0132B8E7B3F900A0B3F902403B6808
:10259000DFF82CB1DA68A5F800A01FFA8AFA5A45CC
:1025A0006C80A5F804C0A4B2E980B7D03846904743
:1025B0003B68B4E75C88D888B3F900A00444A5F868
:1025C00004C0A5F800A01FFA8AFAA21AE98094B202
:1025D0006C809DE7B3F90400B3F800A00028B8BFF1
:1025E00001300AEB600AAAEB6C0A5C881FFA8AFACF
:1025F000DB88A5F804C01C44E980A5F800A0A21A55
:1026000094B26C8084E7B3F800A098888244AAEB67
:102610000C0AEAE7B3F906205C88002AB3F900A0A7
:10262000E980B8BF0132A5F800A0A5F804C01FFAE0
:102630008AFA04EB6204A4EB51018CB26C8067E768
:10264000B3F90420B3F800A0002AB3F90240A5F8BA
:1026500004C0B8BF01326C80E980A4B20AEB620A00
:10266000AAEB6C0C1FFA8CFAA5F800A050E7B3F89F
:1026700000A09A88B3F902409244A5F804C06C8087
:10268000A4B2AAEB0C0CE9801FFA8CFAA5F800A002
:102690003EE7A4460EE73846904701383B681FFAEC
:1026A00080FA44E73B680024DFF814B0DA68A246F9
:1026B0002C805A456C80AC80EC803FF438AF75E7D5
:1026C000CD1700082DE9F0430D6889B0694B0C4621
:1026D000EE699E4240F0B78091F8002101F19E031F
:1026E00001F1FF0642F0040081F8000113F8011F18
:1026F00041F004019E421970F8D194F880230A2316
:10270000012142F0200284F8802301E090F880004B
:1027100003F00707012204EBC1161344BA40D9089D
:102720000243352B04EBC11086F88020EED194F8DB
:102730001F1304F2813204F5487041F0200184F83F
:102740001F1312F8011D41F0200190421170F8D1C1
:1027500094F89F2042F0040284F89F20D90803F0E7
:1027600007000122013B04EBC11182400A2BC87F04
:1027700042EA0002CA77F1D10A22EE6A0F216123F0
:10278000ADF812202B22ADF81010ADF816203A4A01
:10279000ADF81430964248D13849002201E011F8D2
:1027A000013F0132002BFAD1DFF8D880DFF8D89052
:1027B00098F8003098F8017013FB02F2EB68ADF85E
:1027C0001E707F1012B24B45C7F11F0722EAE2725A
:1027D000BFB24FEA6206ADF81C20ADF81A70C6F120
:1027E0003F06B6B2ADF818603AD18020B04203D8A7
:1027F000EB684B4538D17F26AB682046A6809847CA
:10280000B8420BD90121204698E80C00E7800091DE
:102810001B49FFF75FFD09B0BDE8F0832368204640
:102820009B689847013887B2ECE704A8012200238F
:102830002146009006A8CDE90132124B104AB0475C
:1028400009B0BDE8F0830022012335212046CDE9FF
:102850000132009170230A220F21B04725688BE7CF
:10286000204698472568C1E72046984701382568E3
:1028700086B2C1E79D1E000881240008C5730108C7
:10288000C47301088C000024CD1700082DE9F04F17
:10289000022389B005460A6880680C46D2F82C806D
:1028A0004768894EADF81030ADF812307C23B04542
:1028B000ADF814304FF01403ADF8163040F0E3805B
:1028C000394611F8013B33B1002311F8010B0133F4
:1028D0000028FAD19BB2DFF804A2D1689AF8000070
:1028E0009AF801B010FB03F3DFF8F491ADF81EB0D5
:1028F0004FEA6B0B1BB24945CBF10C0B23EAE37398
:102900001FFA8BFB4FEA6308ADF81C30ADF81AB024
:10291000C8F140081FFA88F8ADF8188040F0C2806E
:102920008020404505D8D3684B4540F0BF804FF02C
:102930007F0893682046A4F804809847584540F2E1
:1029400083800123A4F806B03946204600939AE814
:102950000C00FFF7BFFC27685C4BD7F81880984540
:1029600040F0878094F88F3104F5C77143F010036D
:1029700084F88F3104F20F1313F8012F42F0100284
:1029800099421A70F8D1AB68514A1B785149FD6AD7
:10299000002B14BF8846904615220023B542ADF89F
:1029A00012204FF07F02ADF81030ADF814204FF038
:1029B0002A02ADF816204FD108F1010010F8015B92
:1029C0000133002DFAD1DFF810A1FA689AF800104F
:1029D0009AF8016011FB03F3DFF80491ADF81E6073
:1029E00076101BB24A45C6F12A0623EAE373B6B253
:1029F0004FEA6305ADF81C30ADF81A60C5F13F052C
:102A0000ADB2ADF8185049D18020A84203D8FB6878
:102A10004B4552D17F25BB682046A5809847B042E0
:102A20000BD90123E6804146204600939AE80C002A
:102A3000FFF750FC09B0BDE8F08F236820469B6883
:102A40009847013886B2ECE7236820469B68984790
:102A500001381FFA80FB74E70193012004AB424662
:102A600002902146009306A81B4BA84709B0BDE879
:102A7000F08F1422012300212046CDE900237F237B
:102A8000C04727687FE7002301203A46CDE901309F
:102A900004AB06A80093114BC0475CE72046904763
:102AA0002768B2E72046884722683AE720469847D9
:102AB000013822681FFA80F83BE720469847013822
:102AC000276885B2A7E700BF81240008311A0008F3
:102AD000D0730108CC7301088C00002494000024FA
:102AE000CD1700082DE9F04F022389B005460A688A
:102AF00080680C46D76AD0F804808E4EADF810304E
:102B0000ADF812307C23B742ADF814304FF0140307
:102B1000ADF8163040F0D180414611F8013B33B199
:102B2000002311F8010B01330028FAD19BB2DFF822
:102B30001CB2D1689BF800009BF801A010FB03F3C6
:102B4000DFF80C92ADF81EA04FEA6A0A1BB24945A5
:102B5000CAF10C0A23EAE3731FFA8AFA4FEA630701
:102B6000ADF81C30ADF81AA0C7F14007BFB2ADF800
:102B7000187040F0C8808020B84204D8D3684B4514
:102B800040F0CB807F2793682046A7809847504528
:102B900040F28B800123A4F806A041462046009312
:102BA0009BE80C00FFF796FB2268634B97699F42F6
:102BB00040F0938094F88F2104F20F1304F5C7714D
:102BC00042F0100284F88F2113F8012F42F0100216
:102BD00099421A70F8D1AB6805219FED587AD3ED70
:102BE000007A574F67EE877A564A3846FDEEE77A05
:102BF00017EE903A13F090FF152122680023D56A52
:102C0000ADF812107F21B542ADF81030ADF81410B8
:102C10004FF02A01ADF8161068D13D78002D7AD01A
:102C2000781C10F8011B01330029FAD19BB2464FE2
:102C3000DFF81C913D787E7815FB03F5D368ADF87D
:102C40001E6076102DB24B45C6F12A0625EAE575C1
:102C5000B6B2ADF81C504FEA6505ADF81A60C5F183
:102C60003F05ADB2ADF8185051D18020A84203D82D
:102C7000D3684B4557D17F2593682046A580984758
:102C8000B0420BD90121204697E80C00E680009164
:102C90002B49FFF71FFB09B0BDE8F08F23682046E2
:102CA0009B689847013886B2ECE7236820469B680A
:102CB000984701381FFA80FA6CE70023012042464A
:102CC000CDE9013004AB06A80093204BB847226839
:102CD000194B97699F423FF46DAF142201230021E5
:102CE0002046CDE900237F23B84774E701930120F4
:102CF00004AB3A4602902146009306A8124BA8471F
:102D000009B0BDE8F08F20468847226834E72046A6
:102D100098472268AAE72B4689E72046984701385A
:102D2000226887B22FE7204698470138226885B28B
:102D3000A2E700BF81240008311A00080000C84241
:102D400060040024D47301088C0000249400002443
:102D5000CD170008F0B41D4A04201D491D4C1E4B20
:102D60000A6088600C6100241C491A60196198602F
:102D70001B491C4B1C4E1D4F1960D96099611C4D9D
:102D8000B4601C4937601C4E1962AC601B492E6050
:102D90000E25DC618D601A4D59601A481A4C0A6084
:102DA0000D611A491C6121600260194C194A1A49C7
:102DB0009C600324596103F10C0113601833026114
:102DC0008460C2E90113F0BC704700BF447401087D
:102DD0003C0500242C0500241805002408050024C7
:102DE00008740108740400246804002414740108A1
:102DF00054040024F873010824740108E404002436
:102E0000AC04002498040024F8040024347401085D
:102E1000DC73010848040024E8730108704700BF10
:102E2000704700BF704700BF704700BF49424FF472
:102E300080621030C9B213F06DBD00BF704700BF93
:102E40004020704738B51F4D04461F4803F006FB6D
:102E5000284603F061FB2B792BB1AB7AA3F17F03FA
:102E6000B3FA83F35B096279184D13432846637103
:102E700003F074FA2A7B2AB1AA7CA2F17F02B2FA8B
:102E800082F2520921792B790A43227103B16B6ACC
:102E900022680F49134423600B7803F0FF027BB9CB
:102EA00023790C48DBB20370227163790A48DBB2E4
:102EB00003700123627109482568056022600B7068
:102EC00038BD00BF50050024C8090024940900241F
:102ED00061050024C009002460050024BC09002409
:102EE0002DE9F0470F46124D0168814616463868B5
:102EF000920005F1180813F0FFFC06E021683A681B
:102F00000C681146A047454510D055F8044B334690
:102F1000227C2046002AF1D120683A68D0F800A02F
:102F20002046D9F80010D0474545EED1BDE8F087DE
:102F30007C09002410B504464FF4826113F07BF83D
:102F4000204610BD2DE9F04F4FF0B00885B0054682
:102F500000F1080700F18F0600F28F494FF47A7BE9
:102F60004FF0000A297B022303AA3846CDF800B0AF
:102F7000A6F180048DF80CA08DF80D8004F036FACF
:102F8000297B022303AA3846CDF800B08DF80CA0A7
:102F90008DF80DA004F02AFA4FF0100C297B0223C3
:102FA00003AA3846CDF800B08DF80CA08DF80DC0FE
:102FB00004F01CFA4FF47A7014F801CF4FF0400E71
:102FC000297B0223009003AA38468DF80CE08DF887
:102FD0000DC004F00BFAB442ECD104F1800608F104
:102FE00001084E455FFA88F8B8D105B0BDE8F08F0A
:102FF0002DE9F04F85B0A1F1200504AC9DF83870A3
:10300000009104E90C00EBB25E2B00F2958003689E
:1030100080465D4ADB689DF8084093429DF8096050
:1030200040F094808020B8F804302344834200F3B9
:103030008380D8F80030554A9B68934240F08880DE
:103040004020B8F8062093190192834274DC002EC8
:1030500000F0898006FB05F56FF00040039B964663
:1030600028442E44B8F804A003EB4000023B03EBD5
:10307000460B30F8026FBCB30EF007034FF0010CA3
:103080004FEADE0251460CFA03FC0AF110034FFA34
:103090008CFC03EBC21200236FEA0C0942440EE0E1
:1030A0007F2907D8BEF13F0F04D815789FB14CEAAD
:1030B000050515700133013201319C4214D006FA26
:1030C00003F52D04ECD47F29F4D8BEF13F0FF1D8DD
:1030D0001578002FEBD0013309EA050501320131E3
:1030E0009C4202F8015CEAD158450EF1010EC0D1B4
:1030F000D8F8003054442449DA68A4B28A422DD169
:10310000802084421CD29B68204AA8F80440934245
:1031100021D14020019B834207D3D8F800301B4ABD
:103120009B68934229D13F230193DDE90003A8F86E
:10313000063005B0BDE8F08F002005B0BDE8F08F87
:10314000DA6811498A4211D17F24DCE798476AE79F
:103150004046984775E740469847DBE7404690472A
:10316000D8F80030CDE7B8F804A0C1E74046904752
:103170000138D8F8003084B2C5E740469847013896
:1031800083B20193D1E700BFCD170008412E00089C
:103190007F291ED83F2A1CD86BB1D3084FF0010CF1
:1031A00002F0070201EBC3130CFA02F2C1180B7C08
:1031B0001A430A747047D3084FF0010C02F007025B
:1031C00001EBC3130CFA02FCC1180A7C22EA0C02C0
:1031D0000A747047000000002DE9F04F2DED068BBA
:1031E00083B01F4680460D469DF850301646019329
:1031F000139B002BC0F22182129A134406EE103A60
:10320000DDED127AB8EEC66B9FEDCD4BB8EEE77BE5
:103210009FEDCD5B27EE047B26EE046B87EE050B5E
:1032200086EE05ABF7EEC08BB0EE680A12F020FF19
:1032300007EE907AB7EECAABF8EE679AB0EE408A26
:10324000B0EE680A13F01CF960EE698AB0EE4A0A23
:1032500012F00EFFB0EE409AB0EE4A0A13F010F9E9
:1032600020EE690A29EE888A29EE899A70EE687A3A
:10327000F0EE006A39EE487A67EEA77AE7EE077A51
:10328000F4EEE67AF1EE10FA06D5139BB42B40F378
:1032900096804FF0010901E04FF0000901247842C7
:1032A0004FF0000C0095E31B214627462246A34021
:1032B000B9F1000F6AD1424206EE90CACCF100018A
:1032C00007EE102AB8EEE66A07EE901A06EE900AAC
:1032D000B8EEC77A139A66EE084AF8EEE77AB42A8F
:1032E00027EE284AF8EEE66A67EE885A74EEC43A8A
:1032F00026EEA85A26EE096A66EE806A67EE897A9B
:1033000027EE007AF5EEC03A40F3F280F1EE10FAC3
:1033100000F17F8176EE473A74EEC54AF5EEC03A89
:10332000F1EE10FAF5EEC04ACCBF01220022F1EE18
:1033300010FA00F1778136EE666A35EEC55AB5EEC1
:10334000C06AF1EE10FAB5EEC05ACCBF01210021DF
:10335000F1EE10FA00F16F8177EEE66AF5EEC06AE1
:10336000F1EE10FACCBF0127002775EEC45AF5EE36
:10337000C05AF1EE10FA00F1478177EEC77AF5EE08
:10338000C07AF1EE10FACCBF01240024002A40F0EC
:103390008A80002964D1BFB9C4BB9C4558DB0CF1BD
:1033A000010C03EB4C0E1CEB000F0EF1010E00F0B4
:1033B000C08098424FDB734600287FF779AF03B097
:1033C000BDEC068BBDE8F08F009DA6EB0C0E00EB6C
:1033D000050ABAF17F0FDFD8BEF13F0FDCD84FEA04
:1033E000DE0B019D0AEBCB1A002D00F0B1800EF030
:1033F000070BC2444FF0010E0EFA0BFE9AF810B004
:103400004EEA0B0E8AF810E0002CC6D0009DA6EB09
:103410000C0EA5EB000ABAF17F0FBED8BEF13F0F2C
:10342000BBD84FEADE0B019D0AEBCB1A002D00F052
:10343000AE800EF0070BC2444FF0010E9C450EFA11
:103440000BFE9AF810B04EEA0B0E8AF810E0A6DADE
:1034500098429E46AFDA01300EEB40030133ABE7F2
:10346000009D0CEB060E00EB050ABAF17F0F92D817
:10347000BEF13F0F8FD84FEADE0B019D0AEBCB1A4E
:10348000002D73D00EF0070BC2444FF0010E0EFA60
:103490000BFE9AF810B04EEA0B0E8AF810E0002FDF
:1034A0003FF47AAF90E7009D0CEB060EA5EB000A07
:1034B000BAF17F0F3FF66DAFBEF13F0F3FF669AF38
:1034C0004FEADE0B019D0AEBCB1A002D6DD00EF0FA
:1034D000070BC2444FF0010E0EFA0BFE9AF810B023
:1034E0004EEA0B0E8AF810E000293FF454AFB7E71C
:1034F000F1EE10FA7ED44A4674EEC54AF5EEC04AA3
:10350000F1EE10FA6CD4002135EEC55AB5EEC05A72
:10351000F1EE10FA5AD4002775EEC45AF5EEC05AEF
:10352000F1EE10FA3FF529AF0024002A3FF431AF45
:10353000B9E798428FDB00233BE700BFAFF3008081
:103540007A008BFCFA2109400000000000806640F0
:10355000C2444FF0010B0EF0070E0BFA0EFE9AF864
:1035600010B02BEA0E0E8AF810E015E7C2444FF0B7
:10357000010B0EF0070E0BFA0EFE9AF810B02BEAB4
:103580000E0E8AF810E0002F3FF406AF1CE7C2448D
:103590004FF0010B0EF0070E0BFA0EFE9AF810B06A
:1035A0002BEA0E0E8AF810E0F7E6C2444FF0010B4A
:1035B0000EF0070E0BFA0EFE9AF810B02BEA0E0E64
:1035C0008AF810E000293FF4E6AE49E777EEE66AB4
:1035D000F5EEC06AF1EE10FACCBF012700279BE799
:1035E00036EE666AB5EEC06AF1EE10FACCBF012184
:1035F000002189E776EE473AF5EEC03AF1EE10FA8F
:10360000CCBF0122002277E70124002A3FF4C1AE9B
:1036100049E774EEC54A0122F5EEC04AF1EE10FA10
:103620007FF589AE35EEC55A0121B5EEC05AF1EEEF
:1036300010FA7FF591AE012797E6DDE912231344D6
:1036400006EE102A1293139B5B421393D8E500BF3A
:10365000F8B5214C04F1180554F8040B03685B68B5
:103660009847AC42F8D11D4C04F1100554F8040BF6
:1036700003681B689847AC42F8D1194C04F1100557
:1036800054F8040B03681B689847A542F8D1154C01
:103690002068A0B10368144D144E29781F68234692
:1036A0003268B847124A137813B123685B68236005
:1036B000002310492B70137033600B70F8BD0C4A57
:1036C000094D13781BB92B780BB9084EF0E70A4B5C
:1036D000064E1B682360EBE77C090024980B00244E
:1036E0003C0A002468050024C0090024BC09002409
:1036F00060050024610500241C0A00242DE9F04F18
:10370000DFF800B34FF4806200210BF110002DEDC3
:10371000028B91B013F0FEF8B14B186840B103680A
:1037200059465B6811B0BDEC028BBDE8F04F1847FD
:10373000AC4B04934FF00513CBF80430049A52F8C5
:10374000043B04929A69002A00F0E480A64BBBF87F
:1037500004C01D7859785B68039105930CEB050351
:10376000802B019362DCBBF806A00AEB0103402B1F
:103770005CDC002947D013786FF0004E039A544662
:103780003033DBB2203B02FB03F39E441344059A23
:10379000A2F1020902EB4E0E09EB43093EF8026F5B
:1037A0006DB304F007030127E20861469F400CF166
:1037B00010037FB203EBC21200236FEA07085A44DA
:1037C0000BE07F2904D83F2C02D8107838431070C2
:1037D000013301320131AB4211D006FA03F000048B
:1037E000EFD47F29F4D83F2CF2D81078013301327E
:1037F000013108EA0000AB4202F8010CEDD1CE45E0
:1038000004F10104CAD1BDF804C0BAF13F0F28BFCA
:103810004FF03F0ABCF17F0F28BF4FF07F0CABF891
:1038200006A00CEB0503ABF804C00193019A6F4BA3
:10383000802A02934FF020036CDCBBF806900399BA
:1038400009EB0102402A65DC002944D0039A203BA1
:103850006FF0004E4C4602FB03F39E441344059A5E
:10386000A2F1020A02EB4E0E0AEB430A3EF8026F87
:103870006DB304F007030127E20861469F400CF195
:1038800010037FB203EBC21200236FEA07085A4409
:103890000BE07F2904D83F2C02D8107838431070F1
:1038A0000133013201319D4211D006FA03F00004C8
:1038B000EFD47F29F4D83F2CF2D8107801330132AD
:1038C000013108EA00009D4202F8010CEDD1F245F9
:1038D00004F10104CAD1BDF804C0B9F13F0F029A46
:1038E00028BF4FF03F09BCF17F0F12F8013F28BFFE
:1038F0004FF07F0CABF806900292ABF804C04BB1CE
:10390000A3F120025E2A05D80CEB05020192019A70
:10391000802A92DD364B049A93427FF40FAF354BE9
:103920000493354BCBF80430049A52F8043B1B69DE
:103930000492002B00F0F680D3ED007A05219FED74
:103940002F7A0CA82E4A67EE877AFDEEE77A17EEFB
:10395000903A13F0E1F8244B5A781C785B68039294
:1039600005939DF83030002B00F049840CAABBF879
:1039700004C00192203B0CEB0409DAB25E2A7DD828
:10398000B9F1800F00F3CE80BBF8062003990292B4
:103990000A44402A72DC002958D0039A6FF0004E86
:1039A000029D02FB03F39E441344059AA2F1020A0E
:1039B00002EB4E0E0AEB430A3EF8026F002C41D098
:1039C00005F007030127EA0861469F400CF1100348
:1039D0007FB203EBC21200236FEA07085A441FE0CC
:1039E000680500243C0A0024940000246474010843
:1039F0004C0A0024980B002405001E0000007F43A1
:103A00006C7401086C0500247F2904D83F2D02D86E
:103A1000107838431070013301320131A34211D0C4
:103A200006FA03F00004EFD47F29F4D83F2DF2D832
:103A3000107801330132013108EA0000A34202F894
:103A4000010CEDD1F24505F10105B5D1029A1FFA3D
:103A500089FC01993F2A11F8013F28BF3F22BCF1A0
:103A60007F0F019128BF4FF07F0CABF80620ABF819
:103A700004C0002B7FF47EAF0CEB0409B9F1800F7A
:103A800050DCBBF80630039A01931344402B49DC09
:103A9000002A3AD0DDF814E0039B019D0EEB430AA7
:103AA0003EF8026B6CB305F007030127EA08614694
:103AB0009F400CF110037FB203EBC21200236FEAA8
:103AC00007085A440BE07F2904D83F2D02D810780C
:103AD00038431070013301320131A34211D006FA8C
:103AE00003F00004EFD47F29F4D83F2DF2D81078EA
:103AF00001330132013108EA0000A34202F8010C4F
:103B0000EDD1F24505F10105CAD1019A1FFA89F3F9
:103B10003F2A28BF3F227F2B28BF7F23ABF80620F8
:103B2000ABF80430A54B049A93427FF4FDAEA44B4E
:103B30001B681B79002B00F05483A24D09A90AA829
:103B400000242B6893ED000A01F07EF89E4B2A6852
:103B5000B0EE408A8DF83F4093E803000B0C0E90C6
:103B6000ADF83C100EA88DF83E300821D2ED007A59
:103B7000964AFDEEE77A17EE903A12F0CDFF099BD8
:103B8000ADF82040092B40F23183FFEE007A00238C
:103B90000B93B4EEE78AF1EE10FA07DDF7EE007A48
:103BA000B4EEE78AF1EE10FA00F12C8305934FF49E
:103BB00080620021864812F0ADFE864B082203F198
:103BC0004F018BF8622013F8012F42F0080299424E
:103BD0001A70F8D19BF8E223032342F020028BF8FD
:103BE000E223D90803F0070001220BEBC1111344B3
:103BF000824091F862003D2B42EA000281F8622087
:103C0000EFD19BF8932342F020028BF89323724A62
:103C1000A2F14F0012F8011D41F0200190421170F5
:103C2000F8D19BF8132042F008028BF81320D90832
:103C300003F007000122013B0BEBC1118240032B73
:103C4000C87C42EA0002CA74F1D19BF88C2042F091
:103C500008028BF88C20614A02F1270012F8011F3C
:103C600041F0080190421170F8D19BF80C2442F009
:103C700020028BF80C24D90803F0070001220BEB7B
:103C8000C1111344824091F88C003D2B42EA00029E
:103C900081F88C20EFD19BF8E52342F020028BF8CD
:103CA000E5234F4AA2F1270012F8011D41F020013F
:103CB00090421170F8D19BF8652042F008028BF811
:103CC0006520D90803F007000122013B0BEBC1116D
:103CD0008240032B91F8650042EA000281F86520DA
:103CE000EFD10A9B1A46019312F8013B33B100232E
:103CF00012F8011B01330029FAD19BB2394A5178DD
:103D00001578526803910692AAB212FB03F304924B
:103D10001BB223EAE3735B10C3F168039BB27F2BF2
:103D200028BF7F23ABF804304B08C3F116039BB2C6
:103D30003F2B28BF3F23ABF80630019B93F800A030
:103D4000BAF1000F00F08B80AAF12003DAB25E2AEC
:103D500000F25282BBF804E00EEB0502802A00F369
:103D60004B82BBF80620039902920A44402A00F3D2
:103D7000438200295AD0039A6FF0004C029C02FB48
:103D800003F39C441344069AA2F1020902EB4C0C83
:103D900009EB43093CF8026F002D43D004F0070300
:103DA0000127E20871469F400EF110037FB203EB3A
:103DB000C21200236FEA07085A4421E0A80B00242E
:103DC0007C090024C40900245C7201086C74010899
:103DD0007C0500247E0500244F090024D005002422
:103DE000790900248C0000247F2904D83F2C02D8B4
:103DF000107838431070013301320131AB4211D0D9
:103E000006FA03F00004EFD47F29F4D83F2CF2D84F
:103E1000107801330132013108EA0000AB4202F8A8
:103E2000010CEDD1E14504F10104B3D1049B029AE8
:103E300073443F2A9BB228BF3F227F2BABF806205A
:103E400028BF7F23ABF80430019A1378534506D17D
:103E500012F801AF0192BAF1000F7FF475AF9DF82F
:103E60002030002B00F0EC8100220DF1210111F82F
:103E7000010B01320028FAD192B2734844780178DC
:103E800040680294049088B210FB02F2019012B2D2
:103E900022EAE2725210C2F1680292B27F2A28BF6F
:103EA0007F22ABF8042062080692C2F1330292B27C
:103EB0003F2A28BF3F220792ABF80620002B6DD087
:103EC00008AA0392203BDAB25E2A67D8BBF804C086
:103ED0000CEB0102802A61DCBBF80690029809EB2A
:103EE0000002402A5ADC002843D0029A6FF0004EAC
:103EF0004D4602FB03F39E441344049AA2F1020AC6
:103F000002EB4E0E0AEB430A3EF8026F69B305F06E
:103F100007030127EA0860469F400CF110037FB2B7
:103F200003EBC21200236FEA07085A440BE07F2814
:103F300004D83F2D02D814783C4314700133013269
:103F400001308B4211D006FA03F42404EFD47F2809
:103F5000F4D83F2DF2D8147801330132013008EA49
:103F600004048B4202F8014CEDD1F24505F1010544
:103F7000CAD1019BB9F13F0F039A634428BF4FF0A8
:103F80003F099BB2ABF806907F2B28BF7F23ABF88D
:103F9000043012F8013F0392002B93D1059B002BB4
:103FA00000F08B8000230DF12D0212F8010B01337C
:103FB0000028FAD1079AABF80620019A13FB02F306
:103FC0001BB223EAE3735B10C3F129039BB27F2B7F
:103FD00028BF7F23ABF804300BAB0393059B203B3A
:103FE000DAB25E2A69D8BBF804C00CEB0102802A61
:103FF00063DCBBF80690029809EB0002402A5CDC07
:10400000002845D0029A6FF0004E4D4602FB03F3A4
:104010009E441344049AA2F1020A02EB4E0E0AEBEC
:10402000430A3EF8026F79B305F007030127EA0857
:1040300060469F400CF110037FB203EBC2120023D5
:104040006FEA07085A440DE0840000247F2804D852
:104050003F2D02D814783C431470013301320130F3
:10406000994211D006FA03F42404EFD47F28F4D83F
:104070003F2DF2D8147801330132013008EA0404EC
:10408000994202F8014CEDD1F24505F10105C8D184
:10409000019BB9F13F0F039A634428BF4FF03F09DA
:1040A0009BB2ABF806907F2B28BF7F23ABF8043080
:1040B00012F8013F0392002B91D19DF83830002B6C
:1040C00000F0B18000220DF1390010F8014B0132EF
:1040D000002CFAD101980EAC12FB00F20698039462
:1040E00012B2C0F1120022EAE27280B252103F28EE
:1040F000C2F1290228BF3F2092B2ABF806007F2A06
:1041000028BF7F22ABF80420203BDAB25E2A68D8B1
:10411000BBF804C00CEB0102802A62DCBBF80690FD
:10412000029809EB0002402A5BDC002843D0029A87
:104130006FF0004E4D4602FB03F39E441344049A75
:10414000A2F1020A02EB4E0E0AEB430A3EF8026F9E
:1041500069B305F007030127EA0860469F400CF1A8
:1041600010037FB203EBC21200236FEA07085A4420
:104170000BE07F2804D83F2D02D814783C431470FC
:10418000013301320130994211D006FA03F42404BC
:10419000EFD47F28F4D83F2DF2D8147801330132C0
:1041A000013008EA0404994202F8014CEDD1D645E9
:1041B00005F10105CAD1019BB9F13F0F039803EB4B
:1041C0000C0228BF4FF03F0910F8013F92B2ABF844
:1041D000069003907F2A28BF7F22ABF80420002B93
:1041E00092D111B0BDEC028BBDE8F08F154A0221CF
:1041F00008A812F091FCC8E44FF0000A24E6BBF8CE
:1042000004C039E4DFED107A04210E4A0BA828EE31
:10421000278AFDEEC87A17EE903A12F07DFC9DF8E1
:104220002C300593C3E4069B2922C3F11203ABF89B
:1042300004209BB23F2B28BF3F23ABF80630D0E7CA
:104240001A461AE66C7401080000C84284B070B5C2
:1042500084B004464FF47A7609AD85E80E009DF8E7
:10426000383029460025037103F02AF8AE2303AA4B
:1042700000968DF80D302046217902238DF80C50E0
:1042800003F0B4F8D52303AA0096204621798DF8CF
:104290000D3002238DF80C5003F0A8F8802303AAF8
:1042A0000096204621798DF80D3002238DF80C50B0
:1042B00003F09CF8A82303AA0096204621798DF8E4
:1042C0000D3002238DF80C5003F090F83F2303AA21
:1042D0000096204621798DF80D3002238DF80C5080
:1042E00003F084F8DA2303AA0096204621798DF89A
:1042F0000D3002238DF80C5003F078F8122303AA36
:104300000096204621798DF80D3002238DF80C504F
:1043100003F06CF8D32303AA0096204621798DF888
:104320000D3002238DF80C5003F060F803AA0096BC
:104330000223217920468DF80C508DF80D5003F0A2
:1043400055F8402303AA0096204621798DF80D30B8
:1043500002238DF80C5003F049F8A62303AA009617
:10436000204621798DF80D3002238DF80C5003F092
:104370003DF8A42303AA0096204621798DF80D303C
:1043800002238DF80C5003F031F88D2303AA009618
:10439000204621798DF80D3002238DF80C5003F062
:1043A00025F8142303AA0096204621798DF80D30B4
:1043B00002238DF80C5003F019F8A12303AA0096EC
:1043C000204621798DF80D3002238DF80C5003F032
:1043D0000DF8C82303AA0096204621798DF80D30E8
:1043E00002238DF80C5003F001F8812303AA0096F4
:1043F000204621798DF80D3002238DF80C5002F003
:10440000F5FF8F2303AA0096204621798DF80D3001
:1044100002238DF80C5002F0E9FFD92303AA00967D
:10442000204621798DF80D3002238DF80C5002F0D2
:10443000DDFF252303AA0096204621798DF80D3053
:1044400002238DF80C5002F0D1FFDB2303AA009663
:10445000204621798DF80D3002238DF80C5002F0A2
:10446000C5FF342303AA0096204621798DF80D302C
:1044700002238DF80C5002F0B9FFAF21009603AA79
:1044800002238DF80D10204621798DF80C5002F092
:10449000ADFF04B0BDE8704004B070472DE9F04FA7
:1044A0000021E9B0C848002500F084FD2021C6485D
:1044B000012700F0A7FC0321C3480DF5967900F011
:1044C00085FC10213C224EAB4E958DF83C118DF8A9
:1044D0004021BE4C93E80700CDE94B548DE807001E
:1044E0004D97BB48BB4C99E80E00FFF7AFFEBA4BA7
:1044F000BA4A294604F1780613A81360B84A136033
:10450000702212F007FA7022294604F1080012F016
:1045100001FA702213A9304612F0EEF929462068FC
:10452000656003F0B3FE03685A1EBA4200F22382AC
:10453000011D702230460DF1BC0AC4F8E83012F0BB
:10454000DBF93020A74F11F078FD05460121CB465D
:10455000FCF770FF2B1D302004953B602B46A24DCD
:1045600024337B6011F069FD06460121FCF780FFD2
:10457000331D9E48BB6006F1240305962B6011F0A5
:104580005CFD00210690FCF79FFF069AF420984BF3
:10459000111D07921344F96096490B6011F04DFD0F
:1045A00000210690FCF7BAFF069B7C20191D39619B
:1045B00003F1DC01696003F1E801A96011F03DFD40
:1045C00080469FED8D0A0121FDF762F808F1040194
:1045D0002820796108F15801E96008F16401296136
:1045E00008F17001696111F028FD01210646FDF70F
:1045F000BDF88249069B8E604B60049B079A4B6115
:10460000331D1C360598BB61AE6100267C4B7D4D89
:104610000A600493C1E9030806F10F004FF0000897
:10462000C0B200F0B9FB03461420ADF8BC3011F065
:1046300004FD07465A462F9B0BF1120B6249009668
:10464000FCF77CFD3346704A07212F6013A8C7F89A
:104650001080013612F060FA182011F0EEFC6B4B5E
:104660000746103040F8103C13A955F8043BB860D9
:10467000FB605A4B1B687B6012F082FA049B042E8D
:1046800043F8047B0493C7D1494661483346324618
:1046900001F084FF5E484546DFF89091DFF8908195
:1046A000DFF890B102F088F905F116000026C0B2DB
:1046B00000F072FB03461C20ADF8BC3011F0BDFCCD
:1046C00007462A462F99FCF71FFD2B46514A092120
:1046D000C8F8007013A8BE61013512F01DFA1C2045
:1046E00011F0ABFC58F8043B0746103013A9FB60EF
:1046F0003A4BC7F800B01B68C7E9013012F040FA26
:10470000042D49F8047BCFD1B146DFF82C81424F0C
:10471000424E1020002511F090FC58F8043F04EBA5
:10472000C90109F101095A68B03147F8040FC0E91D
:104730000223C0E9006506C918469D60FCF744FDE8
:10474000B9F1070FE5D1DFF8F480354FDFF8F090CD
:104750001020002611F071FC58F8043F04EBC5014D
:1047600001355A68783147F8040BC0E90223C0E9E3
:10477000009606C918469E60FCF712FD072DE7D18A
:1047800001248DF825509FED270A02258DF824403D
:1047900023460999224624480327009601F06CFE1F
:1047A00008228DF828508DF8292009228DF82C50E8
:1047B0008DF831508DF830708DF82D209FED190A4D
:1047C0000C9B0A993EE000BF680A00240108010919
:1047D00074050024AC0A0024980400241C0A002458
:1047E00068050024200A00244C0A00242C00040040
:1047F00028000400C40900240AD7233C7C090024B3
:104800002C050024980B00247074010860740108C2
:10481000800A002478740108A8040024C8740108E0
:10482000C8040024000000005005002408050024EE
:104830003C0A002454740108480A00241C0A00247D
:10484000D47401080B9A7F4801F058FD0C238DF8B1
:1048500034408DF835300B238DF838508DF83930D1
:104860000A238DF83C508DF83D300D990E9A0F9B20
:104870007548009601F0B0FDB6EE081ADFED730A38
:104880009FED730A704801F0CFFD4FF0FF33309673
:1048900031938DF8C8602F9704F0C8FD6D4A00FA77
:1048A00004F351466C48A2FB0323DFF8C091119634
:1048B0009B098DF8C8401296319304F039FA674984
:1048C00011AA654804F0AEFA634804F099FA644905
:1048D000644800F077FADFF898814FF0B00AFEF7ED
:1048E000B7FEFEF70BFF4FF47A76002599F80C100F
:1048F000022310AA5C48009610278DF84050A8F1BA
:1049000080048DF841A002F071FD99F80C1002238B
:1049100010AA554800968DF840508DF8415002F08D
:1049200065FD99F80C10022310AA4F4800968DF8E7
:1049300040508DF8417002F059FD40264FF47A77CF
:1049400014F8015F022399F80C100DEB060246489B
:1049500000978DF840608DF8415002F047FDA0456A
:10496000EBD10AF1010A08F180085FFA8AFABAF17C
:10497000B80FB8D1AFE7702231464CA8C4F8E87040
:104980004B9711F0B9FFD4E9000103F07FFC054615
:1049900004F04EFD00284FD10DF1BC0A291D7022F4
:1049A0005046554611F0A8FF002350461A4604E031
:1049B000013201230835072A11D02F78D10016F8CB
:1049C00032C0BC45F4D1214401320835CF6F55F8CF
:1049D000041C8F4218BF43F00103072AEDD10021C8
:1049E00009E0D56F0131C26B0830954218BF43F022
:1049F0000103072910D0CA1DD0ED0E7A04EBC202C4
:104A000092ED1E7AB4EE677AF1EE10FAE9D0013138
:104A1000012308300729EED1002B3FF492ADD4E9F1
:104A2000000101F1740203F047FB4B467422D4E904
:104A3000000103F03DFB84E57421284604F094FA5C
:104A4000AAE700BF94090024C80900240AD7233C20
:104A50003333333FD34D621064050024452E0008E4
:104A6000E12E0008680A0024740500246C05002467
:104A7000FB05002410B5104A00241049104811F01D
:104A8000D5FA0D4A0F49104811F0D0FA0A4A0F49D9
:104A90000F4811F0CBFA0F480F4B074A0F498460BB
:104AA000036011F0C3FA0E48034A04600D49BDE8E3
:104AB000104011F0BBBA00BF00000024292E0008EE
:104AC000C8090024252E000894090024212E00087E
:104AD000500500246C0500248C7401083D2E00084C
:104AE000640500241D2E0008704700BF0B4A1368A0
:104AF00010B51C18B4F1707F0CD21460084A13442E
:104B000031B128B102460021184611F003FF0346D7
:104B1000184610BD0023184610BD00BFA80A002487
:104B2000000000C001292DE9F04380461C462DED10
:104B3000068B83B06ED000290F4691464FEA4202A1
:104B4000B8BF4F1C0E4601927F1003EBC7053946D4
:104B5000FFF7E8FF019A08EB89002B463946FFF77B
:104B6000E1FF012E51DD07EE906A0026B8EEE7AABC
:104B700007EE906A9FED327AD4ED009A0136B8EED6
:104B8000E70ADFED307A94ED019A60EE277A20EEA5
:104B9000070AC7EE8AAA80EE0A0A11F097FBB0EE68
:104BA000408AB0EE6A0A11F063FAF0EE408AB0EE85
:104BB0006A0A11F065FC28EE000A68EE288AD5ED35
:104BC000010AD5ED006A20EEC07A68EEA07AA8EE60
:104BD000A67AE0EE267AF4EE477AF1EE10FA22D6C3
:104BE00039EE876A083579EE276AB74239EEC77A17
:104BF00004F1080479EE677A04ED026A44ED016A73
:104C000005ED027A45ED017AB2DC03B0BDEC068B0E
:104C1000BDE8F083026800232260636003B0BDEC4E
:104C2000068BBDE8F083F0EE401AB0EE681AB0EEE5
:104C3000660AFBF779FDB0EE407AF0EE607ACFE7D6
:104C400000000080DB0FC9C0DFED1F7A38B580EEB1
:104C5000270A05460C462DED028B11F0A9FBB2EE9A
:104C6000088AFAEE027AF0EE408AF0EE480AE0EEA8
:104C7000087AB0EE670A11F009FDB9EE047AF8FE81
:104C8000407AFDEEE76A30EE670A104BA8EE887AAC
:104C90000F4916EE902A002AB8BF5242C7EE087A92
:104CA000A3FB0203DB0803EB4303A2EB8303BDEC8E
:104CB000028B51F823302B60F8FE677AFDEEE77A1D
:104CC000C4ED007A38BD00BF13D08241ABAAAAAAB6
:104CD000040000240160C260B3FBF2F101FB123258
:104CE0000023C0E901237047D0E90232134419447C
:104CF000B1FBF2F302FB1311416070474368C268D5
:104D0000591A01EB4201B1FBF2F302FB131181606E
:104D1000704700BF83680268C16802EB83020133F9
:104D20008B4292ED000A836001D3002383607047B9
:104D3000D0E90023C16802EB830201338B4282ED8C
:104D4000000A436001D300234360704770B50E4DE5
:104D500000240E4E0E4A28460E492C606C612C62CF
:104D6000EC6311F063F97022214606F10800C6E9F0
:104D7000005411F0CFFD7022214606F1780011F0A9
:104D8000C9FDC6F8E84070BD680A0024AC0A0024DA
:104D900000000024E94A0008202882B009D8084B06
:104DA00003EB400213F81030507843EA002002B0C1
:104DB000704701230C2043EA002002B0704700BF77
:104DC00008750108143001F065BA00BF38B500F16C
:104DD000140504462DED028B284601F017FA2846EB
:104DE00001F010FA2846B0EE408A01F0F9F9D0ED52
:104DF000007AF8EE677A88EE277ABDEC028B84EDB4
:104E00000E7A38BD38B500F1140504462DED028B3D
:104E1000284601F0E9F9284601F0F4F92846B0EEF9
:104E2000408A01F0DDF9D0ED007AF8EE677A88EE7D
:104E3000277ABDEC028B84ED0E7A38BD10B540F2B6
:104E400003338EB000244FF60B7240F20341ADF8ED
:104E5000083009A80123ADF81020ADF8242022461F
:104E6000ADF80C100094029907940C94CDE9054418
:104E7000CDE90A4401F0BEFE04A8012322460399AD
:104E8000009401F0B7FE09A801F09AFF10B90120C3
:104E90000EB010BD04A801F093FFA0420CBF022089
:104EA00020460EB010BD00BF2DE9F04103239AB09B
:104EB000012700240646CDE914373B4BCDE91043CA
:104EC00040F20453CDE91647ADF84830FFF7B6FF7E
:104ED000B842054625D0022845D040F60132334B72
:104EE0000DF12C081894ADF82C200B981997CDF8DB
:104EF0004A3000F0E3F810A906F13C0003F080FC12
:104F0000302003224FF07E5341460D930E93CDE99E
:104F10000B02F26B06F1140001F02AF91AB0BDE899
:104F2000F0811023214A06A906908DF828300DF152
:104F30002C081F4BCDF84A2007930294CDE91804A2
:104F4000CDE9080402A802F0BBF90823029A03A9DC
:104F50004046ADF80C508DF80E40049505930B9427
:104F600000F0ECF8C7E700200121104B0DF12C08F0
:104F70003A460094CDF84A304FF60B730C94ADF8D6
:104F80002C302346CDE9180140F601314046ADF8FA
:104F900018100699CDE90D4401F02CFE214640463B
:104FA00001F01AFFA7E700BF04020404040604038B
:104FB0000704010B2DE9F04704462DED028B82B06A
:104FC00000294DD0012140F2011200230091ADF8DB
:104FD00004208DF80630364A0127364B04F10409C7
:104FE000354904F12908626040F20272A36040F67C
:104FF0000663E16004F1250AA4F82520A4F829300D
:10500000278284F8277084F82B7004F011FA054683
:1050100004F072F86946064650BB4DB304F1300007
:105020008DF8067004F08AF9072D3CD104F11405BF
:105030002046FFF739FF284601F0E4F82846B0EE95
:10504000408A01F0CDF8D0ED007AF8EE677A88EE6C
:10505000277A84ED0E7A02B0BDEC028BBDE8F087B2
:1050600040F2011300918DF80610ADF80430B2E75C
:1050700004F1300004F062F9072D11D049462046B2
:1050800002F04AFF0EB9002DD0D1504601F0AEFE1D
:10509000404601F0ABFE04F1120000F079F9C5E7DB
:1050A000002EF2D1C2E74946204602F035FFBDE7A7
:1050B0000508050905070506050A060610B584B0AA
:1050C00003460124ADF8040003A8ADF80C30ADF898
:1050D0000E4001F08BFE214603A801F071FF20462F
:1050E00004F008F8002103A801F06AFF204604F04C
:1050F00001F8214603A801F063FF04B010BD00BF12
:1051000010B5C2F3002384B00C46017C8DF80D204D
:1051100043EA4402FA2402238DF80C2003AA0094E7
:1051200002F064F918B10124204604B010BD044611
:105130000A2003F0DFFF204604B010BD034670B51F
:1051400043F8042B044684B007C983E80700A37919
:1051500083B91A210B461E22FA2523742046ADF886
:105160000C20022303AA009502F040F928B1012087
:1051700004B070BD1B210B46EDE70A2003F0BAFF17
:105180004FF4B85200950223ADF80C20204603AA34
:10519000217C02F02BF90028E9D10A2003F0AAFFB4
:1051A00041F2027200950223ADF80C20204603AABA
:1051B000217C02F01BF90028D9D10A2003F09AFFC4
:1051C000042200950223ADF80C20204603AA217C7E
:1051D00002F00CF90028CAD10A2003F08BFF062246
:1051E00000950223ADF80C20204603AA217C02F092
:1051F000FDF80028BBD10A2003F07CFF41F2082211
:1052000000950223ADF80C20204603AA217C02F071
:10521000EDF80028ABD10A20064603F06BFF00959D
:10522000022303AA217C2046ADF80C6002F0DEF8D0
:1052300000289CD1304603F05DFF009522790C23B5
:105240002046002A8DF80C3003AA4FF0020314BF49
:10525000622142218DF80D10217C02F0C7F8002850
:1052600085D1304603F046FF2279D4E902310B4361
:10527000DBB20AB943F0400362790AB143F020037C
:105280000E22FA258DF80D302046009502238DF868
:105290000C2003AA217C02F0A9F800287FF467AF54
:1052A0000A2003F027FF102200950223ADF80C20FE
:1052B000204603AA217C02F099F800287FF457AF1A
:1052C0000A2003F017FF122100950223ADF80C10FD
:1052D00003AA217C204602F089F800287FF447AF1A
:1052E0000A2003F007FF012209212046FFF708FFEB
:1052F000003818BF01203BE7F0B5102387B0234CDE
:10530000012200250126002702A920460195CDE9AA
:1053100002234FF48052CDE904670AF041FE642075
:1053200004F02CFB02A94FF480522046CDE904671B
:1053300002261027CDE902670AF032FE032210236D
:1053400002A92046CDE9022300230422CDE904234B
:105350004FF480520AF024FE40F23223042202A9C4
:10536000019310232046CDE90223019A01230592DF
:105370004FF4805204930AF013FE40F606012046D3
:105380000AF02EFE284607B0F0BD00BFB00B002487
:105390001C4B00221C494FF0400C30B5054689B02B
:1053A0000220596007219A601A620124DA620A22F7
:1053B0004FF4006EDC6006922022CDE9000104204B
:1053C0000821CDE9020103201021CDE904010820C4
:1053D0006946C3E904024FF4C072181DC3E906C24E
:1053E0004FF48052C3E909E20AF0B0FD38B928460B
:1053F000FFF782FF003818BF012009B030BD2046FA
:1054000009B030BDAC0B002440410052614A00217C
:10541000D0B513688EB00A91002B40F0B9805E4B76
:1054200001214FF683700C2411600221D3F8D4209F
:105430000026032742F48052C3F8D420D3F8D420A6
:1054400002F480520092009AD3F8E02042F0100259
:10545000C3F8E020D3F8E02002F010020192019A94
:10546000D3F8E02042F04002C3F8E020D3F8E02077
:1054700002F040020292029AD3F8E02042F00802C1
:10548000C3F8E020D3F8E02002F008020392039A68
:10549000D3F8E02042F48072C3F8E020D3F8E02093
:1054A00002F480720492049AD3F8E02042F0800261
:1054B000C3F8E020D3F8E02002F080020592059ABC
:1054C000D3F8E02042F02002C3F8E020D3F8E02037
:1054D00002F020020692069AD3F8E02042F004027D
:1054E000C3F8E020D3F8E0300C9403F004030793F2
:1054F0000323079A0B93CDE9080108A9274806F072
:10550000C3F848F23712022308A925480C94CDE9C4
:105510000823CDE90A6706F0B7F84CF203720223BC
:1055200008A920480C94CDE90823CDE90A6706F0C4
:10553000ABF840F2FF62022308A91B480C94CDE9A6
:105540000823CDE90A6706F09FF84FF60C72022394
:1055500008A916480C94CDE90823CDE90A6706F09E
:1055600093F84FF63F02022308A911480C94CDE9A5
:105570000823CDE90A6706F087F82022022308A94C
:105580000A480C94CDE90A67CDE9082306F07CF8B7
:105590000EB0D0BDA80B00240044025800100258E1
:1055A00000180258000C025800200258001C025833
:1055B000001402582DE9F04FDFF8108406460D461E
:1055C000144608F118002DED028B89B000AF03F0EE
:1055D0000FFAD8F8183073B3D8F81C30D8F8049004
:1055E000002B43690BBF4FF0080A4FF0100A4FF031
:1055F000020B4FF0040BB9F1000F2AD0A200EA46CB
:10560000012B02F1070222F00702ADEB020D684602
:10561000ADEB020D694600F03F81022B00F0D68011
:10562000002B6FD02246C847D5462437BD46BDEC77
:10563000028BBDE8F08FD8F81C30002BF5D0D8F8DD
:1056400004904FF0080A4FF0020B4369B9F1000FC4
:10565000D4D1FB61D8F80030BB61002BE5D0D54830
:1056600003F038FA6B46BBF1020F786108EE103A8E
:10567000FB6900F083816A465146A2EBC40295465D
:105680006200EA46B2FBFBF2AAEBC40085460AEBD5
:105690008200EE46F861ADEB010DF8690EEB820C6D
:1056A000C7F810C0EC46ADEB010D00EB8201CCF861
:1056B0000400CCF8081001EB82013869E946CCF807
:1056C0000C1000EB8201CCF800A001EB8202C9E9CA
:1056D00000E0C9E90212012B00F06483022B00F004
:1056E0006C82002B00F08081620849466046BB69ED
:1056F000984718EE103A24379D46BD46BDEC028B04
:10570000BDE8F08F002C8DD01A46D8ED0C6A9FEDC5
:10571000B27A8446331D36F922E00CF1080C07EE0C
:1057200090EA33F922E00232F8EEE77A944267EE2B
:10573000877A67EEA67A4CED027A07EE90EAF8EEE9
:10574000E77A67EE877A67EEA67A4CED017AE2D8BF
:10575000F9612246C847984ED8ED0D6A0020F969D4
:105760002B1D9FED9E7A9FED9E6ADFED9E5A22E0F3
:10577000F4EEC67AF1EE10FAC0F2C88447F6FE7273
:10578000D1ED017A45F8202066EEA77AF4EEC77ACB
:10579000F1EE10FA40F2F080F4EEC67AF1EE10FA73
:1057A000C0F2D58447F6FE7243F82020023008315B
:1057B00084427FF639AFD1ED007A66EEA77AF4EE37
:1057C000C77AF1EE10FAD3D83246D9E7002C3FF46D
:1057D00029AFD8ED0C6A84469FED787A0022331DFC
:1057E0008E4656F822100CF1080C07EE901A53F86A
:1057F00022100232F8EEE77A944267EE877A67EE7B
:10580000A67A4CED027A07EE901AF8EEE77A67EE88
:10581000877A67EEA67A4CED017AE2D87146224685
:10582000C7F81CE0C847664ED8ED0D6A0020F9693C
:105830002B1D9FED6A7A9FED6A6ADFF894C120E024
:10584000F4EEC67AF1EE10FAC0F279843246D1ED68
:10585000017A45F8202066EEA77AF4EEC77AF1EED9
:1058600010FA40F28780F4EEC67AF1EE10FAC0F238
:105870005E84324643F820200230083184427FF6AD
:10588000D3AED1ED007A66EEA77AF4EEC77AF1EEE8
:1058900010FAD5D86246DAE7002C3FF4C3AED8ED53
:1058A0000C6A86469FED477A4FF0000C331D56F880
:1058B0002C200EF1080E82F40002A2F5000207EE81
:1058C000902A53F82C200CF1020CF8EEE77A82F4BF
:1058D00000026445A2F5000267EE877A67EEA67AB9
:1058E0004EED027A07EE902AF8EEE77A67EE877AB5
:1058F00067EEA67A4EED017AD9D8F9612246C847FB
:10590000314ED8ED0D6A0020F9692B1D9FED337AD9
:105910009FED336ADFF8BCC01FE0F4EEC67AF1EE0B
:1059200010FAC0F2FC833246D1ED017A45F820200E
:1059300066EEA77AF4EEC77AF1EE10FA18D9F4EE13
:10594000C67AF1EE10FAC0F2DA83324643F820202C
:105950000230083184427FF667AED1ED007A66EE00
:10596000A77AF4EEC77AF1EE10FAD6D86246DBE7F2
:105970006246EBE762467DE7324615E7A100D64670
:105980006208073121F00701ADEB010DEA46ADEBEE
:10599000010D6946ADEB0E0D0AEB8200EC46ADEB56
:1059A0000E0D01EB8202F861E946CCE900A0C9E9DD
:1059B000001290E6000C00240280FFFF000000307F
:1059C0000082FF7F0000003482FF7F00E40B002490
:1059D000007E00807E0080FF0000003804FF7FBF53
:1059E00004FF7F3F00FEFF46002C00F0C982BBF1A0
:1059F000020FD8F8242000F0FA827969C7F80490E1
:105A000002EB810E5FED0C5A8A00DCF808100EF1F3
:105A100004007A611A46DCF80C303B61331DD7F87C
:105A200010903D61FD69C7E902CB8C46834636F98B
:105A30002210D8ED0C7A06EE101A33F9221006EE79
:105A4000901A3EF92210B8EEC66A07EE101AF8EE68
:105A5000E66A3BF92210B8EEC77A26EE256A66EEB2
:105A6000A56A27EE257A26EE276A66EEA76A27EE54
:105A7000277A07EE901A51080232F8EEE77A0AEB1D
:105A80008100944280ED006A05EB810067EEA57A03
:105A9000C0ED006A0CEB810009EB810180ED007A1A
:105AA00098ED0C7A67EE877AC1ED007ABFD8D7F807
:105AB00004903D69D7E902CB60466208BB6949465C
:105AC0009847D8F82C307A69D8ED0D6A1A441FED42
:105AD0003D7A1FED3D6A2B1D904602F1040A5FEDF1
