:020000040800F2
:1000000000000220950C0008910C0008B99D000822
:10001000910C0008910C0008910C000800000000F1
:10002000000000000000000000000000910C00082B
:10003000910C000800000000910C00083D9D000894
:10004000910C0008910C0008910C0008910C00081C
:10005000910C0008910C0008910C0008910C00080C
:10006000910C0008910C0008910C00089194000874
:100070009D94000845780008A9940008B5940008EC
:100080002D41010811800008910C0008910C000816
:10009000910C0008910C0008910C0008910C0008CC
:1000A000910C0008910C0008910C0008910C0008BC
:1000B000A99A0008B59A0008C19A0008458000086E
:1000C000910C000851800008910C0008353101089E
:1000D00041310108613F01088D3F0108C13F01081E
:1000E000910C0008910C000800000000910C000821
:1000F000910C0008910C0008910C0008910C00086C
:10010000910C0008910C0008CD9A00084D310108AF
:10011000F53F010829400108910C0008910C0008E6
:10012000910C0008910C000871310108A5310108FB
:1001300061410108910C0008910C0008910C000825
:1001400000000000000000000000000000000000AF
:10015000910C0008910C0008910C00085D4001080A
:100160005D800008910C00084D9D0008719D0008FD
:10017000910C0008959D0008910C0008910C000856
:10018000910C0008910C000891400108C54001083D
:100190005931010865310108910C0008910C0008E3
:1001A000910C0008910C0008910C0008910C0008BB
:1001B000B1910008910C0008910C0008910C000806
:1001C000910C0008910C0008910C0008910C00089B
:1001D000910C0008910C0008910C0008910C00088B
:1001E000910C0008910C0008910C0008910C00087B
:1001F000910C0008910C0008910C0008910C00086B
:10020000910C0008910C0008910C0008910C00085A
:10021000910C0008910C0008910C0008910C00084A
:10022000910C0008910C0008910C000800000000DF
:10023000910C0008910C000800000000910C0008CF
:10024000910C0008910C0008910C0008910C00081A
:10025000910C0008910C0008910C0008910C00080A
:10026000910C0008910C0008910C0008910C0008FA
:10027000910C0008910C0008F940010800000000F2
:10028000910C0008910C0008910C0008000000007F
:0802900000000000910C0008C1
:1002A00010B5054C237833B9044B13B10448AFF3B0
:1002B00000800123237010BD000F00240000000007
:1002C000DCB7010808B5034B1BB103490348AFF382
:1002D000008008BD00000000040F0024DCB7010806
:1002E00001F0FF01102A2BDB10F0070F08D010F8E7
:1002F000013B013A8B422DD010F0070F42B3F6D1EB
:10030000F0B441EA012141EA014122F007047FF003
:1003100000070023F0E80256083C85EA010586EA5A
:10032000010685FA47F5A3FA87F586FA47F6A5FA96
:1003300087F68EB9EED1F0BC01F0FF0102F00702A2
:1003400032B110F8013B013A83EA010313B1F8D14D
:100350000020704701387047002D06BF354603382E
:10036000073815F0010F07D1013015F4807F02BF67
:10037000013015F4C03F0130F0BC0138704700BFB8
:1003800081F0004102E000BF83F0004330B54FEA46
:1003900041044FEA430594EA050F08BF90EA020FB3
:1003A0001FBF54EA000C55EA020C7FEA645C7FEA46
:1003B000655C00F0E2804FEA5454D4EB5555B8BF69
:1003C0006D420CDD2C4480EA020281EA030382EADA
:1003D000000083EA010180EA020281EA0303362D6C
:1003E00088BF30BD11F0004F4FEA01314FF4801C3F
:1003F0004CEA113102D0404261EB410113F0004F51
:100400004FEA03334CEA133302D0524263EB430307
:1004100094EA050F00F0A780A4F10104D5F1200EA5
:100420000DDB02FA0EFC22FA05F2801841F1000100
:1004300003FA0EF2801843FA05F359410EE0A5F1D4
:1004400020050EF1200E012A03FA0EFC28BF4CF005
:10045000020C43FA05F3C01851EBE37101F00045BB
:1004600007D54FF0000EDCF1000C7EEB00006EEBC8
:100470000101B1F5801F1BD3B1F5001F0CD3490852
:100480005FEA30004FEA3C0C04F101044FEA4452A9
:1004900012F5800F80F09A80BCF1004F08BF5FEA30
:1004A000500C50F1000041EB045141EA050130BD10
:1004B0005FEA4C0C404141EB0101013C28BFB1F522
:1004C000801FE9D291F0000F04BF01460020B1FA6D
:1004D00081F308BF2033A3F10B03B3F120020CDA40
:1004E0000C3208DD02F1140CC2F10C0201FA0CF01E
:1004F00021FA02F10CE002F11402D8BFC2F1200C83
:1005000001FA02F120FA0CFCDCBF41EA0C01904038
:10051000E41AA2BF01EB0451294330BD6FEA040481
:100520001F3C1CDA0C340EDC04F11404C4F120026C
:1005300020FA04F001FA02F340EA030021FA04F37E
:1005400045EA030130BDC4F10C04C4F1200220FAD5
:1005500002F001FA04F340EA0300294630BD21FA13
:1005600004F0294630BD94F0000F83F4801306BFD9
:1005700081F480110134013D4EE77FEA645C18BFCD
:100580007FEA655C29D094EA050F08BF90EA020F64
:1005900005D054EA000C04BF1946104630BD91EA5C
:1005A000030F1EBF0021002030BD5FEA545C05D15F
:1005B0004000494128BF41F0004130BD14F580049E
:1005C0003CBF01F5801130BD01F0004545F0FE4112
:1005D00041F470014FF0000030BD7FEA645C1ABF47
:1005E000194610467FEA655C1CBF0B46024650EA7E
:1005F000013406BF52EA033591EA030F41F40021AA
:1006000030BD00BF90F0000F04BF0021704730B52F
:100610004FF4806404F132044FF000054FF0000104
:1006200050E700BF90F0000F04BF0021704730B5C5
:100630004FF4806404F1320410F0004548BF40429A
:100640004FF000013EE700BF42004FEAE2014FEAEF
:1006500031014FEA02701FBF12F07F4393F07F4FCA
:1006600081F06051704732F07F4208BF704793F0CD
:100670007F4F04BF41F40021704730B54FF46074E0
:1006800001F0004521F000411CE700BF50EA0102E3
:1006900008BF704730B54FF000050AE050EA01028C
:1006A00008BF704730B511F0004502D5404261EBFC
:1006B00041014FF4806404F132045FEA915C3FF43D
:1006C000D8AE4FF003025FEADC0C18BF03325FEADA
:1006D000DC0C18BF033202EBDC02C2F1200300FA8B
:1006E00003FC20FA02F001FA03FE40EA0E0021FAB0
:1006F00002F11444BDE600BF53B94AB9002908BF4E
:1007000000281CBF4FF0FF314FF0FF3000F0BEBAA1
:10071000ADF1080C6DE904CE00F050F9DDF804E00D
:10072000DDE9022304B0704760EE016A20EEA16AA1
:1007300020EE215A76EEC67A61EE205AF4EE677A00
:10074000F1EE10FA35EE257A04D6B0EE670AF0EE37
:10075000470A7047B4EE477AF1EE10FAF5D7DFEDAD
:10076000934AB0EEC04AB4EE644AF1EE10FACCBF40
:1007700001230023B0EEE04A00F39D80B4EE644A0A
:10078000F1EE10FA00F397800023DFED884AB0EE17
:10079000C14AB4EE644AF1EE10FAF0EEE13A48DCF8
:1007A000F4EE643AF1EE10FA43DC9BBBF0EEE66A3D
:1007B000F4EE646AF1EE10FA14DCB0EEC66AB4EE40
:1007C000646AF1EE10FA0DDCB0EEC55AB4EE645A6C
:1007D000F1EE10FA06DCF0EEE55AF4EE645AF1EEB2
:1007E00010FAB2DDB4EE400AF1EE10FA80F1D380D7
:1007F000F4EE600AF1EE10FA80F1C380B4EE411A13
:10080000F1EE10FA80F1B380F4EE611AF1EE10FA15
:1008100080F1A38061EEE07A60EE810AE0EE017A79
:10082000E0EE210A9FED627A67EE877A20EE877A02
:100830008BE7DFED5E7A9FED5D7AB4EE674AF1EE0D
:1008400010FACCBF0123002307EE903A11EE103AC4
:10085000F8EEE77A002BF0EEE77AF4EE473AB8BF0D
:10086000F1EE677AF1EE10FACCBF01230023B0EE6F
:10087000671A07EE903A11EE903AF8EEE77A002BFD
:10088000F0EEE77AB4EE400AB8BFF1EE677AF1EE27
:1008900010FAF0EE671A4CD6F4EE600AF1EE10FA98
:1008A000B8D710EE903A9FED437ADFED437A002BF4
:1008B00067FE270AAEE704EE903ADFED3C3A10EE11
:1008C000103AF8EEE44A002BF0EEE44AB4EE634A44
:1008D000B8BFF1EE644AF1EE10FACCBF0123002359
:1008E000B0EE640A04EE903A10EE903AF8EEE44A64
:1008F000002BF0EEE44AB4EE411AB8BFF1EE644AC0
:10090000F1EE10FAF0EE640A1DD6F4EE611AF1EE83
:1009100010FA78BF0123FFF538AF11EE903A9FED42
:10092000254ADFED254A002B4FF0010364FE241A0F
:100930002BE710EE103A9FED1F7ADFED1F7A002BA8
:1009400027FE270AA8E711EE103A9FED1A4ADFEDBD
:100950001A4A002B24FE241AD7E711EE903A9FED95
:10096000157ADFED157A002B67FE271A52E711EE94
:10097000103A9FED107ADFED107A002B27FE271A30
:1009800042E710EE903A9FED0B7ADFED0B7A002BE9
:1009900067FE270A32E710EE103A9FED067ADFED88
:1009A000067A002B27FE270A22E700BFFFFF7F7F82
:1009B0000000807F00000000000000802DE9F0476B
:1009C000089D04468E46002B4DD18A42944669D933
:1009D000B2FA82F252B101FA02F3C2F1200120FA16
:1009E00001F10CFA02FC41EA030E94404FEA1C4864
:1009F000210CBEFBF8F61FFA8CF708FB16E341EA60
:100A0000034306FB07F199420AD91CEB030306F1E5
:100A1000FF3080F01F81994240F21C81023E634406
:100A20005B1AA4B2B3FBF8F008FB103344EA0344AA
:100A300000FB07F7A7420AD91CEB040400F1FF33BF
:100A400080F00A81A74240F207816444023840EAFC
:100A50000640E41B00261DB1D4400023C5E9004335
:100A60003146BDE8F0878B4209D9002D00F0EF80B8
:100A70000026C5E9000130463146BDE8F087B3FAEB
:100A800083F6002E4AD18B4202D3824200F2F980D3
:100A9000841A61EB030301209E46002DE0D0C5E9D6
:100AA000004EDDE702B9FFDEB2FA82F2002A40F022
:100AB0009280A1EB0C014FEA1C471FFA8CFE012625
:100AC000200CB1FBF7F307FB131140EA01410EFBC9
:100AD00003F0884208D91CEB010103F1FF3802D270
:100AE000884200F2CB804346091AA4B2B1FBF7F06A
:100AF00007FB101144EA01440EFB00FEA64508D98D
:100B00001CEB040400F1FF3102D2A64500F2BB80C9
:100B10000846A4EB0E0440EA03409CE7C6F1200718
:100B2000B34022FA07FC4CEA030C20FA07F401FA5E
:100B300006F31C43F9404FEA1C4900FA06F3B1FBE7
:100B4000F9F8200C1FFA8CFE09FB181140EA01414C
:100B500008FB0EF0884202FA06F20BD91CEB0101E9
:100B600008F1FF3A80F08880884240F28580A8F141
:100B700002086144091AA4B2B1FBF9F009FB101193
:100B800044EA014100FB0EFE8E4508D91CEB010131
:100B900000F1FF346CD28E456AD90238614440EAD4
:100BA0000840A0FB0294A1EB0E01A142C846A64654
:100BB00056D353D05DB1B3EB080261EB0E0101FADD
:100BC00007F722FA06F3F1401F43C5E9007100263A
:100BD0003146BDE8F087C2F12003D8400CFA02FC90
:100BE00021FA03F3914001434FEA1C471FFA8CFEA0
:100BF000B3FBF7F007FB10360B0C43EA064300FB90
:100C00000EF69E4204FA02F408D91CEB030300F12D
:100C1000FF382FD29E422DD9023863449B1B89B2E4
:100C2000B3FBF7F607FB163341EA034106FB0EF36D
:100C30008B4208D91CEB010106F1FF3816D28B421A
:100C400014D9023E6144C91A46EA004638E72E46E6
:100C5000284605E70646E3E61846F8E64B45A9D2DE
:100C6000B9EB020864EB0C0E0138A3E74646EAE74D
:100C7000204694E74046D1E7D0467BE7023B6144FB
:100C800032E7304609E76444023842E7704700BF64
:100C9000FEE700BF0B480C4A904203D0121A0B49E2
:100CA00016F0FEFC0A480B4A904203D0121A0021AB
:100CB00016F004FD09F0DAFA16F0BEFC04F0D8FADA
:100CC000FEE700BF00000024000F002414B8010854
:100CD000000F00247C450024704700BF704700BF10
:100CE000704700BF704700BF90F825207AB190F898
:100CF000203003B98361437923B190F82110A1B961
:100D00000021C16180F8213080F8202070474379AC
:100D100023B190F821100029F2D00B4690F8201052
:100D20000029EFD00021C161ECE70B4680F82020BC
:100D300080F82130704700BFF2EE007A90ED177A0C
:100D40009FED0C0AA7EE270A10B50446143084ED77
:100D5000070A16F039F8D4ED147A94ED1B7AF8EE00
:100D6000677A84ED0C0A67EE877AFCEEE77AC4EDC9
:100D7000157A10BDCDCCCC3D10B5447982B01CB3F2
:100D8000F0EE007AD0ED086A9FED107AE6EE877AF1
:100D9000FDEEE77ACDED017AB3B14FEA830E8469B7
:100DA000002308E0D0F814C00433013C043142F8B9
:100DB00004CB734507D0002CF4DCD1F800C0019CB3
:100DC000C0F814C0F0E7846102B010BD000000421A
:100DD0004179002945D0002B43D041694FF0000CE8
:100DE0002DE9F0411F4E446A96FBF4F62BE080F8A3
:100DF00020502146254684611B4C4FF0000890EDA1
:100E00000B6A04EB850ED2ED007ADFED186A4746D7
:100E10009EED007AC46927EE067A0134E7EE267A61
:100E2000022CC2ED007AC46103DD0135C0F81C80DC
:100E30008561B5F52C7FC8BF80F820700CF1010CDE
:100E4000043263450AD0013100240125B142CEDAD3
:100E500090F82040002CF1D08569CDE74161BDE8D4
:100E6000F081704700F22B00100000249A99193E7F
:100E70002DE9F041984643790BB9BDE8F081D0EDFA
:100E8000087A00F1140790ED0A7A0E46F8EE677AB8
:100E90003846144667EE877AFCEEE77A17EE901A2A
:100EA00004F0F6FDB8F1000FE7D00025B6EC010A1A
:100EB000384604F011FE384604F000FED4ED007A06
:100EC000013530EE270AA845A4EC010AEED1BDE8B1
:100ED000F08100BFF8B5044690F825001F4630B1F8
:100EE000A269184802EB030C844520D9F8BD61794A
:100EF0000029FBD0A5694BF680318D42F6DDE6690D
:100F000073B1616902EB830001EB8601D2ED007AD7
:100F1000B1EC017A77EE877AE2EC017A8242F5D180
:100F2000BB1993FBF5F205FB1233E361F8BD606971
:100F300000EB82009A0016F0B3FBA2693A44A2616A
:100F4000F8BD00BF00F22B0038B51D46437923B32E
:100F5000037F0446006A0BBBA369AA0003EB800071
:100F600016F09EFB236A1D44B5F5004F256214DB85
:100F700004F580230121227F83F82410AAB9A169F6
:100F80004FF480326069114416F08AFB237F4FF4DE
:100F9000804283F001032262237738BD6369AA008F
:100FA00003EB800016F07CFBDCE761694FF48032D4
:100FB000A069114416F074FBE8E700BF2DE9F04783
:100FC000994643798BB3B9F1000F2ED0074600F153
:100FD00040068846144600F1140A002550460135A3
:100FE00015F038FDB6EE007AD7ED157A304630EEC2
:100FF000070AF8EE677A67EE807AFCEEE77A17EE7A
:10100000901A04F04FFDB8EC010A304604F064FD7C
:10101000304604F053FDD4ED007A97ED1F7AA945D0
:10102000E0EE077AE4EC017AD8D1BDE8F08700BFA2
:101030000369BBB110B5044680682179183006F009
:10104000A5FB23699FED087AD3ED017A70EE677AEC
:10105000F0EEE77AF4EEC77AF1EE10FAA8BF83ED6E
:10106000010A10BD704700BF0AD7A33B83696BB16B
:1010700010B50446043006F023F9A37BA269A3F15E
:10108000FF03B3FA83F35B09537010BD704700BFD1
:101090004179002972D0002B70D02DE9F04106462D
:1010A000174602EB83082DED048BF1EE007A96EDE6
:1010B0002C7ADFED356A34469FED346A0025E7EE81
:1010C000276A9FED334AD6ED347A96ED065AB7EC8F
:1010D000017A25EE275AD6ED054AB7EEC77A96ED86
:1010E000309A66EE866AB7EEC55AC6EE848A9FEDE0
:1010F000243BA5EE037B78EEA48AF4EEC68AB7EE15
:10110000C78BF1EE10FAA8BF78EEC68AC6ED058A45
:1011100007EE905AB0EE680A0C340135B8EEE77A63
:10112000DFED1C7AA7EE270A16F07EF8F7EE007ABC
:10113000B6EE006A94ED047AD4ED056A0C2DE0EE6B
:10114000097A84ED048A67EE867AA7EE887AC4ED80
:10115000067AA7EEE67AB0EE478A84ED057AD7D113
:1011600086ED067AB84517ED017A37EE087A07ED75
:10117000017A9AD1BDEC048BBDE8F081704700BFC5
:10118000AE47E17A14AEEF3FCDCCCC3DDB0FC9408A
:1011900000803B47920A063DF8B500F5802696F898
:1011A00024302DED028B002B52D043790746002BC3
:1011B0004ED00022037F86F82420002B4BD000F174
:1011C000240301224FF40041806904F07FFB0025D5
:1011D000DFED288A2C46D7ED0A6A97ED097AB0EE42
:1011E000E68AF0EEC77AF4EEC87AF1EE10FA58BF4C
:1011F000B0EE678AB5EE408AF1EE10FA10D086EEB6
:10120000880AC7EE087A20EE000AA7EEA70AB5EE14
:10121000400AF1EE10FA27D4F1EEC07A28EE278AC0
:10122000B4EEE88A44F201030837F1EE10FA02DD69
:10123000F0EE488A254601349C42CCD14BF68033EF
:1012400003FB05F307EE903AFAEEE87AC6ED0A7A68
:10125000BDEC028BF8BD00F1240301224FF40041E4
:10126000406904F033FBB2E716F00EF9F0EE407A75
:10127000D4E700BF0000000070B5054600F114047B
:1012800000F194062DED028BD4ED077A204695ED02
:101290003A7A2034F8EE677AD5F8F83004ED037A1C
:1012A00044F8083C67EE877AFCEEE77A17EE901A6E
:1012B00004F0EEFBB442E7D1D5ED2E7A05F1A4009F
:1012C00095ED3A8AB8EEE77A95ED426ADFED218A2C
:1012D00027EE087A26EE286AFCEEC77A85ED2D6A9D
:1012E00017EE901A04F0D4FBD5ED2E7A2046F8EED6
:1012F000E77A67EE887AFCEEE77A17EE901A04F048
:10130000C7FBD5ED387A95ED3A8A05F1CC00B8EEF9
:10131000E77AD5ED426A66EEA86A27EE087AC5ED4F
:10132000376AFCEEC77A17EE901A04F0B1FBD5EDE0
:10133000387A05F1BC00F8EEE77A67EE887ABDEC02
:10134000028BFCEEE77ABDE8704017EE901A04F0CD
:101350009FBB00BF6666663F30B585B0094B02256E
:101360000446ADF80C10043003999FED070A40F8CD
:10137000043C002302610122009505F051FF204644
:1013800005B030BD648101080000000010B582B0D6
:10139000044609491046ADF804300222049B21603E
:1013A0000199E36005F0BAFF044B20461A68511C0E
:1013B0006260196002B010BD708101081C0F00242A
:1013C0008B684A781BB15B690270436070474FF0CD
:1013D000FF33027043607047CB684A681BB1DB681B
:1013E0000260436070474FF0FF3302604360704714
:1013F00082B0032A02AB03E9060005D81346054A6A
:1014000052F82330836098619DF80030437002B039
:10141000704700BF2816002482B0032A02AB03E9FC
:10142000060005D813460F4A52F82330C3601861EE
:10143000DDED007AF5EEC07AF1EE10FA0BD4B7EEDE
:10144000007AF4EE477AF1EE10FA77FE277AC0EDD3
:10145000017A02B07047DFED047AC0ED017A02B084
:10146000704700BF281800240000000000000000A2
:101470009FED177BB7EEE06A4FF07E5370B5B4EE88
:10148000C76B84B00446C0ED040A4361F1EE10FA64
:10149000836101DD104B0361DFED107A6E4601219F
:1014A00020EE270AFCEEC07A17EE905AA80004F04E
:1014B000F1F92B4601462A46304604F0DFFAE56191
:1014C00096E80F0084E80F00204604B070BD00BF0E
:1014D000AE47E17A14AEEF3FA4707D3F00803B47FA
:1014E0003BB32DE9F041044698460F4615460026C9
:1014F0002DED028B2046013604F0E0FA94ED047ADB
:10150000F7EC017AB0EE408A2046E7EE007AB0EEC2
:10151000670A04F0E1FAD5ED007A94ED067AB04559
:10152000E7EE087AE5EC017AE4D1BDEC028BBDE888
:10153000F08170472DE9F84F984643792DED048BE3
:10154000002B58D004468946154600F1140600F1D8
:1015500094073046203643462A464946FFF7C0FFE7
:10156000BE42F6D1B8F1000F45D0002604F1A40B1D
:1015700004F1BC0A04F1CC09384695ED009A04F058
:101580009DFAD4ED2D8A5846B0EE408AF1EE688A75
:1015900004F094FAD4ED2D7A38460136A9EE280AE3
:1015A000A8EE270A04F098FAB0EE490A584604F06B
:1015B00093FA504604F082FA94ED379A4846F0EEDA
:1015C000408AB1EE499A04F079FAD4ED377A504660
:1015D000A9EE080AA8EEA70A04F07EFAB0EE480ABF
:1015E000484604F079FAB5EC010AB04570EE288A55
:1015F00045ED018AC0D1BDEC048BBDE8F88F00BF7A
:101600009FED1F7BB7EEE06AF0B5B4EEC76B85B017
:101610000546F1EE10FA2DDCC0ED080ADFED1A7A6E
:101620006E46012120EE270AFCEEC07A17EE904AA2
:10163000A700384604F02EF92346014622463046DC
:1016400004F01CFA96E80F0085E80F0001213846E7
:1016500004F020F9234601462246304604F00EFAF3
:1016600005F1100C96E80F008CE80F0028466C621C
:1016700005B0F0BD054B0362D0E700BFAFF30080BB
:10168000AE47E17A14AEEF3F00803B47A4707D3F48
:1016900038B50A4600250A4B04468580294602745F
:1016A0000360C0E90255074804F0F4F8064A074B06
:1016B000A584A262A580A360C4E90505204638BDC3
:1016C000AC81010800F22B00388001084480010839
:1016D000F0B585B0044600250023114A6E46114836
:1016E0002174012120606362A362E262A5800E483A
:1016F0000E4FC4E9025504F0CDF82B46014645F6DD
:10170000C052304604F0BAF904F1140C96E80F0008
:101710008CE80F002046A580A76005B0F0BD00BF93
:10172000548001087C810108007701006080010875
:1017300038B500250446134B4FF480228580017490
:1017400029460360C0E9025525772430256215F04B
:10175000B5FF04F580230022294683F824504FF476
:1017600000309A6204F096F8034629464FF40030A0
:10177000636104F08FF8044BA0612046A580A3604C
:1017800038BD00BF8C810108688001084FF07E538E
:101790004FF07C52DFED4F0A9FED4F0A70B52DEDF3
:1017A000028BC0F8F4300446C0F8F83000254B4BEB
:1017B0008AB09FED4B8AC0F8E420C0F8E820C0F85A
:1017C000FC30484A484B85800574C0F8EC2080ED19
:1017D000418A80ED428A454EC0E90255C4F80C3179
:1017E0006846434B2360FFF743FEEE4604F1140CBA
:1017F000DFED400A9FED400ABEE80F00ACE80F00A5
:101800009EE80F008CE80F006846FFF731FEEE46B9
:1018100004F1340CDFED390A9FED390ABEE80F0000
:10182000ACE80F009EE80F008CE80F006846FFF759
:101830001FFEEE4604F1540CDFED320A9FED320A32
:10184000BEE80F00ACE80F009EE80F008CE80F0028
:101850006846FFF70DFEEE4604F1740CF0EE480A00
:101860009FED2A0ABEE80F00ACE80F009EE80F00CB
:101870008CE80F006846FFF7C3FEEE4604F1940CB7
:10188000F0EE480A9FED220ABEE80F00ACE80F0018
:10189000BEE80F00ACE80F009EE803008CE80300F0
:1018A0006846FFF7ADFEEC4604F1BC0EBCE80F0045
:1018B000AEE80F00BCE80F00AEE80F009CE80300A4
:1018C0008EE803002046A580A6600AB0BDEC028B1E
:1018D00070BD00BFB6F33D3FCDCCCC3D808001084C
:1018E0003333333F708001088C80010898800108F1
:1018F000CC810108E3A53B3F6132D53D3D0A373F2E
:101900006666E63D986E323F6B9AF73DA167B33C41
:101910006B10E63B2F4B304ADFED307AF0B52DED02
:10192000028B036000252E4B4FF07C560266B0EE12
:10193000408A83650446C36585B02A4BB0EE670ACA
:10194000294A8366C3664FF07E530267274A83673E
:10195000C3670023C0F88020DFED258A254A8580F3
:1019600082620174C0ED098AC0ED077A8661066261
:10197000C362214FC0E90255143015F025FA28EE54
:10198000288A40F20113A6616E4684ED0C0AFCEE33
:10199000C87AA3870121257517EE900AC4ED147A41
:1019A000800003F077FF2B460146226D304604F09D
:1019B00065F804F1400CD4F850E096E80F008CE88C
:1019C0000F002046C4F854E0A580A76005B0BDEC28
:1019D000028BF0BD9C810108A48001080000C84270
:1019E0009A99993ECDCCCC3EB0800108C0800108C8
:1019F00000803B473EC3AE37CC8001080022DFF8B1
:101A000038C00174C26082618280084A084942621B
:101A10000022C0F81CC0C0F820C08160426110B430
:101A2000044C04605DF8044B704700BFD880010887
:101A3000E880010854810108CDCC4C3F4FF0000CE8
:101A4000002300F11C020174C3600346C0F814C0F7
:101A5000C0F818C000F1AC0C30B41B4C04600C3260
:101A60000021624542F80C1C42F8081C42F8041C94
:101A7000F5D1164A4FF0000C1549C0F8AC20C0F85B
:101A8000B0204FF07C52C0F8BC10C0F8C010114913
:101A9000114C124DC0F8CC20C0F8D020C0F8D410A2
:101AA00000F190010E4AC0F8C450C0F8B440A0F84C
:101AB00004C082600C3300228B421A615A619A6121
:101AC000F8D130BC704700BFBC810108CDCCCC3D03
:101AD0003333333F14810108F88001080481010881
:101AE0002481010810B4012400224FF07C510474B9
:101AF000094CC26004606424C26180F82020446202
:101B00008280064C81620463C1625DF8044BC0E9C7
:101B10000522034A82607047DC8101083081010898
:101B200040810108704700BF024BC26843609A6061
:101B3000704700BF880F0024044B1B689A680AB1E5
:101B400000219161C26893619A607047D4100024AB
:101B5000044B1B68DA680AB100211161C268136185
:101B6000DA607047D8100024704700BF61B98168FF
:101B70004B6A1344B3F5FA7FA8BF4FF4FA73012BF5
:101B8000B8BF01234B62704781684B7983F0010332
:101B90004B71EDE78020704749424FF4806210306E
:101BA000C9B215F08BBD00BF51B9002A04DB06D0C5
:101BB000836801225A707047836859707047704774
:101BC00010B480681C68044A0449546008605DF8D9
:101BD000044B1A60704700BFEC100024D41000249E
:101BE000002939D000221D481D4930B41D4C01F197
:101BF000240C2568AA616568AA61A568E468AA61E1
:101C0000A2610468226144682261D0E90240226135
:101C1000026151F8042F002410788C4594605070B4
:101C2000F7D1114901F1300C51F8042B0024106850
:101C30006145D4605060F7D14FF07C520B490C489D
:101C400064244A6080680B4944624A600A480B4930
:101C50004260196030BC7047704700BF28180024EC
:101C6000001600242816002438160024BC0F002477
:101C70004C100024AC0F00249C0F002434100024CE
:101C800021B18268537983F001035371704700BF1B
:101C900038B5044649B9D0E90203D21803D4411E2D
:101CA0009142A8BF1146E16038BD1D46D0E903232B
:101CB000294653F8220003681B6898472968054A9B
:101CC000D4E9030353F820305B68596000212B608E
:101CD000516038BD3410002410B483B0019201BBB0
:101CE000DDED017A8368B8EEE77ADFED136AD3EDB4
:101CF000017AE7EE267AF5EEC07AF1EE10FA0DD40D
:101D0000B7EE007AF4EE477AF1EE10FA77FE277A12
:101D1000C3ED017A03B05DF8044B7047DFED077A3D
:101D2000F6E71C688068064A0649546008601A6035
:101D300003B05DF8044B70470AD7233C0000000055
:101D40001C110024D8100024002900F0BC802DE9CB
:101D5000F04FE3B00E469B46DFF884A14FF0000839
:101D6000594D0DF1080905EBC80408F101085AF8AE
:101D7000041F4846FFF724FB04F1C003B8F1090F24
:101D800099E8030083E80300EDD1DFF858A14FF094
:101D90000008E94608F1090208F101085AF8041B95
:101DA000484605EBC204FFF717FBB8F10C0F04F12E
:101DB000C00299E8030082E80300EBD1434B34A84A
:101DC000434A9B6852685B6AC5F86821C5F874315C
:101DD0000223404AC5F8783133933F4B5268DFF80D
:101DE00008815B684146C5F86C21B822C5F870319E
:101DF00015F056FCD5E9000107F01CF9044608F07F
:101E0000EBF900285AD1211DB82205A815F048FC8D
:101E100005A900200A46034604E001333046083293
:101E2000092B13D092F800C0DC0018F833E0E64527
:101E3000F3D105EB040C576801330832DCF8C440D9
:101E4000BC4218BF40F00100092BEBD100230AE08F
:101E5000D2F8C4400133CA6C0831944218BF40F034
:101E600001000C2B11D003F10902D1ED127A05EB20
:101E7000C20292ED307AB4EE677AF1EE10FAE7D052
:101E80000133304608310C2BEDD128B9134BCBF878
:101E9000003063B0BDE8F08F6968286801F1BC02CA
:101EA00006F0DEFF33ABBC22D5E9000106F0D4FF1B
:101EB0000A4BCBF8003063B0BDE8F08FBC21204660
:101EC00007F026FF9FE77047AC1600244C10002453
:101ED000BC0F0024AC0F00249C0F002434100024FD
:101EE00000160024381600246C1700242DE9F04F4A
:101EF00083B05C1A0C9E002C9DF83490A6EB02086F
:101F0000B8BF6442B8F1000FB8BFC8F100088B42F7
:101F10008CBF4FF0010A4FF0FF3A9642A4EB080C39
:101F200051D84FF0FF357F2B019512D83F2E10D896
:101F3000F50806F0070E012703EBC5150544B9F1B6
:101F4000000F47D007FA0EF795F810E047EA0E07A2
:101F50002F74964201D18B4229D0C8F100077F2906
:101F600014D83F2A12D8D50802F0070B4FF0010E03
:101F700001EBC5150544B9F1000F1BD00EFA0BFE9D
:101F800095F810B04EEA0B0E85F810E0B7EB4C0F49
:101F90004FEA4C0502DAACEB080C5144AC4202DDCE
:101FA000019DA4442A449942D9D19642D7D103B085
:101FB000BDE8F08F0EFA0BFB95F810E02EEA0B0E41
:101FC00085F810E0E2E701257F2B0195C5D83F2E6B
:101FD000AED9C2E707FA0EFE2F7C964227EA0E071B
:101FE0002F74B8D0B9E700BF0B682DE9F04F9C699A
:101FF0008DB0B64B884609909C4240F0538291F8D0
:102000009130022243F0080381F89130D10802F0A8
:102010000700012308EBC1111A448340487C0B2AB6
:1020200043EA00034B74F1D1099BDA680892099BDB
:1020300008999B688B4240F342818A1A5A24D8F847
:1020400000504FF0B40C02EB42000127CDF800C065
:10205000072302EB80020A214046961D0692CDE935
:10206000014732462D6AA847069A07230A21D51D43
:10207000D8F8002040460094CDE90147146A2A466A
:10208000A047D8F80030DA681C6A914B9A4240F0B9
:102090009881762101205A234FF487773246CDE983
:1020A0000130009707234046A047D8F80030DA688F
:1020B0001E6A874B9A4240F0898176215A20012777
:1020C00000242A4607230094CDE901074046B04783
:1020D000D8F80030DA689D697D4B9A4240F05B8108
:1020E0007A4B9D4200F002817623069901224046F8
:1020F000CDE900120A460A21A847069AD8F800300E
:10210000941C7349DA68A4B28A4240F030810B22F1
:102110009B684046A8F804209847844206D3D8F824
:10212000003040469B689847013884B2099BD8F834
:1021300000101A690898674B52F82020A8F806404A
:102140008C6A92689C42644B059240F01D8192F823
:1021500000901D785A785B680A920B93B9F1000FD2
:1021600000F09980A9F12004E3B25E2B00F2AA806E
:10217000D8F80030564ADB68934240F0AF808020A8
:10218000B8F804302B449842C0F29C80D8F8003054
:1021900040469B689847B8F806100A9A07918B1832
:1021A0009842C0F28F80002A00F0D78002FB04F42E
:1021B0000B9B6FF0004CB8F804E0A3F1020BA444B1
:1021C000144403EB4C0C0BEB440B0C463CF8026F35
:1021D0006DB304F007030127E20871469F400EF13A
:1021E00010037FB203EBC21200236FEA070A4244D6
:1021F0000BE07F2904D83F2C02D8107838431070A8
:102200000133013201319D4211D006FA03F000047E
:10221000EFD47F29F4D83F2CF2D810780133013263
:1022200001310AEA00009D4202F8010CEDD1E345BC
:1022300004F10104CAD1D8F800300EEB050424499A
:10224000DA68A4B28A424CD18020844205D3DA688D
:102250001F498A4240F084807F249B684046A8F84A
:1022600004409847079B834207D3D8F80030404684
:102270009B689847013883B20793079BA8F80630FC
:10228000059A13784B4506D112F8019F0592B9F1D2
:10229000000F7FF467AF099B089A9B68013B93424C
:1022A00003D1069B322B40F39680099BDA68089B8A
:1022B000013319460893131D8B42BFF6B8AE0DB01B
:1022C000BDE8F08F4FF00009DAE700BFED1E00080F
:1022D000951B0008712A00086C0B002440469847A3
:1022E0004EE740469047D8F80030AEE76C2776239B
:1022F000069A4FF0010C3F2A0FD874B90699CA0804
:1023000001F00700012103EBC21281404244107C1E
:10231000014311740A2B3FF4F0AE3D4606980A249F
:10232000C20800F0070601217F2C04EBC21201FA5B
:1023300006F105D83F28424402D8167C3143117477
:102340006A0018BF6444974201DD3D4401389C4255
:10235000E6D1069A8242E3D1CFE6B8F804E06AE714
:10236000404690470138D8F8003084B275E74046BF
:1023700090470B28D8F800303FF6C9AEDA685349C9
:102380008A423ED17F22C3E601220599404600924F
:102390000CCBA0477FE7404690474D4AA0F10A0387
:1023A00095427FF4A2AEA0F11407002FB8BF7F4280
:1023B0000A2B00F28580069A4FF0FF3C3F2A9DD9F8
:1023C000A8E740469047A0F10A0163E640469047DF
:1023D000A0F10A0172E6D8F800303C4A9C69DB683B
:1023E000069D934205F10D0549D1394B9C420FD012
:1023F000762301212A464046009501910A21A047F3
:1024000053E7404690470138D8F8003082B27FE663
:1024100000226C2776233F2D4FF0010C0ED86AB9AD
:10242000EA0805F00700012103EBC2128140424493
:10243000107C014311740A2B3FF437AF3E462C4603
:102440000A22E10804F0070E01207F2A02EBC111E5
:1024500000FA0EF007D83F2C414404D891F810E060
:1024600040EA0E000874710018BF62448F4201DD1B
:102470003E44013C9342E4D1A542E2D115E74046F7
:102480009847134AA0F10A039442B2D114380A2B98
:1024900080EAE077A7EBE0770DD83F2D4FF0FF3CC7
:1024A000BED9C8E701230B2240461946CDE90023D7
:1024B0000222A047B8E57F2B94BF00220122AAE7A1
:1024C0007F2B94BF0024012412E700BF951B000856
:1024D000ED1E00082DE9F04F87B09DF84850109C84
:1024E0002E4601959DF844509EB399422ED89946A8
:1024F000A24228D87F29164694BF0023012308E072
:102500009CF810804EEA080E8CF810E00136B442B8
:1025100019D33F2EFAD8002BF8D14FEAD60C06F08B
:10252000070E4FF0010801EBCC1C08FA0EFE8444A4
:10253000002DE5D19CF810B001362BEA0E0AB4420A
:102540008CF810A0E5D201318945D1D207B0BDE8A1
:10255000F08FA3EB0108B8F1000FB8BFC8F1000875
:102560009942C0F04E817F2B4FF0FF3A94BF002676
:1025700001263F2A009694BF002701270397A6B99A
:102580009FB9D60802F0070C012703EBC6160644D4
:10259000002D00F0958107FA0CF796F810C047EA75
:1025A0000C073774002603960096994200F0988134
:1025B000464694468E46BEF17F0F16D8BCF13F0FBB
:1025C00013D84FEADC070CF0070B4FF001090EEBB4
:1025D000C7170744002D00F0398109FA0BF997F865
:1025E00010B049EA0B0987F81090770018BFD6445D
:1025F000B84502DD46440CF1FF3C7345DBD1624532
:10260000D9D100260496A4EB0209B9F1000FB8BF96
:10261000C9F100093F2C94BF00260126A242C9F14E
:1026200000080296C0F02481002E40F05281009EE6
:10263000002E40F04E814FF0FF360096E60803EB87
:10264000C6160644002D00F01F814FF0010C04F067
:1026500007070CFA07F796F810C047EA0C0737741B
:1026600000260296A24200F03E81C44616461F464E
:1026700005927F2F15D83F2E13D84FEAD60E06F0BD
:10268000070B4FF0010A07EBCE1E8644002D00F029
:10269000E6800AFA0BFA9EF810B04AEA0B0A8EF8A6
:1026A00010A0B8EB4C0F4FEA4C0E02DAACEB090C61
:1026B000013FBEF1000F01D0009A1644BB42D8D1B1
:1026C000B442D6D1059AA1EB030EBEF1000FB8BFFC
:1026D000CEF1000E7F2994BF4FF0000A4FF0010A9F
:1026E00099428CBF4FF001094FF0FF39BAF1000F4A
:1026F00013D1029E8EB9E60801EBC6160644002DE2
:1027000000F0D4804FF0010C04F007070CFA07F733
:1027100096F810C047EA0C073774049E26BB77462C
:1027200026467F2B14D83F2E12D84FEAD60C06F03F
:10273000070B4FF0010803EBCC1C8444002D73D031
:1027400008FA0BF89CF810B048EA0B088CF81080D7
:102750005FEA470C18BF4B44E64501DD7744013E74
:102760009942DED1B442DCD1A2EB040EBEF1000FDF
:10277000B8BFCEF1000EA2428CBF4FF001084FF05F
:10278000FF38CEF1000CBAF1000F0ED1039B63B9F4
:10279000D30802F00707012601EBC3130344002D01
:1027A0007DD0BE401F7C3E431E74019B002B7FF4F6
:1027B000CDAE66460B467F2B12D83F2C10D8E708CB
:1027C00004F0070A4FF0010903EBC7170744A5B34C
:1027D00009FA0AF997F810A049EA0A0987F810904F
:1027E000BCEB460F4FEA460702DAA6EB0E06013BAA
:1027F00007B144449942DED1A242DCD107B0BDE822
:10280000F08F3F2A4FF0010A94BF002601267F2B4C
:10281000039694BF002701270097002E7FF4C8AECF
:10282000002F3FF4AEAEC3E608FA0BFB9CF8108015
:1028300028EA0B088CF810808AE709FA0AFA97F858
:10284000109029EA0A0987F81090C9E709FA0BFBEA
:1028500097F8109029EA0B0987F81090C5E60AFA54
:102860000BFB9EF810A02AEA0B0A8EF810A018E7BE
:102870009EBB009E8EBB01260096E60803EBC616A3
:102880000644002D7FF4E1AE012704F0070C029509
:1028900007FA0CFC377C27EA0C073774E2E606FAE5
:1028A00007F71E7C26EA07061E747EE7012704F060
:1028B000070C07FA0CFC377C27EA0C0737742CE767
:1028C00007FA0CFC377C039527EA0C070095377450
:1028D0006BE64FF0FF360096C4E601260096C4E68C
:1028E000012604968FE601260196ECE6024BC268AB
:1028F00043609A60704700BF3C0F00242DE9F04F01
:1029000085B0A1F1200504AC9DF83870009104E970
:102910000C00EBB25E2B00F2948003688046534AB1
:10292000DB689DF8084093429DF8096040F08D8077
:102930008020B8F804302344834200F38280D8F822
:10294000003040469B689847B8F8062093190192DA
:10295000984276DB002E7FD006FB05F56FF0004035
:10296000039B964628442E44B8F804A003EB40008D
:10297000023B03EB460B30F8026FBCB30EF00703CB
:102980004FF0010C4FEADE0251460CFA03FC0AF14B
:1029900010034FFA8CFC03EBC21200236FEA0C0900
:1029A00042440EE07F2907D8BEF13F0F04D81578C6
:1029B0009FB14CEA05051570013301320131A34284
:1029C00014D006FA03F52D04ECD47F29F4D8BEF117
:1029D0003F0FF1D81578002FEBD0013309EA050538
:1029E00001320131A34202F8015CEAD158450EF1EF
:1029F000010EC0D1D8F8003054441C49DA68A4B2A2
:102A00008A4224D18020844204D3DA6817498A425A
:102A100025D17F249B684046A8F804409847019B35
:102A2000834207D3D8F8003040469B689847013866
:102A300083B20193DDE90003A8F8063005B0BDE8D4
:102A4000F08F002005B0BDE8F08F984771E7404651
:102A50009047D8F80030D6E7B8F804A0CAE7404657
:102A600090470138D8F8003084B2D3E7951B0008AE
:102A7000F0B585B00C46097802AD9DF8287085E860
:102A80000C0081B1064602E014F8011F59B130462E
:102A900095E80C000097FFF731FF23789842F3D0B8
:102AA000184605B0F0BD0023184605B0F0BD00BFC4
:102AB0002DE9F04F0746104685B0144610F8012B5B
:102AC0000D469946DDF838C00F999DF8406032B147
:102AD000002210F8013B0132002BFAD192B299F892
:102AE000003013FB02F299F8013012B218B222EA58
:102AF000E272082900F20D81DFE811F05C006F003E
:102B000087009F00B300C700E400EC000900BCF898
:102B10000430BCF800A09A44BCF90630AAEB020AC3
:102B2000002B1FFA8AFA56DBBCF80280F88008EB0B
:102B30006308BA80A7F800A0A8EB50001FFA80F83D
:102B4000A7F802802B68DFF8F0B1DA685A4558D14F
:102B50008020504505D8DA685A4540F0D3804FF0C0
:102B60007F0A9B682846A5F804A09847404506D8E8
:102B70002B6828469B68984701381FFA80F8A5F80B
:102B800006800DF1080899E8030088E80300217821
:102B900019B90BE014F8011F41B1284698E80C0060
:102BA0000096FFF7ABFE23788342F3D0384605B09A
:102BB000BDE8F08FBCF90430BCF800A0002BB8BF12
:102BC00001330AEB630ABCF90630AAEB620A002B58
:102BD0001FFA8AFAA8DA0133A6E72B68BCF900A02D
:102BE000BCF90280DFF850B1BA80DA68A7F800A01B
:102BF0001FFA8AFA5A45A7F80280F8801FFA88F867
:102C0000A6D0284690472B68A3E7BCF90430BCF84F
:102C100000A0002BBCF90280BA80B8BF0133A7F82E
:102C20000280F8801FFA88F80AEB630AAAEB6202B6
:102C30001FFA82FAA7F800A084E7BCF800A0BCF84D
:102C40000430BCF902809A44BA80A7F802801FFAC7
:102C500088F8AAEB0202F8801FFA82FAA7F800A00F
:102C600070E7BCF80280BCF80610BCF900A08844EC
:102C7000BA80A7F800A01FFA8AFAA8EB0303F8802D
:102C80001FFA83F8A7F802805CE7BCF90410BCF8CF
:102C900000A00029B8BF01310AEB610AAAEB620A61
:102CA000BCF802801FFA8AFABCF80610BA80884481
:102CB000F880A7F800A0A8EB03031FFA83F8A7F891
:102CC00002803FE7BCF800A0BCF804108A44AAEBDD
:102CD000020AE5E7BCF90630BCF80280002BBCF91B
:102CE00000A0F880B8BF0133A7F800A0BA801FFA8F
:102CF0008AFA08EB6308A8EB50001FFA80F8A7F8DF
:102D000002801FE72846904701382B681FFA80FA97
:102D100027E72B684FF00008DFF81CB0DA68C246DE
:102D2000A7F800805A45A7F80280A7F80480A7F802
:102D300006803FF416AF64E7951B00082DE9F04FBD
:102D40000A6885B0DFF850A30027DFF850930C46DF
:102D5000DFF84C83D3684B4540F0E681002392684E
:102D60002046A3809047B84200F25981236820464C
:102D70009B689847013880B2DAF800100126256870
:102D8000D346C968303198E80C00C9B2E08000969B
:102D900020466D6AA8472368DA684A4540F0B98141
:102DA0000A229B682046A2809847B84200F23581EB
:102DB000236820469B689847013880B2DAF80030D3
:102DC00022681B69956AE080002B00F04B819E68A9
:102DD000AA4B9D4240F0C88102AD337898E80300C9
:102DE00085E803008BB1194602E016F8011F59B1BE
:102DF0004FF0010C204695E80C00CDF800C0FFF71D
:102E00007DFD33788342F0D02268D3684B4540F093
:102E1000BE816E2392682046A3809047B84200F29C
:102E2000FA80236820469B689847013880B2DBF817
:102E300000300AF1040AE0801B69002B00F0F180E9
:102E4000D3ED017A04219FED8E7A8E4E67EE877A5C
:102E50008D4A3046FDEEE77A17EE903A14F030FDD9
:102E60002268864B956A9D4240F0A48102AD33787A
:102E700098E8030085E803008BB1194602E016F8D4
:102E8000011F59B14FF0010C204695E80C00CDF818
:102E900000C0FFF733FD33788342F0D02268083753
:102EA000BFB2202F7FF456AFD368DFF8F8A14B45AF
:102EB00040F09F80002392682046A3809047B8424C
:102EC00000F2A780236820469B689847013880B2AB
:102ED000DAF8001001262568D3464969303198E8B0
:102EE0000C00C9B2E080009620466D6AA8472368AE
:102EF000DA684A4540F040810A229B682046A28059
:102F00009847B84200F28380236820469B68984720
:102F1000013880B2DAF8003022689B69956AE08057
:102F2000002B00F0EA805E68544B9D4240F0138114
:102F300002AD337898E8030085E803008BB11946A9
:102F400002E016F8011F59B14FF0010C204695E838
:102F50000C00CDF800C0FFF7D1FC33788342F0D0ED
:102F60002268D3684B4540F0EA806E239268204681
:102F7000A3809047874248D3236820469B689847A0
:102F8000013880B2DBF800300AF1040AE0809B6966
:102F9000002B00F08B80597820683C4B3C4A856AB6
:102FA000002914BF93469B46344B9D4240F0FA8063
:102FB00002AD9BF8006098E8030085E8030002E09A
:102FC0001BF8016F5EB14FF0010C3146204695E8C9
:102FD0000C00CDF800C0FFF791FC8642F0D0083716
:102FE000BFB2402F00F086802268D3684B453FF483
:102FF00061AF20469847226800287FF45BAFD36812
:103000004B4540F0EC807F2355E73846BAE7384619
:1030100080E738465CE7384609E73846CEE638466A
:10302000AAE623689D6A154B9D4240F0F08002ADF0
:103030002D26DFF874B098E8030085E8030004E06B
:103040001BF8016F002E3FF429AF4FF0010C314601
:10305000204695E80C00CDF800C0FFF74FFCB042C9
:10306000EED01BE7054B9D427DD102AD5523094EA5
:1030700098E8030085E803001946B9E6712A0008BC
:103080000000C84258100024FC810108F8810108A2
:10309000F4810108E481010828180024951B000828
:1030A000640B002428160024F081010823689D6A1F
:1030B0005F4B9D4240F0B38002AD2D26DFF878B122
:1030C00098E8030085E8030003E01BF8016F002E79
:1030D00085D04FF0010C3146204695E80C00CDF824
:1030E00000C0FFF70BFC8642EFD00837BFB2402F7D
:1030F0007FF47AAF05B0BDE8F08F4D4B9D4229D1EA
:1031000002AD55234B4E98E8030085E803001946AD
:103110001AE7204690470A2823683FF641AEDA684E
:103120004A456ED17F223CE6204698472268002817
:103130007FF414AED3684B455DD17F230FE6204664
:1031400098476E2822683FF610AFD3684B454CD1A4
:103150007F230BE7374E012331462046009398E842
:103160000C00A847FCE6334E01233146204600936D
:1031700098E80C00A84747E6204690470A282368AD
:103180003FF6BAAEDA684A4523D17F22B5E620463B
:1031900098476E2822683FF63CAED3684B4512D163
:1031A0007F2337E6012359462046009398E80C0018
:1031B000A84714E7012331462046009398E80C0005
:1031C000A84722686BE6204698470138226883B2F8
:1031D00020E6204690470138236882B28DE62046DB
:1031E00098470138226883B265E62046984701383F
:1031F000226883B2BAE6204698470138226883B233
:10320000ADE5204690470138236882B2C9E5012325
:1032100009492046009398E80C00A8473EE60123A0
:1032200005492046009398E80C00A847D7E600BF60
:10323000712A0008E4810108F08101082DE9F043BA
:103240000D688BB0714B0C46EE699E4240F0C78012
:1032500091F8002101F19E0301F1FF0042F0800688
:1032600081F8006113F8011F61F07F019842197025
:10327000F8D194F880130F23012041F0010184F864
:10328000801301E096F8806003F0070C012204EB44
:10329000C017134402FA0CF2D8083243302B04EB67
:1032A000C01687F88020EDD194F81F2304F54870EC
:1032B00042F0010284F81F2304F5607201E012F865
:1032C000011D41F0010190421170F8D194F89F2046
:1032D00062F07F0284F89F20D90803F007000122E2
:1032E000013B04EBC11182400F2BC87F42EA000270
:1032F000CA77F1D10F23EE6A61212122ADF8103097
:10330000ADF81230424BADF814109E42ADF81620C5
:1033100057D140496522002301E011F8012F013304
:10332000002AFAD1DFF8F480DFF8F49098F8002052
:1033300098F8017012FB03F3ADF81E707F101BB2FA
:10334000C7F11F0723EAE373BFB25E10ADF81C306C
:10335000EB68C6F13F06ADF81A704B45B6B2ADF852
:10336000186049D18020B04203D8EB684B4547D163
:103370007F26AB682046A6809847B8421AD908AE87
:10338000522598E80300E780234F86E8030002E017
:1033900017F8015F5DB14FF0010C2946204696E811
:1033A0000C00CDF800C0FFF7A9FA8542F0D00BB0B1
:1033B000BDE8F083236820469B689847013887B2B0
:1033C000DDE704A8012200232146009006A8CDE9EC
:1033D0000132124B104AB0470BB0BDE8F083012315
:1033E00000210F222046CDE90131302170230091C8
:1033F0001146B04725687DE7204698472568B2E723
:10340000204698470138256886B2B2E7D5240008DF
:10341000B12A00080182010800820108540B00242F
:10342000951B00082DE9F0430D688BB0714B0C46DD
:10343000EE699E4240F0C68091F8002101F19E03A2
:1034400001F1FF0642F0040081F8000113F8011FAA
:1034500041F004019E421970F8D194F880230A23A8
:10346000012142F0200284F8802301E090F88000DE
:1034700003F00707012204EBC1161344BA40D90830
:103480000243352B04EBC11086F88020EED194F86E
:103490001F1304F2813204F5487041F0200184F8D2
:1034A0001F1312F8011D41F0200190421170F8D154
:1034B00094F89F2042F0040284F89F20D90803F07A
:1034C00007000122013B04EBC11182400A2BC87F97
:1034D00042EA0002CA77F1D10A22EE6A0F21612383
:1034E000ADF812202B22ADF81010ADF81620424A8C
:1034F000ADF81430964257D14049002201E011F84E
:10350000013F0132002BFAD1DFF8F880DFF8F890A4
:1035100098F8003098F8017013FB02F2EB68ADF8F0
:103520001E707F1012B24B45C7F11F0722EAE272EC
:10353000BFB24FEA6206ADF81C20ADF81A70C6F1B2
:103540003F06B6B2ADF8186049D18020B04203D82A
:10355000EB684B4547D17F26AB682046A68098474D
:10356000B8421AD908AE532598E80300E780244FE3
:1035700086E8030002E017F8015F5DB14FF0010C2F
:103580002946204696E80C00CDF800C0FFF7B6F9B2
:103590008542F0D00BB0BDE8F083236820469B68DD
:1035A0009847013887B2DDE704A8012200232146AD
:1035B000009006A8CDE90132124B114AB0470BB07A
:1035C000BDE8F0830022012335212046CDE90132F8
:1035D000009170230A220F21B04725687CE720461E
:1035E00098472568B2E7204698470138256886B293
:1035F000B2E700BFD5240008B12A000809820108FB
:10360000088201085C0B0024951B00082DE9F04F8F
:1036100007468BB002230868BA680D46C46A56682C
:10362000DFF87082ADF810303246ADF812307C23EE
:103630004445ADF814304FF01403ADF8163040F0A7
:10364000FF8012F8013B33B1002312F8011B013354
:103650000029FAD19BB2DFF838A2C2689AF80010AC
:103660009AF801B011FB03F3DFF82C92ADF81EB00D
:103670004FEA6B0B1BB24A45CBF10C0B23EAE37309
:103680001FFA8BFB4FEA6304ADF81C30ADF81AB09B
:10369000C4F14004A4B2ADF8184040F0DF808023AC
:1036A000A34204D8C3684B4540F0DD807F24836883
:1036B0002846AC809847584540F2A38008ACA5F84E
:1036C00006B09AE8030084E80300317819B90EE0E7
:1036D00016F8011F59B14FF0010C284694E80C0070
:1036E000CDF800C0FFF70AF933788342F0D029689B
:1036F000634B8C699C4240F0998095F88F3105F5B9
:10370000C77043F0100385F88F3105F20F1313F8DB
:10371000012F42F0100298421A70F8D1BB68594F3D
:103720005A78594BCC6A002A08BF1F46152200233D
:103730004445ADF812204FF07F02ADF81030ADF8DF
:1037400014204FF02A02ADF8162062D13A4612F842
:10375000016B12F8010B01330028FAD1DFF82CA11C
:10376000CA689AF800009AF8018010FB03F3DFF8AA
:103770002891ADF81E804FEA68081BB24A45C8F18F
:103780002A0823EAE3731FFA88F84FEA6304ADF8C6
:103790001C30ADF81A80C4F13F04A4B2ADF8184053
:1037A00058D18020A04203D8CB684B4561D17F24FB
:1037B0008B682846AC80984740451AD908ACA5F8D4
:1037C00006809AE8030084E803001EB90EE017F8AB
:1037D000016F5EB14FF0010C3146284694E80C00B1
:1037E000CDF800C0FFF78AF88642F0D00BB0BDE8F4
:1037F000F08F2B6828469B68984701381FFA80F89D
:10380000DCE72B6828469B68984701381FFA80FB45
:1038100054E70193012004AB3A46029029460093F5
:1038200006A81A4BA0470BB0BDE8F08F1422012365
:1038300000212846CDE900237F23A04729686DE7B2
:1038400000230120CDE9013004AB06A80093104B02
:10385000A0474CE7284690472968A3E728469047A9
:10386000034628681CE728469847013884B2286830
:103870001DE7284698470138296884B298E700BFB9
:10388000ED1E000810820108148201085C0B002460
:103890006C0B0024B12A0008951B00082DE9F04F9D
:1038A00007468BB002230868BA680D46C46A96685A
:1038B000DFF89482ADF810303246ADF812307C2338
:1038C0004445ADF814304FF01403ADF8163040F015
:1038D000F18012F8013B33B1002312F8011B0133D0
:1038E0000029FAD19BB2DFF858B2C2689BF80010E9
:1038F0009BF8014011FB03F3DFF85092ADF81E4036
:1039000064101BB24A45C4F10C0423EAE373A4B269
:103910004FEA630AADF81C30ADF81A40CAF1400A0C
:103920001FFA8AFAADF818A040F0E98080235345C9
:1039300005D8C3684B4540F0EE804FF07F0A83689E
:103940002846A5F804A09847A04240F2AC80EC803D
:1039500008AC9BE8030084E80300317819B90EE055
:1039600016F8011F59B14FF0010C284694E80C00DD
:10397000CDF800C0FEF7C2FF33788342F0D02A684A
:103980006B4B94699C4240F0A48095F88F2105F21E
:103990000F1305F5C77142F0100285F88F2113F857
:1039A000012F42F010028B421A70F8D1BB6805213A
:1039B0009FED607AD3ED017A5F4E67EE877A5F4ABA
:1039C0003046FDEEE77A17EE903A13F079FF1522B4
:1039D00028680023C46AADF812207F224445ADF860
:1039E0001030ADF814204FF02A02ADF8162079D12E
:1039F0003478002C00F08D80721C12F8011B01330A
:103A00000029FAD19BB2DFF83C81C26898F80040E7
:103A100098F8017014FB03F4DFF83091ADF81E70D4
:103A20007F1024B24A45C7F12A0724EAE474BFB2E2
:103A3000ADF81C404FEA6404ADF81A70C4F13F04BD
:103A4000A4B2ADF818405FD18023A34203D8C36865
:103A50004B4567D17F2483682846AC809847B8429D
:103A60001AD908AC3378EF8098E8030084E80300A3
:103A70007BB1314E02E016F8013F53B101271946E0
:103A8000284694E80C000097FEF738FF337883420D
:103A9000F1D00BB0BDE8F08F2B6828469B689847A3
:103AA000013887B2DDE72B6828469B6898470138C4
:103AB00084B24CE700230120CDE9013004AB06A815
:103AC00000931F4BA0472A68194B94699C423FF40E
:103AD0005CAF1422012300212846CDE900237F2377
:103AE000A04763E70193012004AB324602902946C8
:103AF000009306A8134BA0470BB0BDE8F08F2846F3
:103B000090470346286812E72846904703462868EE
:103B10009BE7234677E72846984701381FFA80FA43
:103B200028680CE728469847013884B2286892E74D
:103B3000ED1E00080000C842500F00241882010842
:103B40006C0B00245C0B0024B12A0008951B0008B4
:103B50002DE9F04F02238BB007460868DFF8208379
:103B60000D46C46AADF81030ADF812307C234445E0
:103B7000ADF814304FF01403ADF8163040F08481E6
:103B8000B6496522002301E011F8012F0133002A14
:103B9000FAD1DFF8E892C26899F8001099F801604C
:103BA00011FB03F3DFF8DCA2ADF81E6076101BB248
:103BB0005245C6F10C0623EAE373B6B24FEA63043A
:103BC000ADF81C30ADF81A60C4F14004A4B2ADF8F1
:103BD000184040F087818023A34204D8C36853452E
:103BE00040F08D817F2483682846AC809847B0429E
:103BF00040F21F8108ACEE804D2699E80300DFF803
:103C0000789284E8030002E019F8016F5EB14FF08A
:103C1000010C3146284694E80C00CDF800C0FEF7B0
:103C20006DFEB042F0D02A688D4B94699C4240F002
:103C30003B8195F88F2105F20F1305F5C77142F00E
:103C4000100285F88F2113F8012F42F010029942DB
:103C50001A70F8D1BB680821824C5B6A824A204600
:103C600013F02EFE286815220023C66AADF8122034
:103C7000ADF8162046454FF07F02ADF81030ADF894
:103C8000142040F01A812678002E00F03081621C4A
:103C900012F8011B01330029FAD19BB2DFF8D4914D
:103CA000C26899F8006099F801B016FB03F6DFF8D6
:103CB000D4A1ADF81EB04FEA6B0B36B25245CBF132
:103CC0001F0B26EAE6761FFA8BFBADF81C604FEA65
:103CD0006606ADF81AB0C6F13F06B6B2ADF8186088
:103CE00040F0FB808023B34204D8C368534540F0C2
:103CF0000C817F2683682846AE809847584540F25D
:103D00009080237808ACA5F806B099E8030084E811
:103D100003008BB1534E02E016F8013F63B14FF040
:103D2000010C1946284694E80C00CDF800C0FEF7B7
:103D3000E5FD33788342EFD0BB684C4F5A794C4B4A
:103D40002868002A08BF1F462A22C46A0023ADF84B
:103D500012207F224445ADF81030ADF814204FF00A
:103D60001502ADF816206BD13A4612F8016B12F825
:103D7000011B01330029FAD1DFF8F890C26899F8E5
:103D8000001099F8018011FB03F3DFF8F8A0ADF8FB
:103D90001E804FEA68081BB25245C8F1340823EA76
:103DA000E3731FFA88F84FEA6304ADF81C30ADF8EE
:103DB0001A80C4F13F04A4B2ADF8184040F08880E6
:103DC0008023A34204D8C368534540F092807F24E7
:103DD00083682846AC80984740451AD908ACA5F8B6
:103DE000068099E8030084E803001EB90EE017F886
:103DF000016F5EB14FF0010C3146284694E80C008B
:103E0000CDF800C0FEF77AFD8642F0D00BB0BDE8D9
:103E1000F08F2B6828469B68984701381FFA80F876
:103E2000DCE72B6828469B68984701381FFA80FB1F
:103E300067E72B6828469B689847013886B2D9E621
:103E40000193012004AB3A4602902946009306A84C
:103E5000084BA0470BB0BDE8F08F00BF21820108DE
:103E6000ED1E0008480F00242C8201081082010872
:103E700014820108540B0024208201086C0B0024DA
:103E8000B12A0008951B00080023012206A8CDE9ED
:103E9000013204AB204A0093204BA0472A68204BF4
:103EA00094699C423FF4C5AE1422012300212846A8
:103EB000CDE900237F23A047CCE6019301232246CE
:103EC0002946029304AB06A80093164BB04733E78C
:103ED000284690470346286873E7284690470346DC
:103EE000286800E7284690470346286874E633466A
:103EF000D4E628469847013884B2286868E72846FF
:103F00009847013884B228686DE6284698470138FA
:103F100086B22868EEE600BF208201086C0B002400
:103F2000ED1E0008540B00242DE9F04FA14E0C4665
:103F3000002533682DED028B91B093ED000A06A8A1
:103F400005A901F055FD33689B4A082108A8B0EE89
:103F5000408ACDE90855D3ED007AFDEEE77A17EEF9
:103F6000903A13F0ADFC059BADF81050092B40F2D0
:103F70009B82FFEE007A00230793B4EEE78AF1EE0E
:103F800010FA07DDF7EE007AB4EEE78AF1EE10FAE8
:103F900000F1EB822568894A2B69934240F0A782A1
:103FA0004FF48062002104F1100013F087FBEF69E9
:103FB000834EB74240F07E8294F8623004F1610192
:103FC00043F0080384F8623004F1120313F8012F60
:103FD00042F0080299421A70F8D194F8E23343F0A3
:103FE000200384F8E2330323D90803F007000122F9
:103FF00004EBC1111344824091F862003D2B42EA68
:10400000000281F86220EFD194F8932304F56570E3
:1040100042F0200284F8932304F2E33212F8011DE7
:1040200041F0200190421170F8D1E27C42F0080288
:10403000E274D90803F007000122013B04EBC1112F
:104040008240032BC87C42EA0002CA74F1D1EF69B6
:10405000B74240F03F8294F88C2004F1640304F1ED
:104060008B0142F0080284F88C2013F8012F42F0F3
:10407000080299421A70F8D194F80C24032342F0F4
:10408000200284F80C24D90803F00700012204EB75
:10409000C1111344824091F88C003D2B42EA00028A
:1040A00081F88C20EFD194F8E52304F2E63042F059
:1040B000200284F8E52304F20D4212F8011D41F0BC
:1040C000200182421170F8D194F8652042F0080274
:1040D00084F86520D90803F007000122013B04EBB6
:1040E000C1118240032B91F8650042EA000281F879
:1040F0006520EFD15523D5F82C80324FADF828300C
:104100000323069EB845ADF82A304FF02703324608
:10411000ADF82C304FF02603ADF82E3040F01A8267
:1041200012F8013B33B1002312F8011B01330029BF
:10413000FAD19BB2DFF890B0EA689BF80010DFF884
:104140008C8011FB03F342451BB223EAE3734FEA71
:10415000630AADF834309BF80130CAF1680A4FEABF
:104160006309ADF836301FFA8AFAC9F11609ADF8BD
:1041700030A01FFA89F9ADF8329040F01382802008
:10418000504505D8EB68434540F010824FF07F0A58
:10419000AB682046A4F804A09847484540F27C81CB
:1041A0000EADA4F806909BE8030085E80300317883
:1041B00089B91CE048100024FC810108991B000803
:1041C000D5240008B12A00085C0B0024951B0008C8
:1041D00016F8011F59B14FF0010C204695E80C006C
:1041E000CDF800C0FEF78AFB33788342F0D0552328
:1041F0002068C56AADF828302923BD42ADF82A30C1
:104200004FF02703ADF82C304FF01403ADF82E30EB
:1042100040F094819DF8103043B100230DF111025C
:1042200012F8011B01330029FAD19BB2B24EC268C9
:104230003178DFF8CC8211FB03F342451BB223EA4D
:10424000E3734FEA6305ADF834307378C5F1680560
:104250004FEA6309ADF83630ADB2C9F13309ADF8B4
:1042600030501FFA89F9ADF8329040F08C818023EC
:10427000AB4204D8C368434540F09F817F258368E3
:104280002046A5809847484540F2FE800EADA4F830
:10429000069096E8030085E803009DF8101081B1B0
:1042A00004AE02E016F8011F59B14FF0010C204690
:1042B00095E80C00CDF800C0FEF720FB3378834270
:1042C000F0D003232068C56AADF828302923BD4209
:1042D000ADF82A304FF04D03ADF82C304FF01403F9
:1042E000ADF82E3040F00E819DF81C3043B1002314
:1042F0000DF11D0212F8011B01330029FAD19BB206
:104300007D4EC2683178DFF8F88111FB03F3424536
:104310001BB223EAE3734FEA6305ADF834307378D8
:10432000C5F129054FEA6309ADF83630ADB2C9F1E0
:104330003309ADF830501FFA89F9ADF8329040F0EA
:104340002C818023AB4204D8C368434540F03B81B5
:104350007F2583682046A5809847484540F28C8099
:104360000EADA4F8069096E8030085E803009DF8DA
:104370001C1081B107AE02E016F8011F59B14FF0D1
:10438000010C204695E80C00CDF800C0FEF7B6FA07
:1043900033788342F0D003232068C56AADF8283013
:1043A0000823BD42ADF82A304FF04D03ADF82C3054
:1043B0004FF01403ADF82E3040F0B0809DF820305F
:1043C00043B100230DF1210212F8011B0133002932
:1043D000FAD19BB2484EC2683178DFF8248111FBD4
:1043E00003F342451BB223EAE3734FEA6305ADF8DA
:1043F00034307378C5F129054FEA6307ADF83630DC
:10440000ADB2C7F11207ADF83050BFB2ADF832709F
:1044100040F0BE808023AB4204D8C368434540F0DF
:10442000D8807F2583682046A5809847B8421CD94C
:104430000EADE78096E8030085E803009DF82010A4
:1044400071B108AE02E016F8011F49B101272046FC
:1044500095E80C000097FEF751FA33788342F2D0CA
:1044600011B0BDEC028BBDE8F08F236820469B683D
:104470009847013887B2DBE7236820469B68984756
:1044800001381FFA80F96BE7236820469B6898473C
:1044900001381FFA80F9F9E6236820469B6898479F
:1044A00001381FFA80F97BE6144A022104A813F0B0
:1044B00007FA5EE50123002503222046CDE90135F8
:1044C0003D23114600935223B8472568EF69B74250
:1044D0003FF4C1AD0123002255212046CDE9013230
:1044E0003D227C2300920322B847256802E6002182
:1044F0002046984725685AE5540B0024FC810108A2
:10450000951B00080023012221460CA8CDE90132A9
:104510000AAB07AA0093324BA8473CE701200023CF
:1045200008AA2146CDE901300AA82D4B00900CA81D
:10453000A84711B0BDEC028BBDE8F08F002301212C
:1045400004AA0CA8CDE901310AAB21460093244B03
:10455000A847B6E6002301202146CDE901300AAB89
:104560000CA800931F4BC04741E6DFED1F7A0421E2
:104570001E4A07A828EE278AFDEEC87A17EE903A61
:1045800013F09EF906E520469047034620686FE643
:1045900020469047034620683DE720469047034663
:1045A0002068CFE6204690472568E9E520469847F1
:1045B000013825681FFA80FAEAE520469847013855
:1045C00085B220685BE620469847013885B22068AE
:1045D000BFE620469847013885B2206822E700BF31
:1045E000540B00245C0B00240000C842FC8101082D
:1045F0002DE9F04F55480421554A4FF07C55554C54
:1046000083B0554B9160146100241060534A996047
:104610001A611860524BDFF8B881DFF8B8C1514E0B
:104620009C60514BDFF8B091C8F80440CCF80440CE
:1046300074609C604D4CDFF8A4E1C8F80840C9F8EC
:1046400008404B4C4B4FDFF898A1CEF80840CCF80F
:104650000840494C494A4A49DFF888B1CEF8005031
:10466000CEF804503D607D60CCF80CE0F760C8F8EF
:1046700000A0C6F800A0BC60B460DFF86CE1414F58
:10468000414E424C364BC9F80050C9F80450C8F8A6
:104690000C903F4DDFF85481CCF800A001922860C7
:1046A000C3F80080D1639164DFF844C1DFF844812E
:1046B0002D4BDFF844A1C3F800804FF00308354BC1
:1046C000C2F840C0D564C5F80880CBF80000CAF82D
:1046D0000000C2E9001BC2E9031EC2E90616C2E9D6
:1046E0000914C2E90C172C4929611521CBF80810CF
:1046F0002A49CBF810102A49CEF800102949CCF8E5
:104700000010294939602949316029492160294926
:10471000916029495161294911622949D162294988
:104720009163294951642949116507211A1FCAF863
:104730001030124BCAF808101946543142F8043FA1
:104740000C338B42FAD103B0BDE8F08F048301082B
:104750001C1100240C110024EC100024DC10002497
:10476000880F0024580F00243C0F002434820108D5
:10477000388201089C0F002440820108E00F0024C9
:104780008C82010800110024940F00244C10002496
:10479000CC0F0024200F0024040000245C1000240F
:1047A000D4820108E4820108F4820108C48201086D
:1047B00014830108488201085482010864820108B8
:1047C000208201086C820108748201087C82010841
:1047D000780F0024680F0024BC0F0024AC0F0024C5
:1047E000B8820108B0100024CC100024988201087F
:1047F000C4100024A882010834100024704700BFB0
:10480000704700BF704700BF704700BF704700BFD0
:104810004020704738B51F4D04461F4802F0F2FC97
:10482000284602F04DFD2B792BB1AB7AA3F17F0323
:10483000B3FA83F35B096279184D13432846637119
:1048400002F060FC2A7B2AB1AA7CA2F17F02B2FAB4
:1048500082F2520921792B790A43227103B16B6AE2
:1048600022680F49134423600B7803F0FF027BB9E1
:1048700023790C48DBB20370227163790A48DBB2FA
:1048800003700123627109482568056022600B707E
:1048900038BD00BF30110024AC1500247C15002465
:1048A00041110024A815002440110024A41500245F
:1048B0002DE9F0470F46124D0168814616463868CB
:1048C000920005F1200812F0EBFE06E021683A683C
:1048D0000C681146A047454510D055F8044F3346A3
:1048E000227C2046002AF1D120683A68D0F800A046
:1048F0002046D9F80010D0474545EED1BDE8F087F5
:104900005815002410B504464FF4826112F067FA7E
:10491000204610BD2DE9F04F4FF0B00885B0054698
:1049200000F1080700F18F0600F28F494FF47A7BFF
:104930004FF0000A297B022303AA3846CDF800B0C5
:10494000A6F180048DF80CA08DF80D8003F022FCF8
:10495000297B022303AA3846CDF800B08DF80CA0BD
:104960008DF80DA003F016FC4FF0100C297B0223EC
:1049700003AA3846CDF800B08DF80CA08DF80DC014
:1049800003F008FC4FF47A7014F801CF4FF0400E9A
:10499000297B0223009003AA38468DF80CE08DF89D
:1049A0000DC003F0F7FBB442ECD104F1800608F12E
:1049B00001084E455FFA88F8B8D105B0BDE8F08F20
:1049C0007F291ED83F2A1CD86BB1D3084FF0010CA9
:1049D00002F0070201EBC3130CFA02F2C1180B7CC0
:1049E0001A430A747047D3084FF0010C02F0070213
:1049F00001EBC3130CFA02FCC1180A7C22EA0C0278
:104A00000A747047000000002DE9F04F2DED068B71
:104A100083B01F4680460D469DF8503016460193E0
:104A2000139B002BC0F22182129A134406EE103A17
:104A3000DDED127AB8EEC66B9FEDCD4BB8EEE77B9D
:104A40009FEDCD5B27EE047B26EE046B87EE050B16
:104A500086EE05ABF7EEC08BB0EE680A12F0DCF91B
:104A600007EE907AB7EECAABF8EE679AB0EE408ADE
:104A7000B0EE680A12F0D8FB60EE698AB0EE4A0A1E
:104A800012F0CAF9B0EE409AB0EE4A0A12F0CCFB2E
:104A900020EE690A29EE888A29EE899A70EE687AF2
:104AA000F0EE006A39EE487A67EEA77AE7EE077A09
:104AB000F4EEE67AF1EE10FA06D5139BB42B40F330
:104AC00096804FF0010901E04FF00009012478427F
:104AD0004FF0000C0095E31B214627462246A340D9
:104AE000B9F1000F6AD1424206EE90CACCF1000142
:104AF00007EE102AB8EEE66A07EE901A06EE900A64
:104B0000B8EEC77A139A66EE084AF8EEE77AB42A46
:104B100027EE284AF8EEE66A67EE885A74EEC43A41
:104B200026EEA85A26EE096A66EE806A67EE897A52
:104B300027EE007AF5EEC03A40F3F280F1EE10FA7B
:104B400000F17F8176EE473A74EEC54AF5EEC03A41
:104B5000F1EE10FAF5EEC04ACCBF01220022F1EED0
:104B600010FA00F1778136EE666A35EEC55AB5EE79
:104B7000C06AF1EE10FAB5EEC05ACCBF0121002197
:104B8000F1EE10FA00F16F8177EEE66AF5EEC06A99
:104B9000F1EE10FACCBF0127002775EEC45AF5EEEE
:104BA000C05AF1EE10FA00F1478177EEC77AF5EEC0
:104BB000C07AF1EE10FACCBF01240024002A40F0A4
:104BC0008A80002964D1BFB9C4BB9C4558DB0CF175
:104BD000010C03EB4C0E1CEB000F0EF1010E00F06C
:104BE000C08098424FDB734600287FF779AF03B04F
:104BF000BDEC068BBDE8F08F009DA6EB0C0E00EB24
:104C0000050ABAF17F0FDFD8BEF13F0FDCD84FEABB
:104C1000DE0B019D0AEBCB1A002D00F0B1800EF0E7
:104C2000070BC2444FF0010E0EFA0BFE9AF810B0BB
:104C30004EEA0B0E8AF810E0002CC6D0009DA6EBC1
:104C40000C0EA5EB000ABAF17F0FBED8BEF13F0FE4
:104C5000BBD84FEADE0B019D0AEBCB1A002D00F00A
:104C6000AE800EF0070BC2444FF0010E9C450EFAC9
:104C70000BFE9AF810B04EEA0B0E8AF810E0A6DA96
:104C800098429E46AFDA01300EEB40030133ABE7AA
:104C9000009D0CEB060E00EB050ABAF17F0F92D8CF
:104CA000BEF13F0F8FD84FEADE0B019D0AEBCB1A06
:104CB000002D73D00EF0070BC2444FF0010E0EFA18
:104CC0000BFE9AF810B04EEA0B0E8AF810E0002F97
:104CD0003FF47AAF90E7009D0CEB060EA5EB000ABF
:104CE000BAF17F0F3FF66DAFBEF13F0F3FF669AFF0
:104CF0004FEADE0B019D0AEBCB1A002D6DD00EF0B2
:104D0000070BC2444FF0010E0EFA0BFE9AF810B0DA
:104D10004EEA0B0E8AF810E000293FF454AFB7E7D3
:104D2000F1EE10FA7ED44A4674EEC54AF5EEC04A5A
:104D3000F1EE10FA6CD4002135EEC55AB5EEC05A2A
:104D4000F1EE10FA5AD4002775EEC45AF5EEC05AA7
:104D5000F1EE10FA3FF529AF0024002A3FF431AFFD
:104D6000B9E798428FDB00233BE700BFAFF3008039
:104D70007A008BFCFA2109400000000000806640A8
:104D8000C2444FF0010B0EF0070E0BFA0EFE9AF81C
:104D900010B02BEA0E0E8AF810E015E7C2444FF06F
:104DA000010B0EF0070E0BFA0EFE9AF810B02BEA6C
:104DB0000E0E8AF810E0002F3FF406AF1CE7C24445
:104DC0004FF0010B0EF0070E0BFA0EFE9AF810B022
:104DD0002BEA0E0E8AF810E0F7E6C2444FF0010B02
:104DE0000EF0070E0BFA0EFE9AF810B02BEA0E0E1C
:104DF0008AF810E000293FF4E6AE49E777EEE66A6C
:104E0000F5EEC06AF1EE10FACCBF012700279BE750
:104E100036EE666AB5EEC06AF1EE10FACCBF01213B
:104E2000002189E776EE473AF5EEC03AF1EE10FA46
:104E3000CCBF0122002277E70124002A3FF4C1AE53
:104E400049E774EEC54A0122F5EEC04AF1EE10FAC8
:104E50007FF589AE35EEC55A0121B5EEC05AF1EEA7
:104E600010FA7FF591AE012797E6DDE9122313448E
:104E700006EE102A1293139B5B421393D8E500BFF2
:104E8000F8B5274C04F1200554F8040F03685B685B
:104E90009847AC42F8D1234C04F1100554F8040BA8
:104EA00003681B689847AC42F8D11F4C04F1100509
:104EB00054F8040B03681B689847A542F8D11B4CB3
:104EC000206800B303681A4D1A4E29781F682346DC
:104ED0003268B847184B1A7812B1226852682260BB
:104EE000164A00241649D2ED010A164A91ED011A1C
:104EF000154892ED010A2C701C70346002F068F9BC
:104F0000124B1C70F8BD0C4B094D1A781AB92A784F
:104F10000AB9084EE4E70E4A064E12682260DFE73F
:104F200058150024281800242816002448110024AD
:104F3000A8150024A415002440110024AC0F00245F
:104F40009C0F0024BC0F0024AC1500244111002448
:104F5000001600242DE9F0432D4E85B04FF48062F9
:104F6000002106F1100012F0A9FB2A4B186818B1B5
:104F7000036831465B689847274F4FF0B0084FF4FD
:104F80007A790025022303AA317BA7F18004234804
:104F9000CDF800908DF80C508DF80D8003F0FAF8E4
:104FA000022303AA317B1D48CDF800908DF80C50E8
:104FB0008DF80D5003F0EEF84FF0100C022303AA09
:104FC000317B1648CDF800908DF80C508DF80DC04F
:104FD00003F0E0F84FF47A7514F801CF4FF0400E6B
:104FE000022303AA317B0D4800958DF80CE08DF863
:104FF0000DC003F0CFF8A742ECD108F101088037CB
:105000005FFA88F8B8F1B80FB9D105B0BDE8F08300
:105010004C11002448110024DB11002454110024F9
:1050200084B070B584B004464FF47A7609AD85E853
:105030000E009DF8383029460025037103F014F85E
:10504000AE2303AA00968DF80D3020462179022365
:105050008DF80C5003F09EF8D52303AA0096204645
:1050600021798DF80D3002238DF80C5003F092F861
:10507000802303AA0096204621798DF80D30022363
:105080008DF80C5003F086F8A82303AA009620465A
:1050900021798DF80D3002238DF80C5003F07AF849
:1050A0003F2303AA0096204621798DF80D30022374
:1050B0008DF80C5003F06EF8DA2303AA0096204610
:1050C00021798DF80D3002238DF80C5003F062F831
:1050D000122303AA0096204621798DF80D30022371
:1050E0008DF80C5003F056F8D32303AA00962046FF
:1050F00021798DF80D3002238DF80C5003F04AF819
:1051000003AA00960223217920468DF80C508DF8D1
:105110000D5003F03FF8402303AA00962046217962
:105120008DF80D3002238DF80C5003F033F8A623D0
:1051300003AA0096204621798DF80D3002238DF8C0
:105140000C5003F027F8A42303AA009620462179E7
:105150008DF80D3002238DF80C5003F01BF88D23D1
:1051600003AA0096204621798DF80D3002238DF890
:105170000C5003F00FF8142303AA0096204621795F
:105180008DF80D3002238DF80C5003F003F8A123A5
:1051900003AA0096204621798DF80D3002238DF860
:1051A0000C5002F0F7FFC82303AA0096204621798D
:1051B0008DF80D3002238DF80C5002F0EBFF8123A7
:1051C00003AA0096204621798DF80D3002238DF830
:1051D0000C5002F0DFFF8F2303AA009620462179AE
:1051E0008DF80D3002238DF80C5002F0D3FFD92337
:1051F00003AA0096204621798DF80D3002238DF800
:105200000C5002F0C7FF252303AA009620462179FF
:105210008DF80D3002238DF80C5002F0BBFFDB231C
:1052200003AA0096204621798DF80D3002238DF8CF
:105230000C5002F0AFFF342303AA009620462179D8
:105240008DF80D3002238DF80C5002F0A3FFAF2132
:10525000009603AA02238DF80D10204621798DF8BF
:105260000C5002F097FF04B0BDE8704004B07047E6
:105270002DE9F04F0021ADF51F7DC048002600F05C
:105280006DFD1021BD48012700F090FC0321BB48B3
:1052900000F070FC10213C2272AB72968DF8CC119C
:1052A0008DF8D021B64C93E807006FAB71978DE86D
:1052B0000700CDE96F64B348B34C0ECBFFF7B0FEE7
:1052C000B24BB34A314604F1C00513A81360B14A8A
:1052D0001360B82212F0F2F9B822314604F1080046
:1052E00012F0ECF9B82213A9284612F0D9F9314688
:1052F0002068666003F09EFE03685A1EBA4200F200
:105300000B82011DB82228460DF5827BC4F8783146
:1053100012F0C6F93020A04E11F063FD05460121C0
:105320000DF5DE79FCF7B4F92B1D342006953360BA
:105330002B469A4D2433736011F053FD074601212B
:10534000FCF7C6F93B1D9648B36007F124030797A5
:105350002B6011F046FD07460021FCF7E9F93A1DE4
:10536000904B4FF48A70F2603B448F4A0897136069
:105370008E4B9F6011F035FD82460021FCF706FA46
:1053800088200AF1040333610AF1E4036B600AF137
:10539000F403AB600AF58273EB6011F022FD8046E6
:1053A0009FED830A0121FCF7B5FA08F104032C20D4
:1053B000736108F158032B6108F168036B6108F110
:1053C0007803AB6111F00DFD01210590FCF716FB90
:1053D000059BDC201A1D0993B26103F11C02EA61EE
:1053E00011F0FFFC07460121FCF728FB3A1D38208D
:1053F000F26107F1AC022A6207F1BC026A6207F1AE
:10540000CC02AA6211F0EDFC0590FCF76BFB694A37
:105410000899099B57619360059BC2E9001A079997
:10542000D361DFF8B8A1C2E903180699DFF8B081AB
:1054300091611A4604333362134600262833EB6227
:105440005D4B9A6006F10F000025C0B200F078FBBA
:10545000ABF80000142011F0C4FC07464A46009641
:10546000464909F11209DBF80030FBF78FFF33469C
:10547000524A0721C8F8007013A83D61013612F0A6
:105480001FFA182011F0ADFC4D4B0746103040F8C4
:10549000103C13A958F8043BB860FB603C4B1B68F8
:1054A0007B6012F041FA042E4AF8047BCAD16FA93E
:1054B000334632464348444FAA46DFF8288101F07C
:1054C00041FFDFF824913F4802F04AF90AF1160043
:1054D0000026C0B200F034FB03461C20ABF80030BD
:1054E00011F07FFC05465246DBF80010FBF734FF55
:1054F0005346364A09213D6013A8AE610AF1010AFC
:1055000012F0DEF91C2011F06CFC57F8043B054644
:10551000C0F80090103013A9EB601D4BA8601B6809
:105520006B6012F001FABAF1040F48F8045BCDD1B8
:10553000B146DFF86880264F264E1020002511F076
:1055400050FC58F8043B04EBC90109F101099A68C1
:1055500001F5847147F8040BC0E90223C0E9006536
:1055600006C91846DD60FBF757FFB9F10C0FE4D10F
:10557000DFF87880184FDFF878903BE06816002459
:105580000108010954110024AC1600243410002431
:1055900000160024481100240416002438160024A4
:1055A0002C000400280004004810002400110024EE
:1055B0000AD7233C5C1500244C10002434830108D6
:1055C0003083010880160024281600243C8301083B
:1055D0005C100024B8820108881000240C110024FB
:1055E00028180024DC10002424830108001600245D
:1055F0008C8301081020002611F0F3FB58F8043FBB
:1056000004EBC50101355A68C03147F8040FC0E901
:105610000223C0E9009606C918469E60FBF7E8FE23
:10562000092DE7D10723012700968DF82930D4F8FA
:1056300068C1D4F86C01D4F87021D4F87431059C99
:105640008DF828700A9963620224684B9FED680AFE
:10565000C3F804C0674B5860674B68485A603B46C4
:105660003A4601F0DDFD8DF83150082103258DF813
:105670002C408DF830408DF835408DF834508DF841
:105680002D109FED5B0A0C9A0D9B0B995C4801F065
:1056900009FD0C238DF838708DF839300B238DF807
:1056A0003C408DF83D300A238DF840408DF8413064
:1056B0000E990F9A109B5348009601F061FD4FF030
:1056C000FF33CBF80460CBF808308BF80C60CBF8D4
:1056D000005004F07FFD4C4A00FA07F359464B484E
:1056E000A2FB032311969B098BF80C701296CBF842
:1056F000083004F0F1F9464911AA444804F066FA6A
:10570000424804F051FA4349434800F02FFAFFF7AA
:10571000B7FBFFF71FFCFAE7B822294670A8C4F8C8
:1057200078716F9711F0BCFFD4E9000103F082FC9F
:10573000064604F051FD002852D10DF5827B311D43
:10574000B82258465E4611F0ABFF0020594603468A
:1057500004E0013301200836092B12D032784FEAD9
:10576000C30C15F833709742F3D1A4447268013327
:105770000836DCF8C470974218BF40F00100092BCE
:10578000ECD100220AE0D3F8C4500132CB6C0831CE
:105790009D4218BF40F001000C2A11D002F109030C
:1057A000D1ED127A04EBC30393ED307AB4EE677A4D
:1057B000F1EE10FAE7D00132012008310C2AEDD1C8
:1057C00000283FF4A7ADD4E9000101F1BC0203F0C9
:1057D00047FB6FABBC22D4E9000103F03DFB99E528
:1057E000BC21304604F094FAA7E700BFBC0F0024A8
:1057F00000000000AC0F00249C0F00243011002496
:105800007C150024AC150024D34D621044110024F3
:1058100015480008B14800086816002410B5104A61
:1058200000241049104811F0D5FA0D4A0F491048CC
:1058300011F0D0FA0A4A0F490F4811F0CBFA0F487D
:105840000F4B074A0F498460036011F0C3FA0E48FA
:10585000034A04600D49BDE8104011F0BBBA00BF17
:105860000000002409480008AC1500240548000881
:105870007C15002401480008301100244C1100243C
:10588000508301080D48000844110024FD4700081A
:10589000704700BF0B4A136810B51C18B4F1707F35
:1058A0000CD21460084A134431B128B102460021D9
:1058B000184611F003FF0346184610BD0023184692
:1058C00010BD00BFA8160024000000C001292DE96A
:1058D000F04380461C462DED068B83B06ED0002928
:1058E0000F4691464FEA4202B8BF4F1C0E46019246
:1058F0007F1003EBC7053946FFF7E8FF019A08EB75
:1059000089002B463946FFF7E1FF012E51DD07EEF6
:10591000906A0026B8EEE7AA07EE906A9FED327A09
:10592000D4ED009A0136B8EEE70ADFED307A94ED57
:10593000019A60EE277A20EE070AC7EE8AAA80EE67
:105940000A0A11F097FBB0EE408AB0EE6A0A11F035
:1059500063FAF0EE408AB0EE6A0A11F065FC28EEB8
:10596000000A68EE288AD5ED010AD5ED006A20EE1E
:10597000C07A68EEA07AA8EEA67AE0EE267AF4EE77
:10598000477AF1EE10FA22D639EE876A083579EEB9
:10599000276AB74239EEC77A04F1080479EE677ACC
:1059A00004ED026A44ED016A05ED027A45ED017AE3
:1059B000B2DC03B0BDEC068BBDE8F08302680023C7
:1059C0002260636003B0BDEC068BBDE8F083F0EEAF
:1059D000401AB0EE681AB0EE660AFAF7A5FEB0EE0D
:1059E000407AF0EE607ACFE700000080DB0FC9C09C
:1059F000DFED1F7A38B580EE270A05460C462DEDFF
:105A0000028B11F0A9FBB2EE088AFAEE027AF0EEF0
:105A1000408AF0EE480AE0EE087AB0EE670A11F02C
:105A200009FDB9EE047AF8FE407AFDEEE76A30EE41
:105A3000670A104BA8EE887A0F4916EE902A002AC2
:105A4000B8BF5242C7EE087AA3FB0203DB0803EBA0
:105A50004303A2EB8303BDEC028B51F823302B6090
:105A6000F8FE677AFDEEE77AC4ED007A38BD00BF34
:105A700013D08241ABAAAAAAD40A00240160C26052
:105A8000B3FBF2F101FB12320023C0E9012370479E
:105A9000D0E9023213441944B1FBF2F302FB1311B3
:105AA000416070474368C268591A01EB4201B1FB7B
:105AB000F2F302FB13118160704700BF8368026834
:105AC000C16802EB830201338B4292ED000A8360CE
:105AD00001D3002383607047D0E90023C16802EB43
