:020000040800F2
:1000000000000220950C0008910C0008CD7F00082C
:10001000910C0008910C0008910C000800000000F1
:10002000000000000000000000000000910C00082B
:10003000910C000800000000910C0008517F00089E
:10004000910C0008910C0008910C0008910C00081C
:10005000910C0008910C0008910C0008910C00080C
:10006000910C0008910C0008910C0008D177000851
:10007000DD77000835650008E9770008F5770008A6
:1000800041230108016D0008910C0008910C000843
:10009000910C0008910C0008910C0008910C0008CC
:1000A000910C0008910C0008910C0008910C0008BC
:1000B000E97D0008F57D0008017E0008356D000827
:1000C000910C0008416D0008910C000849130108CB
:1000D0005513010875210108A1210108D521010846
:1000E000910C0008910C000800000000910C000821
:1000F000910C0008910C0008910C0008910C00086C
:10010000910C0008910C00080D7E00086113010895
:10011000092201083D220108910C0008910C0008F9
:10012000910C0008910C000885130108B91301080F
:1001300075230108910C0008910C0008910C00082F
:1001400000000000000000000000000000000000AF
:10015000910C0008910C0008910C00087122010814
:100160004D6D0008910C0008617F0008857F000834
:10017000910C0008A97F0008910C0008910C000860
:10018000910C0008910C0008A5220108D922010851
:100190006D13010879130108910C0008910C0008F7
:1001A000910C0008910C0008910C0008910C0008BB
:1001B000F1740008910C0008910C0008910C0008E3
:1001C000910C0008910C0008910C0008910C00089B
:1001D000910C0008910C0008910C0008910C00088B
:1001E000910C0008910C0008910C0008910C00087B
:1001F000910C0008910C0008910C0008910C00086B
:10020000910C0008910C0008910C0008910C00085A
:10021000910C0008910C0008910C0008910C00084A
:10022000910C0008910C0008910C000800000000DF
:10023000910C0008910C000800000000910C0008CF
:10024000910C0008910C0008910C0008910C00081A
:10025000910C0008910C0008910C0008910C00080A
:10026000910C0008910C0008910C0008910C0008FA
:10027000910C0008910C00080D23010800000000FB
:10028000910C0008910C0008910C0008000000007F
:0802900000000000910C0008C1
:1002A00010B5054C237833B9044B13B10448AFF3B0
:1002B00000800123237010BD2804002400000000EA
:1002C0000494010808B5034B1BB103490348AFF37D
:1002D000008008BD000000002C04002404940108E4
:1002E00001F0FF01102A2BDB10F0070F08D010F8E7
:1002F000013B013A8B422DD010F0070F42B3F6D1EB
:10030000F0B441EA012141EA014122F007047FF003
:1003100000070023F0E80256083C85EA010586EA5A
:10032000010685FA47F5A3FA87F586FA47F6A5FA96
:1003300087F68EB9EED1F0BC01F0FF0102F00702A2
:1003400032B110F8013B013A83EA010313B1F8D14D
:100350000020704701387047002D06BF354603382E
:10036000073815F0010F07D1013015F4807F02BF67
:10037000013015F4C03F0130F0BC0138704700BFB8
:1003800081F0004102E000BF83F0004330B54FEA46
:1003900041044FEA430594EA050F08BF90EA020FB3
:1003A0001FBF54EA000C55EA020C7FEA645C7FEA46
:1003B000655C00F0E2804FEA5454D4EB5555B8BF69
:1003C0006D420CDD2C4480EA020281EA030382EADA
:1003D000000083EA010180EA020281EA0303362D6C
:1003E00088BF30BD11F0004F4FEA01314FF4801C3F
:1003F0004CEA113102D0404261EB410113F0004F51
:100400004FEA03334CEA133302D0524263EB430307
:1004100094EA050F00F0A780A4F10104D5F1200EA5
:100420000DDB02FA0EFC22FA05F2801841F1000100
:1004300003FA0EF2801843FA05F359410EE0A5F1D4
:1004400020050EF1200E012A03FA0EFC28BF4CF005
:10045000020C43FA05F3C01851EBE37101F00045BB
:1004600007D54FF0000EDCF1000C7EEB00006EEBC8
:100470000101B1F5801F1BD3B1F5001F0CD3490852
:100480005FEA30004FEA3C0C04F101044FEA4452A9
:1004900012F5800F80F09A80BCF1004F08BF5FEA30
:1004A000500C50F1000041EB045141EA050130BD10
:1004B0005FEA4C0C404141EB0101013C28BFB1F522
:1004C000801FE9D291F0000F04BF01460020B1FA6D
:1004D00081F308BF2033A3F10B03B3F120020CDA40
:1004E0000C3208DD02F1140CC2F10C0201FA0CF01E
:1004F00021FA02F10CE002F11402D8BFC2F1200C83
:1005000001FA02F120FA0CFCDCBF41EA0C01904038
:10051000E41AA2BF01EB0451294330BD6FEA040481
:100520001F3C1CDA0C340EDC04F11404C4F120026C
:1005300020FA04F001FA02F340EA030021FA04F37E
:1005400045EA030130BDC4F10C04C4F1200220FAD5
:1005500002F001FA04F340EA0300294630BD21FA13
:1005600004F0294630BD94F0000F83F4801306BFD9
:1005700081F480110134013D4EE77FEA645C18BFCD
:100580007FEA655C29D094EA050F08BF90EA020F64
:1005900005D054EA000C04BF1946104630BD91EA5C
:1005A000030F1EBF0021002030BD5FEA545C05D15F
:1005B0004000494128BF41F0004130BD14F580049E
:1005C0003CBF01F5801130BD01F0004545F0FE4112
:1005D00041F470014FF0000030BD7FEA645C1ABF47
:1005E000194610467FEA655C1CBF0B46024650EA7E
:1005F000013406BF52EA033591EA030F41F40021AA
:1006000030BD00BF90F0000F04BF0021704730B52F
:100610004FF4806404F132044FF000054FF0000104
:1006200050E700BF90F0000F04BF0021704730B5C5
:100630004FF4806404F1320410F0004548BF40429A
:100640004FF000013EE700BF42004FEAE2014FEAEF
:1006500031014FEA02701FBF12F07F4393F07F4FCA
:1006600081F06051704732F07F4208BF704793F0CD
:100670007F4F04BF41F40021704730B54FF46074E0
:1006800001F0004521F000411CE700BF50EA0102E3
:1006900008BF704730B54FF000050AE050EA01028C
:1006A00008BF704730B511F0004502D5404261EBFC
:1006B00041014FF4806404F132045FEA915C3FF43D
:1006C000D8AE4FF003025FEADC0C18BF03325FEADA
:1006D000DC0C18BF033202EBDC02C2F1200300FA8B
:1006E00003FC20FA02F001FA03FE40EA0E0021FAB0
:1006F00002F11444BDE600BF53B94AB9002908BF4E
:1007000000281CBF4FF0FF314FF0FF3000F0BEBAA1
:10071000ADF1080C6DE904CE00F050F9DDF804E00D
:10072000DDE9022304B0704760EE016A20EEA16AA1
:1007300020EE215A76EEC67A61EE205AF4EE677A00
:10074000F1EE10FA35EE257A04D6B0EE670AF0EE37
:10075000470A7047B4EE477AF1EE10FAF5D7DFEDAD
:10076000934AB0EEC04AB4EE644AF1EE10FACCBF40
:1007700001230023B0EEE04A00F39D80B4EE644A0A
:10078000F1EE10FA00F397800023DFED884AB0EE17
:10079000C14AB4EE644AF1EE10FAF0EEE13A48DCF8
:1007A000F4EE643AF1EE10FA43DC9BBBF0EEE66A3D
:1007B000F4EE646AF1EE10FA14DCB0EEC66AB4EE40
:1007C000646AF1EE10FA0DDCB0EEC55AB4EE645A6C
:1007D000F1EE10FA06DCF0EEE55AF4EE645AF1EEB2
:1007E00010FAB2DDB4EE400AF1EE10FA80F1D380D7
:1007F000F4EE600AF1EE10FA80F1C380B4EE411A13
:10080000F1EE10FA80F1B380F4EE611AF1EE10FA15
:1008100080F1A38061EEE07A60EE810AE0EE017A79
:10082000E0EE210A9FED627A67EE877A20EE877A02
:100830008BE7DFED5E7A9FED5D7AB4EE674AF1EE0D
:1008400010FACCBF0123002307EE903A11EE103AC4
:10085000F8EEE77A002BF0EEE77AF4EE473AB8BF0D
:10086000F1EE677AF1EE10FACCBF01230023B0EE6F
:10087000671A07EE903A11EE903AF8EEE77A002BFD
:10088000F0EEE77AB4EE400AB8BFF1EE677AF1EE27
:1008900010FAF0EE671A4CD6F4EE600AF1EE10FA98
:1008A000B8D710EE903A9FED437ADFED437A002BF4
:1008B00067FE270AAEE704EE903ADFED3C3A10EE11
:1008C000103AF8EEE44A002BF0EEE44AB4EE634A44
:1008D000B8BFF1EE644AF1EE10FACCBF0123002359
:1008E000B0EE640A04EE903A10EE903AF8EEE44A64
:1008F000002BF0EEE44AB4EE411AB8BFF1EE644AC0
:10090000F1EE10FAF0EE640A1DD6F4EE611AF1EE83
:1009100010FA78BF0123FFF538AF11EE903A9FED42
:10092000254ADFED254A002B4FF0010364FE241A0F
:100930002BE710EE103A9FED1F7ADFED1F7A002BA8
:1009400027FE270AA8E711EE103A9FED1A4ADFEDBD
:100950001A4A002B24FE241AD7E711EE903A9FED95
:10096000157ADFED157A002B67FE271A52E711EE94
:10097000103A9FED107ADFED107A002B27FE271A30
:1009800042E710EE903A9FED0B7ADFED0B7A002BE9
:1009900067FE270A32E710EE103A9FED067ADFED88
:1009A000067A002B27FE270A22E700BFFFFF7F7F82
:1009B0000000807F00000000000000802DE9F0476B
:1009C000089D04468E46002B4DD18A42944669D933
:1009D000B2FA82F252B101FA02F3C2F1200120FA16
:1009E00001F10CFA02FC41EA030E94404FEA1C4864
:1009F000210CBEFBF8F61FFA8CF708FB16E341EA60
:100A0000034306FB07F199420AD91CEB030306F1E5
:100A1000FF3080F01F81994240F21C81023E634406
:100A20005B1AA4B2B3FBF8F008FB103344EA0344AA
:100A300000FB07F7A7420AD91CEB040400F1FF33BF
:100A400080F00A81A74240F207816444023840EAFC
:100A50000640E41B00261DB1D4400023C5E9004335
:100A60003146BDE8F0878B4209D9002D00F0EF80B8
:100A70000026C5E9000130463146BDE8F087B3FAEB
:100A800083F6002E4AD18B4202D3824200F2F980D3
:100A9000841A61EB030301209E46002DE0D0C5E9D6
:100AA000004EDDE702B9FFDEB2FA82F2002A40F022
:100AB0009280A1EB0C014FEA1C471FFA8CFE012625
:100AC000200CB1FBF7F307FB131140EA01410EFBC9
:100AD00003F0884208D91CEB010103F1FF3802D270
:100AE000884200F2CB804346091AA4B2B1FBF7F06A
:100AF00007FB101144EA01440EFB00FEA64508D98D
:100B00001CEB040400F1FF3102D2A64500F2BB80C9
:100B10000846A4EB0E0440EA03409CE7C6F1200718
:100B2000B34022FA07FC4CEA030C20FA07F401FA5E
:100B300006F31C43F9404FEA1C4900FA06F3B1FBE7
:100B4000F9F8200C1FFA8CFE09FB181140EA01414C
:100B500008FB0EF0884202FA06F20BD91CEB0101E9
:100B600008F1FF3A80F08880884240F28580A8F141
:100B700002086144091AA4B2B1FBF9F009FB101193
:100B800044EA014100FB0EFE8E4508D91CEB010131
:100B900000F1FF346CD28E456AD90238614440EAD4
:100BA0000840A0FB0294A1EB0E01A142C846A64654
:100BB00056D353D05DB1B3EB080261EB0E0101FADD
:100BC00007F722FA06F3F1401F43C5E9007100263A
:100BD0003146BDE8F087C2F12003D8400CFA02FC90
:100BE00021FA03F3914001434FEA1C471FFA8CFEA0
:100BF000B3FBF7F007FB10360B0C43EA064300FB90
:100C00000EF69E4204FA02F408D91CEB030300F12D
:100C1000FF382FD29E422DD9023863449B1B89B2E4
:100C2000B3FBF7F607FB163341EA034106FB0EF36D
:100C30008B4208D91CEB010106F1FF3816D28B421A
:100C400014D9023E6144C91A46EA004638E72E46E6
:100C5000284605E70646E3E61846F8E64B45A9D2DE
:100C6000B9EB020864EB0C0E0138A3E74646EAE74D
:100C7000204694E74046D1E7D0467BE7023B6144FB
:100C800032E7304609E76444023842E7704700BF64
:100C9000FEE700BF0B480C4A904203D0121A0B49E2
:100CA00014F09EFE0A480B4A904203D0121A00210B
:100CB00014F0A4FE07F0E4FB14F05EFE03F0F4F978
:100CC000FEE700BF00000024280400243894010837
:100CD00028040024FC370024704700BF704700BF81
:100CE00090F824207AB190F8203003B98361037919
:100CF00023B190F82110A1B90021C16180F8213001
:100D000080F820207047037923B190F82110002942
:100D1000F2D00B4690F820100029EFD00021C161DD
:100D2000ECE70B4680F8202080F82130704700BFA8
:100D3000F2EE0E7A90ED167A9FED0C0AA7EE270AD6
:100D400010B50446143084ED070A14F0DDF9D4ED33
:100D5000147A94ED197AF8EE677A84ED0C0A67EE4E
:100D6000877AFCEEE77AC4ED157A10BDCDCCCC3D88
:100D700010B5047982B01CB3F0EE007AD0ED076AAA
:100D80009FED107AE6EE877AFDEEE77ACDED017AF7
:100D9000B3B14FEA830E8469002308E0D0F814C091
:100DA0000433013C043142F804CB734507D0002CD6
:100DB000F4DCD1F800C0019CC0F814C0F0E78461F5
:100DC00002B010BD000000422DE9F04198460379C1
:100DD0000BB9BDE8F081D0ED087A00F1140790ED71
:100DE000097A0E46F8EE677A3846144667EE877A37
:100DF000FCEEE77A17EE901A03F0E8FCB8F1000F6A
:100E0000E7D00025B6EC010A384603F003FD38466A
:100E100003F0F2FCD4ED007A013530EE270AA84544
:100E2000A4EC010AEED1BDE8F08100BFF8B504469C
:100E300090F824001F4630B1A269184802EB030C59
:100E4000844520D9F8BD21790029FBD0A5694BF64E
:100E500080318D42F6DDE66973B1616902EB830092
:100E600001EB8601D2ED007AB1EC017A77EE877A58
:100E7000E2EC017A8242F5D1BB1993FBF5F205FB56
:100E80001233E361F8BD606900EB82009A0014F050
:100E9000A7FDA2693A44A261F8BD00BF00F22B0091
:100EA00038B51D46037923B3037F0446006A0BBBA4
:100EB000A369AA0003EB800014F092FD236A1D448D
:100EC000B5F5004F256214DB04F580230121227F54
:100ED00083F82410AAB9A1694FF4803260691144E3
:100EE00014F07EFD237F4FF4804283F001032262E1
:100EF000237738BD6369AA0003EB800014F070FD0E
:100F0000DCE761694FF48032A069114414F068FD98
:100F1000E8E700BF2DE9F047994603798BB3B9F1B3
:100F2000000F2ED0074600F140068846144600F117
:100F3000140A00255046013513F02CFFB6EE007A56
:100F4000D7ED157A304630EE070AF8EE677A67EE8D
:100F5000807AFCEEE77A17EE901A03F041FCB8ECC9
:100F6000010A304603F056FC304603F045FCD4ED50
:100F7000007A97ED1C7AA945E0EE077AE4EC017A55
:100F8000D8D1BDE8F08700BFC368BBB110B5044637
:100F900080682179183005F071FAE3689FED087ACE
:100FA000D3ED007A70EE677AF0EEE77AF4EEC77A66
:100FB000F1EE10FAA8BF83ED000A10BD704700BF24
:100FC0000AD7A33B43696BB110B50446043004F063
:100FD000EFFFA37B6269A3F1FF03B3FA83F35B091D
:100FE000137010BD704700BFF8B500F5802696F865
:100FF00024302DED028B002B52D003790746002BB5
:101000004ED00022037F86F82420002B4BD000F125
:10101000240301224FF40041806903F0F5FA002512
:10102000DFED288A2C46D7ED0A6A97ED097AB0EEF3
:10103000E68AF0EEC77AF4EEC87AF1EE10FA58BFFD
:10104000B0EE678AB5EE408AF1EE10FA10D086EE67
:10105000880AC7EE087A20EE000AA7EEA70AB5EEC6
:10106000400AF1EE10FA27D4F1EEC07A28EE278A72
:10107000B4EEE88A44F201030837F1EE10FA02DD1B
:10108000F0EE488A254601349C42CCD14BF68033A1
:1010900003FB05F307EE903AFAEEE87AC6ED0A7A1A
:1010A000BDEC028BF8BD00F1240301224FF4004196
:1010B000406903F0A9FAB2E714F086FBF0EE407A3B
:1010C000D4E700BF0000000070B5054600F114042D
:1010D00000F19406D4ED077A204695ED377A203456
:1010E000F8EE677AD5F8E83004ED037A44F8083C66
:1010F00067EE877AFCEEE77A17EE901A03F066FB4C
:10110000B442E7D170BD00BF70B584B0084D02266F
:101110000446ADF80C1000230096012240F8045B51
:101120009FED040A039904F0F3FE204604B070BD5D
:101130004C6401080000000030B583B00446084D3F
:101140001046ADF8043002220199256004F05EFFDC
:10115000044B20461A68511C6260196003B030BD10
:1011600058640108440400249FED177BB7EEE06A41
:101170004FF07E5370B5B4EEC76B84B00446C0ED3B
:10118000040A4361F1EE10FA836101DD104B036143
:10119000DFED107A6E46012120EE270AFCEEC07AC0
:1011A00017EE905AA80003F013FA2B4601462A4680
:1011B000304603F001FBE56196E80F0084E80F007C
:1011C000204604B070BD00BFAE47E17A14AEEF3FD9
:1011D000A4707D3F00803B475BB32DE9F04104469E
:1011E00098460F46154600262DED028B2046013607
:1011F00003F002FBD4ED047AB7EC017AB0EE408A3A
:1012000060EE277AD4ED056A2046A7EEA67AB0EE06
:10121000470A03F0FFFAD5ED007A94ED067AB0455F
:10122000E7EE087AE5EC017AE0D1BDEC028BBDE88F
:10123000F0817047000000009FED1D7BB7EEE06A73
:10124000F0B5B4EEC76B85B00646F1EE10FA2CDCB3
:10125000C0ED080ADFED187A6C46012120EE270A5E
:10126000FCEEC07A17EE905AAF00384603F0B0F9A2
:101270002B4601462A46204603F09EFA94E80F00CA
:1012800086E80F000121384603F0A2F92B460146FB
:101290002A46204606F1100503F08EFA94E80F0066
:1012A00085E80F00304605B0F0BD044B0362D1E77E
:1012B000AE47E17A14AEEF3F00803B47A4707D3F1C
:1012C0009BB32DE9F8430446994600F110080E46F9
:1012D000154600272DED048B2046013703F08CFACC
:1012E000D4ED088A96ED009A4046F1EE688AB0EE99
:1012F000408A03F081FAD4ED087A2046A8EE890AE4
:10130000A7EE880A03F086FAB6EC010A404603F01D
:1013100081FA95ED000AB94530EE088AA5EC018AFC
:10132000DAD1BDEC048BBDE8F8837047F0B50E460A
:10133000017983B0F9B1054600F1140400F1940776
:10134000204620343146CDE90023FFF745FFBC425B
:10135000DDE90023F4D12046114601930092FFF706
:10136000AFFF05F1B800DDE90023114603B0BDE889
:10137000F040FFF7A5BF03B0F0BD00BF10B50A46AF
:101380000446094B002122742360084803F020F929
:1013900000230749074A84F82430A1622371A26020
:1013A000C4E90503204610BD9464010800F22B0037
:1013B000806301088C63010830B5114D85B0044687
:1013C0000022104B05606D46017401216262A36228
:1013D0000D4803F0FDF80023014645F6C0522846AB
:1013E00003F0EAF904F1140C95E80F008CE80F0003
:1013F0000022064B20462271A36005B030BD00BF1D
:10140000646401089C63010800770100A863010877
:1014100038B504460025114B4FF48022017429464B
:10142000036024302577256214F0E8FA04F5802360
:101430000022294683F824504FF400309A6203F0CA
:10144000C7F8034629464FF40030636103F0C0F843
:10145000034BA06120462571A36038BD7464010868
:10146000B06301084FF07C534FF07E52DFED4B0A22
:101470009FED4B0A70B52DED028BC0F8DC308AB0C1
:10148000484B04460025C0F8E820C0F8E030464B41
:101490000574C0F8EC3001A8444B9FED458A2360E9
:1014A000FFF762FE0DF1040E04F1140CDFED410AAA
:1014B0009FED410A414EBEE80F00ACE80F009EE8E8
:1014C0000F008CE80F0001A8FFF74EFE0DF1040E8F
:1014D00004F1340CDFED3A0A9FED3A0ABEE80F0042
:1014E000ACE80F009EE80F008CE80F0001A8FFF7A2
:1014F0003BFE0DF1040E04F1540CDFED330A9FEDB9
:10150000330ABEE80F00ACE80F009EE80F008CE83D
:101510000F0001A8FFF728FE0DF1040E04F1740C72
:10152000F0EE480A9FED2A0ABEE80F00ACE80F0073
:101530009EE80F008CE80F0001A8FFF77DFE0DF17B
:10154000040E04F1940CF0EE480A9FED220ABEE866
:101550000F00ACE80F00BEE80F00ACE80F00DEF8AB
:10156000003001A8CCF80030FFF766FE0DF1040C46
:1015700004F1B80EBCE80F00AEE80F00BCE80F00A5
:10158000AEE80F00DCF800302046CEF800302571C0
:10159000A6600AB0BDEC028B70BD00BFB6F33D3F44
:1015A000CDCCCC3DB8630108C8630108A464010830
:1015B0003333333FE3A53B3F6132D53DD46301086C
:1015C0003D0A373F6666E63D986E323F6B9AF73DBF
:1015D000A167B33C6B10E63B2C4B4FF07E52DFED26
:1015E0002C7AF0B52DED028B03600446294B4FF0A9
:1015F0007C550267B0EE408A836585B0264BB0EE1D
:10160000670A264A143003650026254B00F8041C9F
:10161000826403660023234ADFED238A2349244F93
:101620004165A262C4ED077AA5612562E362C4ED5B
:10163000098A13F069FD28EE288A40F20113A5619A
:101640006D4684ED0C0AFCEEC87AA387012126754D
:1016500017EE900AC4ED147A800002F0B9FF334609
:101660000146226D284603F0A7F804F1400CD4F897
:1016700050E095E80F008CE80F002046C4F854E0D5
:101680002671A76005B0BDEC028BF0BD8464010833
:101690000000C8429A99993ECDCCCC3EE063010847
:1016A000FC6301083EC3AE3700803B47EC63010892
:1016B00008640108064ADFF824C00260054A017484
:1016C00000210262044AC0F81CC0017182607047A8
:1016D0003C6401081464010824640108CDCC4C3F2B
:1016E000704700BF38B504461D46D0E90203D31841
:1016F00015D4421E9A42A8BF1A46E26071B123690E
:10170000294653F8220003681B6898472A68D4E9E1
:10171000031353F821305B685A602B6038BD0022F8
:10172000EBE700BF064BC2681B68064830B49D68F3
:1017300000246C6153619A60086030BC704700BF40
:10174000F804002498040024064BC2681B6806486D
:1017500030B49D680024EC60D3609A60086030BCAF
:10176000704700BFFC0400249804002480207047C8
:1017700051B9002A04DB06D0836801221A70704731
:10178000836819707047704710B480681C68044AF9
:101790000449546008605DF8044B1A60704700BF4C
:1017A00010050024F804002410B483B0019201BB9A
:1017B000DDED017A8368B8EEE77ADFED136AD3EDE9
:1017C000007AE7EE267AF5EEC07AF1EE10FA0DD443
:1017D000B7EE007AF4EE477AF1EE10FA77FE277A48
:1017E000C3ED007A03B05DF8044B7047DFED077A74
:1017F000F6E71C688068064A0649546008601A606B
:1018000003B05DF8044B70470AD7233C000000008A
:1018100034050024FC0400242DE9F04F83B05C1A49
:101820000C9E002C9DF83490A6EB0208B8BF6442D1
:10183000B8F1000FB8BFC8F100088B428CBF4FF061
:10184000010A4FF0FF3A9642A4EB080C51D84FF032
:10185000FF357F2B019512D83F2E10D8F50806F0E2
:10186000070E012703EBC5150544B9F1000F47D05A
:1018700007FA0EF795F810E047EA0E072F74964224
:1018800001D18B4229D0C8F100077F2914D83F2A03
:1018900012D8D50802F0070B4FF0010E01EBC51569
:1018A0000544B9F1000F1BD00EFA0BFE95F810B0ED
:1018B0004EEA0B0E85F810E0B7EB4C0F4FEA4C05E3
:1018C00002DAACEB080C5144AC4202DD019DA444A9
:1018D0002A449942D9D19642D7D103B0BDE8F08FBE
:1018E0000EFA0BFB95F810E02EEA0B0E85F810E0CF
:1018F000E2E701257F2B0195C5D83F2EAED9C2E77F
:1019000007FA0EFE2F7C964227EA0E072F74B8D0F6
:10191000B9E700BF0B682DE9F04F9D6985B0C04B5A
:101920000C4680469D4240F0968191F8913002220B
:1019300043F0080381F89130D10802F00700012339
:1019400004EBC1111A448340487C0B2A43EA00038C
:101950004B74F1D1D8F80C502E4640E0762301228A
:101960000A212046CDE900522A46D847236805F1CE
:101970000209DA681FFA89F9BA4240F0CA800B22DC
:101980009B682046A2809847814506D3236820465D
:101990009B68984701381FFA80F9D8F810204FF05B
:1019A000010ED4F800C0204652F826109D4B8968DD
:1019B0000CCBA4F80690CDF800E0DCF82890C847DE
:1019C000D8F80830013BB34202D1322D40F3CD802C
:1019D000D8F80C5001362B1DB342C0F2DF80D8F886
:1019E0000830B34240F3DA80751B22685A274FF063
:1019F000010B05EB45004FF0B40C07230A2105EB62
:101A00008005CDF800C0204605F1060ACDE9017B2E
:101A1000D2F820905246C847226805F1070900977E
:101A200007230A212046CDE9017BD2F820B04A469F
:101A3000D84723687C4FDA68D3F820B0BA4240F028
:101A40008A80762101205A234FF4877C5246CDE9C3
:101A50000130CDF800C007232046D8472368DA6854
:101A6000D3F820B0BA427BD176214FF0010C5A2036
:101A70004FF0000A07234A46CDF800A0CDE9010C3B
:101A80002046D8472368DA68D3F818B0BA424BD159
:101A9000634B9B457FF462AF4FF06C0976233F2D7B
:101AA0004FF0010B10D8BAF1000F0DD1EA0805F084
:101AB0000700012103EBC21281402244107C014344
:101AC00011740A2B3FF452AFCE4628464FF00A0C51
:101AD000C20800F007014FF0010ABCF17F0F0CEBC8
:101AE000C2120AFA01F107D83F28224404D892F81A
:101AF00010A041EA0A0111745FEA4E0218BFDC44EB
:101B0000914501DDCE4401386345E1D18542DFD105
:101B10002CE7204690470B2823683FF630AFDA6861
:101B2000BA423ED17F222BE7204690473C4AA0F1A3
:101B30000A0393457FF413AFA0F11409B9F1000F24
:101B4000B8BFC9F100090A2B00F293803F2D4FF076
:101B5000FF3BABD9B5E720469047A0F10A0171E7FA
:101B600020469047A0F10A017FE723680D35D3F89E
:101B70001890DB68BB4259D1294B994517D0762381
:101B800001212A460095204601910A21C847D8F82C
:101B90000C5001362B1DB342BFF621AF05B0BDE896
:101BA000F08F204690470138236882B2E8E6002291
:101BB0004FF06C0E76233F2D4FF001090ED86AB915
:101BC000EA0805F00700012103EBC212814022441C
:101BD000107C014311740A2B3FF4FAAEF4462F46F1
:101BE0000A22F90807F0070A01207F2A02EBC11137
:101BF00000FA0AF007D83F2F214404D891F810A02A
:101C000040EA0A0008745FEA4C0118BF4A448E4556
:101C100001DDF444013F9342E3D1BD42E1D1D7E677
:101C200019180008940000246D17000820469847F2
:101C3000134AA0F10A039145A2D1A0F1140EBEF1FE
:101C4000000FB8BFCEF1000E0A2B0DD83F2D4FF07C
:101C5000FF39B5D9BFE701230B2220461946CDE94C
:101C600000230222A84775E67F2B94BF00220122A1
:101C7000A1E77F2B94BF4FF0000A4FF0010A0EE757
:101C800019180008024BC26843609A60704700BF91
:101C900068040024024BC26843609A60704700BF2A
:101CA000540400242DE9F04F89B008AC9DF8487029
:101CB000019104E90C000B78002B00F0AD801A466E
:101CC0009DF8193080469DF8184003939146079B74
:101CD0000593A9F12005EBB25E2B00F2A180D8F8A4
:101CE00000305A4ADB68934240F09D808020B8F86B
:101CF00004302344834200F39380D8F800304046F8
:101D00009B689847B8F80610039A02918B1898427E
:101D1000C0F28680002A00F08E8002FB05F56FF08D
:101D2000004E059BAE441544B8F804B003EB4E0ECC
:101D3000023BCDF8109003EB45030D469A463EF862
:101D4000026FA4B305F007034FF0010CEA085946EF
:101D50000CFA03FC0BF110034FFA8CFC03EBC212DC
:101D600000236FEA0C0942440DE07F2906D83F2D7D
:101D700004D8107897B14CEA00001070013301329A
:101D80000131A34213D006FA03F00004EDD47F29F9
:101D9000F4D83F2DF2D81078002FECD0013309EAA7
:101DA000000001320131A34202F8010CEBD1D6450B
:101DB00005F10105C3D1DDF81090D8F800200BEB38
:101DC00004052249D368ADB28B422FD180208542D1
:101DD00004D3D3681D498B4230D17F259368404698
:101DE000A8F804509847029B834207D3D8F80030E4
:101DF00040469B689847013883B20293029BA8F83B
:101E00000630019B1878484507D113F8019F0193CC
:101E1000B9F1000F7FF45DAF002009B0BDE8F08F8D
:101E20004FF00009EDE74046984760E74046984785
:101E3000D8F80020CBE7B8F804B0BEE74046984792
:101E40000138D8F8002085B2C8E700BF6D17000838
:101E50002DE9F04F964683B0984691461EF8014B07
:101E600005460F460C9B9DF83860002C00F0F98069
:101E70004FF0000C1EF8014B0CF1010C002CF9D1B5
:101E80001FFA8CFC98F8004098F8012014FB0CFC19
:101E90000D9811B20FFA8CFC2CEAEC7C082800F2A9
:101EA000E980DFE800F04558B5CC6F7F989F0500CA
:101EB0009A88B3F800A09244B3F90620AAEB0C0A62
:101EC000002A1FFA8AFA44DB5C88E98004EB62048A
:101ED000A5F804C0A5F800A0A4EB51018CB26C8059
:101EE0003B68DFF8ACB1DA685A4547D180205045ED
:101EF00005D8DA685A4540F0B6804FF07F0A9B68F3
:101F00003846A7F804A09847A04205D83B68384651
:101F10009B689847013884B2FC8049460096384651
:101F200098E80C00FFF7BEFE284603B0BDE8F08F2E
:101F3000B3F90420B3F800A0002AB8BF01320AEBBD
:101F4000620AB3F90620AAEB6C0A002A1FFA8AFA81
:101F5000BADA0132B8E7B3F900A0B3F902403B683E
:101F6000DFF82CB1DA68A5F800A01FFA8AFA5A4502
:101F70006C80A5F804C0A4B2E980B7D03846904779
:101F80003B68B4E75C88D888B3F900A00444A5F89E
:101F900004C0A5F800A01FFA8AFAA21AE98094B238
:101FA0006C809DE7B3F90400B3F800A00028B8BF27
:101FB00001300AEB600AAAEB6C0A5C881FFA8AFA05
:101FC000DB88A5F804C01C44E980A5F800A0A21A8B
:101FD00094B26C8084E7B3F800A098888244AAEB9E
:101FE0000C0AEAE7B3F906205C88002AB3F900A0DE
:101FF000E980B8BF0132A5F800A0A5F804C01FFA17
:102000008AFA04EB6204A4EB51018CB26C8067E79E
:10201000B3F90420B3F800A0002AB3F90240A5F8F0
:1020200004C0B8BF01326C80E980A4B20AEB620A36
:10203000AAEB6C0C1FFA8CFAA5F800A050E7B3F8D5
:1020400000A09A88B3F902409244A5F804C06C80BD
:10205000A4B2AAEB0C0CE9801FFA8CFAA5F800A038
:102060003EE7A4460EE73846904701383B681FFA22
:1020700080FA44E73B680024DFF814B0DA68A2462F
:102080002C805A456C80AC80EC803FF438AF75E70B
:102090006D1700082DE9F04F022389B005460A6844
:1020A00080680C46D2F82C804768894EADF8103015
:1020B000ADF812307C23B045ADF814304FF0140366
:1020C000ADF8163040F0E380394611F8013B33B1EA
:1020D000002311F8010B01330028FAD19BB2DFF87D
:1020E00004A2D1689AF800009AF801B010FB03F33B
:1020F000DFF8F491ADF81EB04FEA6B0B1BB2494507
:10210000CBF10C0B23EAE3731FFA8BFB4FEA630856
:10211000ADF81C30ADF81AB0C8F140081FFA88F8C5
:10212000ADF8188040F0C2808020404505D8D368C3
:102130004B4540F0BF804FF07F0893682046A4F8DD
:1021400004809847584540F283800123A4F806B0E4
:102150003946204600939AE80C00FFF7A3FD276854
:102160005C4BD7F81880984540F0878094F88F3101
:1021700004F5C77143F0100384F88F3104F20F1394
:1021800013F8012F42F0100299421A70F8D1AB688F
:10219000514A1B785149FD6A002B14BF884690466E
:1021A00015220023B542ADF812204FF07F02ADF8A2
:1021B0001030ADF814204FF02A02ADF816204FD1A0
:1021C00008F1010010F8015B0133002DFAD1DFF8AE
:1021D00010A1FA689AF800109AF8016011FB03F355
:1021E000DFF80491ADF81E6076101BB24A45C6F1C7
:1021F0002A0623EAE373B6B24FEA6305ADF81C3052
:10220000ADF81A60C5F13F05ADB2ADF8185049D12F
:102210008020A84203D8FB684B4552D17F25BB687C
:102220002046A5809847B0420BD90123E68041465D
:10223000204600939AE80C00FFF734FD09B0BDE892
:10224000F08F236820469B689847013886B2ECE7F8
:10225000236820469B68984701381FFA80FB74E783
:102260000193012004AB424602902146009306A848
:102270001B4BA84709B0BDE8F08F142201230021B1
:102280002046CDE900237F23C04727687FE700234E
:1022900001203A46CDE9013004AB06A80093114B6A
:1022A000C0475CE7204690472768B2E7204688474A
:1022B00022683AE720469847013822681FFA80F8DA
:1022C0003BE7204698470138276885B2A7E700BF5B
:1022D000511E000819180008B0640108AC64010818
:1022E0008C000024940000246D1700082DE9F04FA5
:1022F000022389B005460A6880680C46D76AD0F880
:1023000004808E4EADF81030ADF812307C23B74209
:10231000ADF814304FF01403ADF8163040F0D18012
:10232000414611F8013B33B1002311F8010B013391
:102330000028FAD19BB2DFF81CB2D1689BF80000EC
:102340009BF801A010FB03F3DFF80C92ADF81EA080
:102350004FEA6A0A1BB24945CAF10C0A23EAE37341
:102360001FFA8AFA4FEA6307ADF81C30ADF81AA0DD
:10237000C7F14007BFB2ADF8187040F0C8808020A8
:10238000B84204D8D3684B4540F0CB807F27936890
:102390002046A7809847504540F28B800123A4F83F
:1023A00006A04146204600939BE80C00FFF77AFC0C
:1023B0002268634B97699F4240F0938094F88F2185
:1023C00004F20F1304F5C77142F0100284F88F2154
:1023D00013F8012F42F0100299421A70F8D1AB683D
:1023E00005219FED587AD3ED007A574F67EE877A33
:1023F000564A3846FDEEE77A17EE903A13F000FCA5
:10240000152122680023D56AADF812107F21B5424C
:10241000ADF81030ADF814104FF02A01ADF81610D9
:1024200068D13D78002D7AD0781C10F8011B01335B
:102430000029FAD19BB2464FDFF81C913D787E7897
:1024400015FB03F5D368ADF81E6076102DB24B4531
:10245000C6F12A0625EAE575B6B2ADF81C504FEA7A
:102460006505ADF81A60C5F13F05ADB2ADF818507D
:1024700051D18020A84203D8D3684B4557D17F253E
:1024800093682046A5809847B0420BD90121204689
:1024900097E80C00E68000912B49FFF703FC09B098
:1024A000BDE8F08F236820469B689847013886B2C4
:1024B000ECE7236820469B68984701381FFA80FAAA
:1024C0006CE7002301204246CDE9013004AB06A8A9
:1024D0000093204BB8472268194B97699F423FF4FD
:1024E0006DAF1422012300212046CDE900237F2374
:1024F000B84774E70193012004AB3A4602902146A5
:10250000009306A8124BA84709B0BDE8F08F2046FB
:102510008847226834E7204698472268AAE72B4676
:1025200089E7204698470138226887B22FE720467E
:1025300098470138226885B2A2E700BF511E000803
:10254000191800080000C84260040024B46401089F
:102550008C000024940000246D17000870B41B4AFE
:1025600004241B491B481C4B0A608C600861002036
:102570001A491B4E1B4D1A6019619C601A4B1B496E
:102580001861D861B060A86019481960D960996174
:10259000306018491848196228600E201749184CF5
:1025A00088601848596022600A600861164A174816
:1025B000174998600320596103F10C011360183327
:1025C0002261A060C2E9011370BC70471465010864
:1025D00034050024240500241005002400050024EF
:1025E000680400245404002474040024E8640108EE
:1025F000F4640108D864010804650108E4040024B7
:1026000098040024AC04002448040024BC6401089D
:10261000C8640108704700BF704700BF704700BF23
:10262000704700BF704700BF49424FF480621030CE
:10263000C9B213F0E3B900BF704700BF4020704734
:1026400038B51F4D04461F4803F054FC284603F0DC
:10265000AFFC2B792BB1AB7AA3F17F03B3FA83F3F1
:102660005B096279184D13432846637103F0C2FB7E
:102670002A7B2AB1AA7CA2F17F02B2FA82F2520925
:1026800021792B790A43227103B16B6A22680F49C1
:10269000134423600B7803F0FF027BB923790C48C5
:1026A000DBB20370227163790A48DBB20370012345
:1026B000627109482568056022600B7038BD00BF53
:1026C000480500245C0A0024BC0900248805002475
:1026D000E809002458050024E40900242DE9F04706
:1026E0000F46124D0168814616463868920005F182
:1026F000180813F075F906E021683A680C6811466D
:10270000A047454510D055F8044B3346227C20465F
:10271000002AF1D120683A68D0F800A02046D9F804
:102720000010D0474545EED1BDE8F087A40900244C
:1027300010B504464FF4826112F0F1FC204610BD42
:102740002DE9F04F4FF0B00885B0054600F10807BD
:1027500000F18F0600F28F494FF47A7B4FF0000AA8
:10276000297B022303AA3846CDF800B0A6F18004E5
:102770008DF80CA08DF80D8004F084FB297B0223DA
:1027800003AA3846CDF800B08DF80CA08DF80DA046
:1027900004F078FB4FF0100C297B022303AA384683
:1027A000CDF800B08DF80CA08DF80DC004F06AFBD8
:1027B0004FF47A7014F801CF4FF0400E297B0223BA
:1027C000009003AA38468DF80CE08DF80DC004F097
:1027D00059FBB442ECD104F1800608F101084E45E2
:1027E0005FFA88F8B8D105B0BDE8F08F2DE9F04F59
:1027F00085B0A1F1200504AC9DF83870009104E982
:102800000C00EBB25E2B00F29580036880465D4AB7
:10281000DB689DF8084093429DF8096040F0948081
:102820008020B8F804302344834200F38380D8F832
:102830000030554A9B68934240F088804020B8F8A9
:10284000062093190192834274DC002E00F08980E7
:1028500006FB05F56FF00040039B964628442E4486
:10286000B8F804A003EB4000023B03EB460B30F842
:10287000026FBCB30EF007034FF0010C4FEADE020B
:1028800051460CFA03FC0AF110034FFA8CFC03EBDF
:10289000C21200236FEA0C0942440EE07F2907D8D8
:1028A000BEF13F0F04D815789FB14CEA05051570AD
:1028B0000133013201319C4214D006FA03F52D0494
:1028C000ECD47F29F4D8BEF13F0FF1D81578002F52
:1028D000EBD0013309EA0505013201319C4202F8CF
:1028E000015CEAD158450EF1010EC0D1D8F8003094
:1028F00054442449DA68A4B28A422DD1802084420B
:102900001CD29B68204AA8F80440934221D1402061
:10291000019B834207D3D8F800301B4A9B6893423F
:1029200029D13F230193DDE90003A8F8063005B063
:10293000BDE8F08F002005B0BDE8F08FDA681149DE
:102940008A4211D17F24DCE798476AE740469847DE
:1029500075E740469847DBE740469047D8F8003097
:10296000CDE7B8F804A0C1E7404690470138D8F851
:10297000003084B2C5E740469847013883B20193DE
:10298000D1E700BF6D1700083D2600087F291ED83B
:102990003F2A1CD86BB1D3084FF0010C02F007029C
:1029A00001EBC3130CFA02F2C1180B7C1A430A7430
:1029B0007047D3084FF0010C02F0070201EBC3137C
:1029C0000CFA02FCC1180A7C22EA0C020A74704755
:1029D0002DE9F04F2DED068B83B01F4680460D4646
:1029E0009DF8503016460193139B002BC0F22182B4
:1029F000129A134406EE103ADDED127AB8EEC66B69
:102A00009FEDCD4BB8EEE77B9FEDCD5B27EE047BD2
:102A100026EE046B87EE050B86EE05ABF7EEC08B5A
:102A2000B0EE680A12F098FB07EE907AB7EECAABE8
:102A3000F8EE679AB0EE408AB0EE680A12F094FDA4
:102A400060EE698AB0EE4A0A12F086FBB0EE409A58
:102A5000B0EE4A0A12F088FD20EE690A29EE888A53
:102A600029EE899A70EE687AF0EE006A39EE487ABB
:102A700067EEA77AE7EE077AF4EEE67AF1EE10FA5F
:102A800006D5139BB42B40F396804FF0010901E06B
:102A90004FF00009012478424FF0000C0095E31B31
:102AA000214627462246A340B9F1000F6AD142428F
:102AB00006EE90CACCF1000107EE102AB8EEE66AE5
:102AC00007EE901A06EE900AB8EEC77A139A66EEF1
:102AD000084AF8EEE77AB42A27EE284AF8EEE66AC2
:102AE00067EE885A74EEC43A26EEA85A26EE096AB2
:102AF00066EE806A67EE897A27EE007AF5EEC03AD4
:102B000040F3F280F1EE10FA00F17F8176EE473A61
:102B100074EEC54AF5EEC03AF1EE10FAF5EEC04A91
:102B2000CCBF01220022F1EE10FA00F1778136EEDF
:102B3000666A35EEC55AB5EEC06AF1EE10FAB5EE2A
:102B4000C05ACCBF01210021F1EE10FA00F16F81D3
:102B500077EEE66AF5EEC06AF1EE10FACCBF012717
:102B6000002775EEC45AF5EEC05AF1EE10FA00F1E6
:102B7000478177EEC77AF5EEC07AF1EE10FACCBF56
:102B800001240024002A40F08A80002964D1BFB9C2
:102B9000C4BB9C4558DB0CF1010C03EB4C0E1CEB49
:102BA000000F0EF1010E00F0C08098424FDB73461B
:102BB00000287FF779AF03B0BDEC068BBDE8F08F3E
:102BC000009DA6EB0C0E00EB050ABAF17F0FDFD8D3
:102BD000BEF13F0FDCD84FEADE0B019D0AEBCB1AAA
:102BE000002D00F0B1800EF0070BC2444FF0010E33
:102BF0000EFA0BFE9AF810B04EEA0B0E8AF810E0AF
:102C0000002CC6D0009DA6EB0C0EA5EB000ABAF175
:102C10007F0FBED8BEF13F0FBBD84FEADE0B019D40
:102C20000AEBCB1A002D00F0AE800EF0070BC24469
:102C30004FF0010E9C450EFA0BFE9AF810B04EEACA
:102C40000B0E8AF810E0A6DA98429E46AFDA013001
:102C50000EEB40030133ABE7009D0CEB060E00EBDF
:102C6000050ABAF17F0F92D8BEF13F0F8FD84FEA15
:102C7000DE0B019D0AEBCB1A002D73D00EF0070B73
:102C8000C2444FF0010E0EFA0BFE9AF810B04EEA55
:102C90000B0E8AF810E0002F3FF47AAF90E7009D0A
:102CA0000CEB060EA5EB000ABAF17F0F3FF66DAFF5
:102CB000BEF13F0F3FF669AF4FEADE0B019D0AEB15
:102CC000CB1A002D6DD00EF0070BC2444FF0010E51
:102CD0000EFA0BFE9AF810B04EEA0B0E8AF810E0CE
:102CE00000293FF454AFB7E7F1EE10FA7ED44A461C
:102CF00074EEC54AF5EEC04AF1EE10FA6CD400212C
:102D000035EEC55AB5EEC05AF1EE10FA5AD4002786
:102D100075EEC45AF5EEC05AF1EE10FA3FF529AF40
:102D20000024002A3FF431AFB9E798428FDB00233B
:102D30003BE700BFAFF300807A008BFCFA2109402B
:102D40000000000000806640C2444FF0010B0EF00E
:102D5000070E0BFA0EFE9AF810B02BEA0E0E8AF848
:102D600010E015E7C2444FF0010B0EF0070E0BFA0E
:102D70000EFE9AF810B02BEA0E0E8AF810E0002F23
:102D80003FF406AF1CE7C2444FF0010B0EF0070EF4
:102D90000BFA0EFE9AF810B02BEA0E0E8AF810E02D
:102DA000F7E6C2444FF0010B0EF0070E0BFA0EFED1
:102DB0009AF810B02BEA0E0E8AF810E000293FF4C2
:102DC000E6AE49E777EEE66AF5EEC06AF1EE10FA94
:102DD000CCBF012700279BE736EE666AB5EEC06AD6
:102DE000F1EE10FACCBF0121002189E776EE473AD7
:102DF000F5EEC03AF1EE10FACCBF0122002277E7DF
:102E00000124002A3FF4C1AE49E774EEC54A01220D
:102E1000F5EEC04AF1EE10FA7FF589AE35EEC55AEF
:102E20000121B5EEC05AF1EE10FA7FF591AE0127FF
:102E300097E6DDE91223134406EE102A1293139B42
:102E40005B421393D8E500BF2DE9F04F87B09DF8A2
:102E50004850109C2E4601959DF844509EB39942CF
:102E60002ED89946A24228D87F29164694BF00231F
:102E7000012308E09CF810804EEA080E8CF810E060
:102E80000136B44219D33F2EFAD8002BF8D14FEABD
:102E9000D60C06F0070E4FF0010801EBCC1C08FA27
:102EA0000EFE8444002DE5D19CF810B001362BEACB
:102EB0000E0AB4428CF810A0E5D201318945D1D276
:102EC00007B0BDE8F08FA3EB0108B8F1000FB8BF61
:102ED000C8F100089942C0F04E817F2B4FF0FF3AB5
:102EE00094BF002601263F2A009694BF00270127A1
:102EF0000297A6B99FB9D60802F0070C012703EB89
:102F0000C6160644002D00F0948107FA0CF796F8D7
:102F100010C047EA0C0737740026029600969942C3
:102F200000F09781464694468E46BEF17F0F16D834
:102F3000BCF13F0F13D84FEADC070CF0070B4FF042
:102F400001090EEBC7170744002D00F0398109FA7B
:102F50000BF997F810B049EA0B0987F81090770041
:102F600018BFD644B84502DD46440CF1FF3C73451A
:102F7000DBD16245D9D100260496A4EB0209009F5B
:102F8000B9F1000FB8BFC9F100093F2C94BF00266A
:102F90000126A242C9F100080396C0F02381002F48
:102FA00040F05081002E40F04D814FF0FF360096EA
:102FB000E60803EBC6160644002D00F01E814FF014
:102FC000010C04F007070CFA07F796F810C047EA5F
:102FD0000C07377400260396A24200F03D81C446D8
:102FE00016461F4605927F2F15D83F2E13D84FEA5D
:102FF000D60E06F0070B4FF0010A07EBCE1E8644F3
:10300000002D00F0E6800AFA0BFA9EF810B04AEAAA
:103010000B0A8EF810A0B8EB4C0F4FEA4C0E02DAF8
:10302000ACEB090C013FBEF1000F01D0009A164431
:10303000BB42D8D1B442D6D1059AA1EB030EBEF162
:10304000000FB8BFCEF1000E7F2994BF4FF0000AE9
:103050004FF0010A99428CBF4FF001094FF0FF3940
:10306000BAF1000F13D1039E8EB9E60801EBC61624
:103070000644002D00F0D3804FF0010C04F0070748
:103080000CFA07F796F810C047EA0C073774049E4D
:1030900026BB774626467F2B14D83F2E12D84FEA00
:1030A000D60C06F0070B4FF0010803EBCC1C844450
:1030B000002D73D008FA0BF89CF810B048EA0B0802
:1030C0008CF810805FEA470C18BF4B44E64501DDE1
:1030D0007744013E9942DED1B442DCD1A2EB040E2A
:1030E000BEF1000FB8BFCEF1000EA2428CBF4FF070
:1030F00001084FF0FF38CEF1000CBAF1000F0ED1ED
:10310000029B63B9D30802F00707012601EBC31342
:103110000344002D7CD0BE401F7C3E431E74019BA7
:10312000002B7FF4CDAE66460B467F2B12D83F2C8A
:1031300010D8E70804F0070A4FF0010903EBC7179E
:103140000744A5B309FA0AF997F810A049EA0A0951
:1031500087F81090BCEB460F4FEA460702DAA6EB61
:103160000E06013B07B144449942DED1A242DCD1B4
:1031700007B0BDE8F08F3F2A4FF0010A94BF002648
:1031800001267F2B029694BF002701270097002E6F
:103190007FF4C8AE002F3FF4AEAEC3E608FA0BFBD7
:1031A0009CF8108028EA0B088CF810808AE709FA4E
:1031B0000AFA97F8109029EA0A0987F81090C9E7E7
:1031C00009FA0BFB97F8109029EA0B0987F8109081
:1031D000C5E60AFA0BFB9EF810A02AEA0B0A8EF845
:1031E00010A018E797BB8EBB01260096E60803EBFC
:1031F000C6160644002D7FF4E2AE012704F0070C4A
:10320000039507FA0CFC377C27EA0C073774E3E6D2
:1032100006FA07F71E7C26EA07061E747FE70127D9
:1032200004F0070C07FA0CFC377C27EA0C0737740C
:103230002DE707FA0CFC377C029527EA0C0700956E
:1032400037746CE64FF0FF360096C5E6012600960F
:10325000C5E60126049690E601260196EDE600BF3C
:10326000F8B5214C04F1180554F8040B03685B68A9
:103270009847AC42F8D11D4C04F1100554F8040BEA
:1032800003681B689847AC42F8D1194C04F110054B
:1032900054F8040B03681B689847A542F8D1154CF5
:1032A0002068A0B10368144D144E29781F68234686
:1032B0003268B847124A137813B123685B682360F9
:1032C000002310492B70137033600B70F8BD0C4A4B
:1032D000094D13781BB92B780BB9084EF0E70A4B50
:1032E000064E1B682360EBE7A40900244C0A002467
:1032F0007805002490050024E8090024E40900244E
:103300005805002488050024B00A00242DE9F04F58
:10331000DFF8FCB24FF4806200210BF110002DEDBC
:10332000028B91B012F06AFBB04B186840B1036891
:1033300059465B6811B0BDEC028BBDE8F04F1847F1
:103340004FF00513AA4A4FF00508CBF80430A94BFB
:1033500051780593157853680391049308EB05039E
:10336000802B019366DCBBF806A0039A0AEB0203EC
:10337000402B5FDC002A4AD0059B6FF0004C039A7B
:1033800054461B685B691B783033DBB2203B02FB81
:1033900003F39C441344049AA2F1020902EB4C0C7F
:1033A00009EB43093CF8026F6DB304F007030127F2
:1033B000E20841469F4008F110037FB203EBC212BE
:1033C00000236FEA070E5A440BE07F2904D83F2CF4
:1033D00002D8107838431070013301320131AB420A
:1033E00011D006FA03F00004EFD47F29F4D83F2C63
:1033F000F2D810780133013201310EEA0000AB42FD
:1034000002F8010CEDD1CC4504F10104CAD1BDF89C
:103410000480BAF13F0F28BF4FF03F0AB8F17F0F89
:1034200028BF4FF07F08ABF806A008EB0503ABF808
:1034300004800193019A704B802A02934FF020037D
:103440006CDCBBF80690039909EB0102402A65DCAD
:10345000002944D0039A203B6FF0004C4C4602FBFD
:1034600003F39C441344049AA2F1020A02EB4C0CAD
:103470000AEB430A3CF8026F6DB304F0070301271F
:10348000E20841469F4008F110037FB203EBC212ED
:1034900000236FEA070E5A440BE07F2904D83F2C23
:1034A00002D8107838431070013301320131AB4239
:1034B00011D006FA03F00004EFD47F29F4D83F2C92
:1034C000F2D810780133013201310EEA0000AB422C
:1034D00002F8010CEDD1E24504F10104CAD1BDF8B6
:1034E0000480B9F13F0F029A28BF4FF03F09B8F1AD
:1034F0007F0F12F8013F28BF4FF07F08ABF806900E
:103500000292ABF804804BB1A3F120025E2A05D8E9
:1035100008EB05020192019A802A92DD059B374A49
:1035200004339A42059302D0BBF8048016E7344B6B
:103530000593344BCBF80430059A05219FED327A80
:103540000CA852F8043BDB680592D3ED007A2F4AB1
:1035500067EE877AFDEEE77A17EE903A12F050FBAD
:10356000234A9DF83030517814785268BBF804C073
:1035700003910492002B00F085800CAA0192203B5D
:103580000CEB0409DAB25E2A7ED8B9F1800F00F3A1
:10359000CD80BBF80620039902920A44402A73DCCE
:1035A000002959D0039A6FF0004E029D02FB03F3ED
:1035B0009E441344049AA2F1020A02EB4E0E0AEB57
:1035C000430A3EF8026F002C42D005F007030127A2
:1035D000EA0861469F400CF110037FB203EBC21270
:1035E00000236FEA07085A4420E000BF900500243A
:1035F000940000247805002434650108880500241F
:103600004C0A002405001E0000007F433C650108B1
:10361000940500247F2904D83F2D02D81078384320
:103620001070013301320131A34211D006FA03F0C8
:103630000004EFD47F29F4D83F2DF2D8107801335D
:103640000132013108EA0000A34202F8010CEDD179
:10365000F24505F10105B4D1029A1FFA89FC0199DE
:103660003F2A11F8013F28BF3F22BCF17F0F019193
:1036700028BF4FF07F0CABF80620ABF804C0002B3E
:103680007FF47DAF0CEB0409B9F1800F4EDCBBF881
:103690000630039A01931344402B47DCCAB3019DC3
:1036A000DDE9033E0EEB430A3EF8026B6CB305F016
:1036B00007030127EA0861469F400CF110037FB21F
:1036C00003EBC21200236FEA07085A440BE07F297C
:1036D00004D83F2D02D810783843107001330132DE
:1036E0000131A34211D006FA03F00004EFD47F2980
:1036F000F4D83F2DF2D8107801330132013108EAB5
:103700000000A34202F8010CEDD1F24505F10105DC
:10371000CAD1019A1FFA89F33F2A28BF3F227F2B83
:1037200028BF7F23ABF80620ABF80430A64B059AE0
:1037300093427FF401AFA54B1B681B79002B00F06F
:103740005883A34D09A90AA800242B6893ED000A09
:1037500000F0ECFF9F4B2A68B0EE408A8DF83F40A6
:1037600093E803000B0C0E90ADF83C100EA88DF8FA
:103770003E300821D2ED007A974AFDEEE77A17EE47
:10378000903A12F03DFA099BADF82040092B40F227
:103790003583FFEE007A00230B93B4EEE78AF1EE57
:1037A00010FA07DDF7EE007AB4EEE78AF1EE10FAD0
:1037B00000F12D8304934FF480620021874812F0BA
:1037C0001DF9874B082203F14F018BF8622013F893
:1037D000012F42F0080299421A70F8D19BF8E223B7
:1037E000032342F020028BF8E223D90803F00700FC
:1037F00001220BEBC1111344824091F862003D2B72
:1038000042EA000281F86220EFD19BF8932342F054
:1038100020028BF89323734AA2F14F0012F8011D86
:1038200041F0200190421170F8D19BF8132042F032
:1038300008028BF81320D90803F007000122013B8E
:103840000BEBC1118240032BC87C42EA0002CA7410
:10385000F1D19BF88C2042F008028BF88C20624A50
:1038600002F1270012F8011F41F008019042117087
:10387000F8D19BF80C2442F020028BF80C24D908D4
:1038800003F0070001220BEBC1111344824091F8B1
:103890008C003D2B42EA000281F88C20EFD19BF88E
:1038A000E52342F020028BF8E523504AA2F12700DD
:1038B00012F8011D41F0200190421170F8D19BF8DF
:1038C000652042F008028BF86520D90803F0070054
:1038D0000122013B0BEBC1118240032B91F86500E3
:1038E00042EA000281F86520EFD1DDF828904A46CF
:1038F00012F8013B33B1002312F8011B01330029F8
:10390000FAD19BB23A4A51781578526801910592E2
:10391000AAB213FB02F303921BB223EAE3735B1018
:10392000C3F168039BB27F2B28BF7F23ABF8043021
:103930004B08C3F116039BB23F2B28BF3F23ABF8C4
:10394000063099F800A0BAF1000F00F08F80AAF1BC
:103950002003DAB25E2A00F25782BBF804E00EEBD5
:103960000502802A00F35082BBF8062001990292DA
:103970000A44402A00F3488200295FD0019A6FF080
:10398000004CCDF818A002FB03F3029C9C441344A6
:10399000059A02EB4C0C023A02EB43039A463CF8C0
:1039A000026F002D44D004F007030127E20871469E
:1039B0009F400EF110037FB203EBC21200236FEAA7
:1039C00007085A4422E000BF5C0A0024A40900242E
:1039D000480A0024446301083C650108A40500244A
:1039E000A605002477090024F8050024A109002475
:1039F0008C0000247F2904D83F2C02D8107838434B
:103A000010700133013201319D4211D006FA03F0EA
:103A10000004EFD47F29F4D83F2CF2D8107801337A
:103A20000132013108EA00009D4202F8010CEDD19B
:103A3000E24504F10104B2D1DDF818A0039B029A1B
:103A400073443F2A9BB228BF3F227F2BABF806204E
:103A500028BF7F23ABF8043099F80030534505D1D7
:103A600019F801AFBAF1000F7FF471AF9DF8203063
:103A7000002B00F0DD8100220DF1210111F8010B76
:103A800001320028FAD192B2734844780178406834
:103A90000394059088B210FB02F2019012B222EA60
:103AA000E2725210C2F1680292B27F2A28BF7F22CE
:103AB000ABF8042062080692C2F1330292B23F2AA8
:103AC00028BF3F220792ABF80620002B6DD008AA32
:103AD0000292203BDAB25E2A67D8BBF804C00CEB36
:103AE0000102802A61DCBBF80690039809EB000212
:103AF000402A5ADC002843D0039A6FF0004E4D460E
:103B000002FB03F39E441344059AA2F1020A02EB5E
:103B10004E0E0AEB430A3EF8026F69B305F0070345
:103B20000127EA0860469F400CF110037FB203EBC7
:103B3000C21200236FEA07085A440BE07F2804D81A
:103B40003F2D02D814783C43147001330132013008
:103B5000994211D006FA03F42404EFD47F28F4D854
:103B60003F2DF2D8147801330132013008EA040401
:103B7000994202F8014CEDD1F24505F10105CAD197
:103B8000019BB9F13F0F029A634428BF4FF03F09F0
:103B90009BB2ABF806907F2B28BF7F23ABF8043095
:103BA00012F8013F0292002B93D1049B002B00F0EE
:103BB0008C8000230DF12D0212F8010B0133002837
:103BC000FAD1079AABF80620019A13FB02F31BB255
:103BD00023EAE3735B10C3F129039BB27F2B28BF59
:103BE0007F23ABF804300BAB0293049B203BDAB28B
:103BF0005E2A6AD8BBF804C00CEB0102802A64DCA0
:103C0000BBF80690039809EB0002402A5DDC00280F
:103C100046D0039A6FF0004E4D4602FB03F39E44DC
:103C20001344059AA2F1020A02EB4E0E0AEB430A74
:103C30003EF8026F81B305F007030127EA086046EA
:103C40009F400CF110037FB203EBC21200236FEA16
:103C500007085A440EE000BF840000247F2804D8DF
:103C60003F2D02D814783C431470013301320130E7
:103C7000994211D006FA03F42404EFD47F28F4D833
:103C80003F2DF2D8147801330132013008EA0404E0
:103C9000994202F8014CEDD1F24505F10105C7D179
:103CA000019BB9F13F0F029A634428BF4FF03F09CF
:103CB0009BB2ABF806907F2B28BF7F23ABF8043074
:103CC00012F8013F0292002B90D19DF83830002B62
:103CD00000F0B08000220DF1390010F8014B0132E4
:103CE000002CFAD101980EAC12FB00F20698029457
:103CF00012B2C0F1120022EAE27280B252103F28E2
:103D0000C2F1290228BF3F2092B2ABF806007F2AF9
:103D100028BF7F22ABF80420203BDAB25E2A68D8A5
:103D2000BBF804C00CEB0102802A62DCBBF80690F1
:103D3000039809EB0002402A5BDC002843D0039A79
:103D40006FF0004E4D4602FB03F39E441344059A68
:103D5000A2F1020A02EB4E0E0AEB430A3EF8026F92
:103D600069B305F007030127EA0860469F400CF19C
:103D700010037FB203EBC21200236FEA07085A4414
:103D80000BE07F2804D83F2D02D814783C431470F0
:103D9000013301320130994211D006FA03F42404B0
:103DA000EFD47F28F4D83F2DF2D8147801330132B4
:103DB000013008EA0404994202F8014CEDD1D645DD
:103DC00005F10105CAD1019BB9F13F0F029803EB40
:103DD0000C0228BF4FF03F0910F8013F92B2ABF838
:103DE000069002907F2A28BF7F22ABF80420002B88
:103DF00092D111B0BDEC028BBDE8F08F144A0221C4
:103E000008A811F0FDFEC4E44FF0000A24E6DFED3F
:103E1000117A04210E4A0BA828EE278AFDEEC87AF3
:103E200017EE903A11F0ECFE9DF82C300493C2E4AA
:103E30001A4629E6069B2922C3F11203ABF8042097
:103E40009BB23F2B28BF3F23ABF80630D1E700BF22
:103E50003C6501080000C84284B070B584B00446D7
:103E60004FF47A7609AD85E80E009DF83830294682
:103E70000025037102F070FFAE2303AA00968DF8AF
:103E80000D302046217902238DF80C5002F0FAFF04
:103E9000D52303AA0096204621798DF80D30022300
:103EA0008DF80C5002F0EEFF802303AA0096204606
:103EB00021798DF80D3002238DF80C5002F0E2FFCD
:103EC000A82303AA0096204621798DF80D300223FD
:103ED0008DF80C5002F0D6FF3F2303AA009620462F
:103EE00021798DF80D3002238DF80C5002F0CAFFB5
:103EF000DA2303AA0096204621798DF80D3002239B
:103F00008DF80C5002F0BEFF122303AA0096204643
:103F100021798DF80D3002238DF80C5002F0B2FF9C
:103F2000D32303AA0096204621798DF80D30022371
:103F30008DF80C5002F0A6FF03AA00960223217907
:103F400020468DF80C508DF80D5002F09BFF402359
:103F500003AA0096204621798DF80D3002238DF8B2
:103F60000C5002F08FFFA62303AA00962046217969
:103F70008DF80D3002238DF80C5002F083FFA4233E
:103F800003AA0096204621798DF80D3002238DF882
:103F90000C5002F077FF8D2303AA0096204621796A
:103FA0008DF80D3002238DF80C5002F06BFF1423B6
:103FB00003AA0096204621798DF80D3002238DF852
:103FC0000C5002F05FFFA12303AA0096204621793E
:103FD0008DF80D3002238DF80C5002F053FFC823EA
:103FE00003AA0096204621798DF80D3002238DF822
:103FF0000C5002F047FF812303AA00962046217946
:104000008DF80D3002238DF80C5002F03BFF8F230A
:1040100003AA0096204621798DF80D3002238DF8F1
:104020000C5002F02FFFD92303AA009620462179D5
:104030008DF80D3002238DF80C5002F023FF25235C
:1040400003AA0096204621798DF80D3002238DF8C1
:104050000C5002F017FFDB2303AA009620462179BB
:104060008DF80D3002238DF80C5002F00BFF342335
:1040700003AA0096204621798DF80D3002238DF891
:104080000C5002F0FFFEAF21009603AA02238DF828
:104090000D10204621798DF80C5002F0F3FE04B08B
:1040A000BDE8704004B070472DE9F04F0021ADB07D
:1040B000CC48002700F0CAFC2021CA484FF0010A72
:1040C00000F0ECFB0321C7480DF1680800F0CAFBC3
:1040D00010213C221DABC44D1D978DF878108DF832
:1040E0007C20C24C0495C24EDFF870B393E8070001
:1040F000CDE91A748DE80700CDF870A03C46BD48A4
:1041000098E80E00FFF7A8FEBB4BBC4A30201360B6
:10411000BB4A136011F005F881465146FDF72EF9B0
:1041200030204A46CDF81490131D336009F1240362
:10413000736010F0F6FF81465146FDF73DF909F135
:104140000403B048B36009F124032B6010F0E9FFC9
:1041500039460690FDF75CF9069BF420AA4A191D22
:1041600007931A44F160A9490A6010F0DAFF394652
:104170000690FDF777F9069A7C20111D316102F156
:10418000DC01696002F1E801A96010F0CAFF07468E
:104190009FED9F0A5146FDF71FFA391D28207161D6
:1041A00007F15801E96007F16401296107F1700125
:1041B000696110F0B6FF51468246FDF77BFA9549DA
:1041C000079B069A0B60059B4A604B610AF104034A
:1041D000C1F808A0B3610AF11C03C1E90397049F69
:1041E000DFF87C92AB6104F10F00C0B200F020FB5D
:1041F00003461020ADF8583010F093FF04EBC402D2
:10420000169B7849054608EB4202FCF795FF57F8E4
:10421000040B2346CBF80050E86007217E4A0134A6
:10422000856013A811F0ECFC182010F07AFF00252F
:1042300006465BF8043B1030784A13A9756032607B
:10424000C6E9020311F010FD042C49F8046BCAD131
:104250004146234622467248724E01F0EBFEDFF8DB
:104260000482634FDFF800926D4802F0F1F805F127
:104270001600C0B200F0DCFA03461820ADF8583042
:1042800010F04FFF16990446FCF73EFF57F804CB99
:104290002B463460C4F814C00921CCF8084013A898
:1042A000614A013511F0ACFC1C2010F03AFF56F8C1
:1042B000043B04460022103013A9C4E90092C4E96B
:1042C000020311F0D1FC042D48F8044BCFD1574C18
:1042D000574D584F04F11C06102010F022FF54F8DF
:1042E000043F00215A68B44245F8040FC0E9007148
:1042F000C0E90223F0D1504D504EDFF8708105F136
:104300001C071020002410F00CFF55F8043F5A68D9
:10431000BD4246F8040BC0E90084C0E90223F0D195
:10432000012507239FED460A02268DF825302A46EF
:104330008DF824502B46434803270999009401F037
:10434000E7FD08238DF828608DF8293009239FEDBB
:104350003C0A0A993C488DF82C608DF830708DF835
:1043600031608DF82D30DFF80891DDE90B2301F085
:1043700011FD0C230B228DF834508DF835300A23B3
:104380000D9932488DF838608DF83C608DF83920F1
:104390008DF83D300094DDE90E2301F069FDB6EEA5
:1043A000081ADFED1B0A9FED2A0A284801F088FD54
:1043B0004FF0FF33179418938DF86440169704F06C
:1043C00013F8244A00FA05F316A92348A2FB032395
:1043D00011949B098DF864501294189303F01CFDFE
:1043E00048E000BF080A0024EC0900240108010984
:1043F0005C0500249C0500249804002490050024FA
:10440000B00A00242C00040028000400480A0024FC
:104410000AD7233CA409002440650108306501083F
:10442000200A00247805002448650108E8090024D2
:10443000A80400249865010858050024C804002435
:104440000000000048050024BC0900245C0A002488
:104450003333333FD34D62108C0500244C0A0024C3
:10446000240500240005002424650108A465010832
:10447000940500242D4911AA2D4803F047FD2C482E
:1044800003F032FD2B492C4800F0E8F9DFF8B0804A
:104490004FF0B00AFEF7E4FEFEF738FF4FF47A76ED
:1044A000002599F80C10022310AA24480096102722
:1044B0008DF84050A8F180048DF841A002F0E2FC94
:1044C00099F80C10022310AA1C4800968DF8405051
:1044D0008DF8415002F0D6FC99F80C10022310AA76
:1044E000164800968DF840508DF8417002F0CAFCD5
:1044F00040264FF47A7714F8015F022399F80C10E4
:104500000DEB06020D4800978DF840608DF8415084
:1045100002F0B8FCA045EBD10AF1010A08F18008CD
:104520005FFA8AFABAF1B80FB8D1AFE741260008AE
:104530008C050024DD260008080A00249C050024C0
:104540002306002410B514480024144A14490460BA
:1045500044610462C46310F0DDFD104A1149124841
:1045600010F0D8FD0D4A1149114810F0D3FD0B4A47
:104570001049114810F0CEFD1048114B074A11495F
:104580008460036010F0C6FD0F48044A04600F49C0
:10459000BDE8104010F0BEBD080A00240000002451
:1045A00025260008212600085C0A00241D26000894
:1045B000BC0900241926000848050024940500249D
:1045C0005C650108392600088C05002415260008C2
:1045D0000B4A136810B51C18B4F1707F0CD214602C
:1045E000084A134431B128B102460021184611F09F
:1045F00005FA0346184610BD0023184610BD00BF3B
:10460000B40A0024000000C001292DE9F0438046CF
:104610001C462DED068B83B06ED000290F469146C7
:104620004FEA4202B8BF4F1C0E4601927F1003EBC7
:10463000C7053946FFF7E8FF019A08EB89002B46CA
:104640003946FFF7E1FF012E51DD07EE906A0026A3
:10465000B8EEE7AA07EE906A9FED327AD4ED009AA1
:104660000136B8EEE70ADFED307A94ED019A60EE9C
:10467000277A20EE070AC7EE8AAA80EE0A0A10F00F
:1046800099FEB0EE408AB0EE6A0A10F065FDF0EED9
:10469000408AB0EE6A0A10F067FF28EE000A68EE62
:1046A000288AD5ED010AD5ED006A20EEC07A68EEC1
:1046B000A07AA8EEA67AE0EE267AF4EE477AF1EE3A
:1046C00010FA22D639EE876A083579EE276AB742A2
:1046D00039EEC77A04F1080479EE677A04ED026ACC
:1046E00044ED016A05ED027A45ED017AB2DC03B0D2
:1046F000BDEC068BBDE8F083026800232260636096
:1047000003B0BDEC068BBDE8F083F0EE401AB0EECE
:10471000681AB0EE660AFCF707F8B0EE407AF0EEE1
:10472000607ACFE700000080DB0FC9C0DFED1F7AA1
:1047300038B580EE270A05460C462DED028B10F0A9
:10474000ABFEB2EE088AFAEE027AF0EE408AF0EEA4
:10475000480AE0EE087AB0EE670A11F00BF8B9EEFD
:10476000047AF8FE407AFDEEE76A30EE670A104BF5
:10477000A8EE887A0F4916EE902A002AB8BF524256
:10478000C7EE087AA3FB0203DB0803EB4303A2EBAB
:104790008303BDEC028B51F823302B60F8FE677A5F
:1047A000FDEEE77AC4ED007A38BD00BF13D0824138
:1047B000ABAAAAAA040000240160C260B3FBF2F114
:1047C00001FB12320023C0E901237047D0E9023215
:1047D00013441944B1FBF2F302FB1311416070471B
:1047E0004368C268591A01EB4201B1FBF2F302FBC4
:1047F00013118160704700BF83680268C16802EBD3
:10480000830201338B4292ED000A836001D30023BF
:1048100083607047D0E90023C16802EB8302013353
:104820008B4282ED000A436001D30023436070474E
:10483000202882B009D8084B03EB400213F810304F
:10484000507843EA002002B0704701230C2043EA6D
:10485000002002B0704700BFD8650108143001F095
:1048600065BA00BF38B500F1140504462DED028B82
:10487000284601F017FA284601F010FA2846B0EE53
:10488000408A01F0F9F9D0ED007AF8EE677A88EE07
:10489000277ABDEC028B84ED0E7A38BD38B500F175
:1048A000140504462DED028B284601F0E9F928464F
:1048B00001F0F4F92846B0EE408A01F0DDF9D0EDC0
:1048C000007AF8EE677A88EE277ABDEC028B84EDE9
:1048D0000E7A38BD10B540F203338EB000244FF687
:1048E0000B7240F20341ADF8083009A80123ADF87E
:1048F0001020ADF824202246ADF80C100094029947
:1049000007940C94CDE90544CDE90A4401F0BEFEBC
:1049100004A8012322460399009401F0B7FE09A8D8
:1049200001F09AFF10B901200EB010BD04A801F0EB
:1049300093FFA0420CBF022020460EB010BD00BF66
:104940002DE9F04103239AB0012700240646CDE962
:1049500014373B4BCDE9104340F20453CDE91647E1
:10496000ADF84830FFF7B6FFB842054625D002281B
:1049700045D040F60132334B0DF12C081894ADF8B8
:104980002C200B981997CDF84A3000F0E3F810A9C5
:1049900006F13C0002F0A8FF302003224FF07E53C6
:1049A00041460D930E93CDE90B02F26B06F1140014
:1049B00001F02AF91AB0BDE8F0811023214A06A9B6
:1049C00006908DF828300DF12C081F4BCDF84A20A9
:1049D00007930294CDE91804CDE9080402A802F077
:1049E000BBF90823029A03A94046ADF80C508DF894
:1049F0000E40049505930B9400F0ECF8C7E70020F7
:104A00000121104B0DF12C083A460094CDF84A30A4
:104A10004FF60B730C94ADF82C302346CDE91801FA
:104A200040F601314046ADF818100699CDE90D4425
:104A300001F02CFE2146404601F01AFFA7E700BF17
:104A400004020404040604030704010B2DE9F047E3
:104A500004462DED028B82B000294DD0012140F299
:104A6000011200230091ADF804208DF80630364A7B
:104A70000127364B04F10409354904F12908626025
:104A800040F20272A36040F60663E16004F1250A79
:104A9000A4F82520A4F82930278284F8277084F808
:104AA0002B7003F0A3FC054603F004FB69460646A1
:104AB00050BB4DB304F130008DF8067003F01CFCC0
:104AC000072D3CD104F114052046FFF739FF284695
:104AD00001F0E4F82846B0EE408A01F0CDF8D0EDC0
:104AE000007AF8EE677A88EE277A84ED0E7A02B0C3
:104AF000BDEC028BBDE8F08740F2011300918DF808
:104B00000610ADF80430B2E704F1300003F0F4FB16
:104B1000072D11D04946204602F066FB0EB9002D44
:104B2000D0D1504601F0AEFE404601F0ABFE04F19C
:104B3000120000F079F9C5E7002EF2D1C2E749462C
:104B4000204602F051FBBDE70508050905070506EB
:104B5000050A060610B584B003460124ADF804002A
:104B600003A8ADF80C30ADF80E4001F08BFE2146E5
:104B700003A801F071FF204603F09AFA002103A870
:104B800001F06AFF204603F093FA214603A801F0E2
:104B900063FF04B010BD00BF10B5C2F3002384B0A2
:104BA0000C46017C8DF80D2043EA4402FA240223CE
:104BB0008DF80C2003AA009402F064F918B10124C6
:104BC000204604B010BD04460A2003F071FA2046C6
:104BD00004B010BD034670B543F8042B044684B0FE
:104BE00007C983E80700A37983B91A210B461E225F
:104BF000FA2523742046ADF80C20022303AA009561
:104C000002F040F928B1012004B070BD1B210B4611
:104C1000EDE70A2003F04CFA4FF4B8520095022356
:104C2000ADF80C20204603AA217C02F02BF90028C5
:104C3000E9D10A2003F03CFA41F202720095022306
:104C4000ADF80C20204603AA217C02F01BF90028B5
:104C5000D9D10A2003F02CFA042200950223ADF8E2
:104C60000C20204603AA217C02F00CF90028CAD1AE
:104C70000A2003F01DFA062200950223ADF80C204D
:104C8000204603AA217C02F0FDF80028BBD10A20AF
:104C900003F00EFA41F2082200950223ADF80C2031
:104CA000204603AA217C02F0EDF80028ABD10A20AF
:104CB000064603F0FDF90095022303AA217C204655
:104CC000ADF80C6002F0DEF800289CD1304603F00D
:104CD000EFF9009522790C232046002A8DF80C303C
:104CE00003AA4FF0020314BF622142218DF80D1078
:104CF000217C02F0C7F8002885D1304603F0D8F9AE
:104D00002279D4E902310B43DBB20AB943F0400304
:104D100062790AB143F020030E22FA258DF80D3096
:104D20002046009502238DF80C2003AA217C02F076
:104D3000A9F800287FF467AF0A2003F0B9F9102220
:104D400000950223ADF80C20204603AA217C02F036
:104D500099F800287FF457AF0A2003F0A9F912212F
:104D600000950223ADF80C1003AA217C204602F026
:104D700089F800287FF447AF0A2003F099F901224F
:104D800009212046FFF708FF003818BF01203BE744
:104D9000F0B5102387B0234C0122002501260027FF
:104DA00002A920460195CDE902234FF48052CDE9B6
:104DB00004670AF0D3F8642003F0BEFD02A94FF4A3
:104DC00080522046CDE9046702261027CDE902670C
:104DD0000AF0C4F80322102302A92046CDE90223D9
:104DE00000230422CDE904234FF480520AF0B6F8E0
:104DF00040F23223042202A9019310232046CDE978
:104E00000223019A012305924FF4805204930AF081
:104E1000A5F840F6060120460AF0C0F8284607B07B
:104E2000F0BD00BFC00A00241C4B00221C494FF0FB
:104E3000400C30B5054689B00220596007219A60C0
:104E40001A620124DA620A224FF4006EDC600692D4
:104E50002022CDE9000104200821CDE90201032030
:104E60001021CDE9040108206946C3E904024FF48A
:104E7000C072181DC3E906C24FF48052C3E909E2AB
:104E80000AF042F838B92846FFF782FF003818BF09
:104E9000012009B030BD204609B030BDBC0A002455
:104EA00040410052614A0021D0B513688EB00A918A
:104EB000002B40F0B9805E4B01214FF683700C242B
:104EC00011600221D3F8D4200026032742F4805237
:104ED000C3F8D420D3F8D42002F480520092009A70
:104EE000D3F8E02042F01002C3F8E020D3F8E0202D
:104EF00002F010020192019AD3F8E02042F0400241
:104F0000C3F8E020D3F8E02002F040020292029AB7
:104F1000D3F8E02042F00802C3F8E020D3F8E02004
:104F200002F008020392039AD3F8E02042F4807260
:104F3000C3F8E020D3F8E02002F480720492049ACF
:104F4000D3F8E02042F08002C3F8E020D3F8E0205C
:104F500002F080020592059AD3F8E02042F0200288
:104F6000C3F8E020D3F8E02002F020020692069A6F
:104F7000D3F8E02042F00402C3F8E020D3F8E03098
:104F80000C9403F0040307930323079A0B93CDE9D2
:104F9000080108A9274805F055FB48F237120223FB
:104FA00008A925480C94CDE90823CDE90A6705F046
:104FB00049FB4CF20372022308A920480C94CDE966
:104FC0000823CDE90A6705F03DFB40F2FF620223AA
:104FD00008A91B480C94CDE90823CDE90A6705F020
:104FE00031FB4FF60C72022308A916480C94CDE948
:104FF0000823CDE90A6705F025FB4FF63F0202239F
:1050000008A911480C94CDE90823CDE90A6705F0F9
:1050100019FB2022022308A90A480C94CDE90A674B
:10502000CDE9082305F00EFB0EB0D0BDB80A002470
:10503000004402580010025800180258000C025890
:1050400000200258001C0258001402582DE9F04FAD
:10505000DFF8108406460D46144608F118002DEDC1
:10506000028B89B000AF02F037FDD8F8183073B367
:10507000D8F81C30D8F80490002B43690BBF4FF0D0
:10508000080A4FF0100A4FF0020B4FF0040BB9F171
:10509000000F2AD0A200EA46012B02F1070222F0FB
:1050A0000702ADEB020D6846ADEB020D694600F05C
:1050B0003F81022B00F0D680002B6FD02246C847DC
:1050C000D5462437BD46BDEC028BBDE8F08FD8F83D
:1050D0001C30002BF5D0D8F804904FF0080A4FF0A0
:1050E000020B4369B9F1000FD4D1FB61D8F800304D
:1050F000BB61002BE5D0D54802F060FD6B46BBF1EB
:10510000020F786108EE103AFB6900F083816A466D
:105110005146A2EBC40295466200EA46B2FBFBF29E
:10512000AAEBC40085460AEB8200EE46F861ADEBBF
:10513000010DF8690EEB820CC7F810C0EC46ADEB20
:10514000010D00EB8201CCF80400CCF8081001EB53
:1051500082013869E946CCF80C1000EB8201CCF8EA
:1051600000A001EB8202C9E900E0C9E90212012BAB
:1051700000F06483022B00F06C82002B00F0808131
:10518000620849466046BB69984718EE103A2437D2
:105190009D46BD46BDEC028BBDE8F08F002C8DD046
:1051A0001A46D8ED0C6A9FEDB27A8446331D36F963
:1051B00022E00CF1080C07EE90EA33F922E002320B
:1051C000F8EEE77A944267EE877A67EEA67A4CEDBE
:1051D000027A07EE90EAF8EEE77A67EE877A67EEF2
:1051E000A67A4CED017AE2D8F9612246C847984E7A
:1051F000D8ED0D6A0020F9692B1D9FED9E7A9FED79
:105200009E6ADFED9E5A22E0F4EEC67AF1EE10FAC5
:10521000C0F2C88447F6FE72D1ED017A45F820202D
:1052200066EEA77AF4EEC77AF1EE10FA40F2F0805B
:10523000F4EEC67AF1EE10FAC0F2D58447F6FE72AB
:1052400043F820200230083184427FF639AFD1ED97
:10525000007A66EEA77AF4EEC77AF1EE10FAD3D8A8
:105260003246D9E7002C3FF429AFD8ED0C6A8446CA
:105270009FED787A0022331D8E4656F822100CF1ED
:10528000080C07EE901A53F822100232F8EEE77A73
:10529000944267EE877A67EEA67A4CED027A07EEC3
:1052A000901AF8EEE77A67EE877A67EEA67A4CED09
:1052B000017AE2D871462246C7F81CE0C847664E1C
:1052C000D8ED0D6A0020F9692B1D9FED6A7A9FEDDC
:1052D0006A6ADFF894C120E0F4EEC67AF1EE10FAC3
:1052E000C0F279843246D1ED017A45F8202066EE8D
:1052F000A77AF4EEC77AF1EE10FA40F28780F4EE66
:10530000C67AF1EE10FAC0F25E84324643F82020ED
:105310000230083184427FF6D3AED1ED007A66EEDA
:10532000A77AF4EEC77AF1EE10FAD5D86246DAE73A
:10533000002C3FF4C3AED8ED0C6A86469FED477A49
:105340004FF0000C331D56F82C200EF1080E82F49D
:105350000002A2F5000207EE902A53F82C200CF16F
:10536000020CF8EEE77A82F400026445A2F500022E
:1053700067EE877A67EEA67A4EED027A07EE902AFC
:10538000F8EEE77A67EE877A67EEA67A4EED017A55
:10539000D9D8F9612246C847314ED8ED0D6A0020B0
:1053A000F9692B1D9FED337A9FED336ADFF8BCC09E
:1053B0001FE0F4EEC67AF1EE10FAC0F2FC8332463A
:1053C000D1ED017A45F8202066EEA77AF4EEC77A8F
:1053D000F1EE10FA18D9F4EEC67AF1EE10FAC0F236
:1053E000DA83324643F820200230083184427FF6C7
:1053F00067AED1ED007A66EEA77AF4EEC77AF1EEE9
:1054000010FAD6D86246DBE76246EBE762467DE7F4
:10541000324615E7A100D6466208073121F00701A0
:10542000ADEB010DEA46ADEB010D6946ADEB0E0D9E
:105430000AEB8200EC46ADEB0E0D01EB8202F86147
:10544000E946CCE900A0C9E9001290E6100B00245F
:105450000280FFFF000000300082FF7F0000003468
:1054600082FF7F00F40A0024007E00807E0080FF1F
:105470000000003804FF7FBF04FF7F3F00FEFF46AF
:10548000002C00F0C982BBF1020FD8F8242000F0F4
:10549000FA827969C7F8049002EB810E5FED0C5A2D
:1054A0008A00DCF808100EF104007A611A46DCF874
:1054B0000C303B61331DD7F810903D61FD69C7E9A1
:1054C00002CB8C46834636F92210D8ED0C7A06EED4
:1054D000101A33F9221006EE901A3EF92210B8EE97
:1054E000C66A07EE101AF8EEE66A3BF92210B8EE2B
:1054F000C77A26EE256A66EEA56A27EE257A26EE9D
:10550000276A66EEA76A27EE277A07EE901A5108F7
:105510000232F8EEE77A0AEB8100944280ED006AED
:1055200005EB810067EEA57AC0ED006A0CEB810007
:1055300009EB810180ED007A98ED0C7A67EE877AAD
:10554000C1ED007ABFD8D7F804903D69D7E902CB06
:1055500060466208BB6949469847D8F82C307A699A
:10556000D8ED0D6A1A441FED3D7A1FED3D6A2B1DE3
:10557000904602F1040A5FED3F5A0022A84ED9E995
:1055800000EC51E0F4EEC67AF1EE10FAC0F2C782F8
:1055900047F6FE7045F822000CEB0100D0ED007AD2
:1055A00066EEA77AF4EEC77AF1EE10FA4BD9F4EE74
:1055B000C67AF1EE10FAC0F2BA8247F6FE70BBF17D
:1055C000020F43F822002BD0D9F808000844D0ED90
:1055D000007A66EEA77AF4EEC77AF1EE10FA36D9C1
:1055E000F4EEC67AF1EE10FAC0F2CD8247F6FE7004
:1055F00048F82200D9F80C000144D1ED007A66EE9B
:10560000A77AF4EEC77AF1EE10FA1ED9F4EEC67A54
:10561000F1EE10FAC0F2AF8247F6FE714AF822109E
:10562000023294427FF6B1AD51080EEB8100890041
:10563000D0ED007A66EEA77AF4EEC77AF1EE10FAB2
:10564000A0D83046A6E73046B9E73146E6E730460F
:10565000CEE7002C00F0E081BBF1020FD8F8243037
:1056600000F0E1817A69DCF8081003EB820EC7F8DC
:1056700004909300DFED6B5A0EF1040000227B6171
:10568000DCF80C303B61331DD7F810903D61FD69AB
:10569000C7E902CB8C46834656F82210D8ED0C7A27
:1056A00007EE101A53F82210B8EEC76A07EE101A68
:1056B0005EF82210F8EEC76A07EE101A26EE256A89
:1056C0005BF82210B8EEC77A66EEA56A26EE276A66
:1056D00027EE257A66EEA76A27EE277A07EE901A5C
:1056E00051080232F8EEE77A0AEB8100944280ED2D
:1056F000006A05EB810067EEA57AC0ED006A0CEB4D
:10570000810009EB810180ED007A98ED0C7A67EE5B
:10571000877AC1ED007ABFD8D7F804903D69D7E900
:1057200002CB60466208BB6949469847D8F82C30DE
:105730007A69D8ED0D6A1A449FED3E7A9FED3E6A74
:10574000131D9246DFF8E4C00022FB612B1D364E8C
:10575000D9E9008E4EE0F4EEC67AF1EE10FAC0F20E
:10576000FC81304645F822000EEB0100D0ED007AB6
:1057700066EEA77AF4EEC77AF1EE10FA49D9F4EEA4
:10578000C67AF1EE10FAC0F2EF813046BBF1020F9B
:1057900043F822002AD0D9F808000844D0ED007A56
:1057A00066EEA77AF4EEC77AF1EE10FA35D9F4EE88
:1057B000C67AF1EE10FAC0F2C98130464AF82200EA
:1057C000D9F80C000144D1ED007A66EEA77AF4EE28
:1057D000C77AF1EE10FA1ED9F4EEC67AF1EE10FA9D
:1057E000C0F2AD813146F86940F82210023294428D
:1057F0007FF6CBAC510808EB81008900D0ED007A30
:1058000066EEA77AF4EEC77AF1EE10FAA3D86046F6
:10581000A8E76046BAE76146E5E76046CEE700BF25
:105820000280FFFF000000300082FF7F007E0080CA
:105830000000003404FF7FBF04FF7F3F002C00F016
:10584000EB807A690021D8F82430C7F8109003EB78
:10585000820ED7F81C909300FD610EF104021FED3B
:105860000C6A7B61331D154656F821204808D8ED97
:105870000C6ABBF1020F82F40002A2F5000207EEEF
:10588000902A53F8212082F40002B8EEE77AA2F5BC
:10589000000227EE067A07EE902A0AEB8002F8EE65
:1058A000E77A27EE267A67EE867A82ED007A09EBB0
:1058B00080024FEA800067EEA67AC2ED007A27D018
:1058C0005EF8212082F40002A2F5000207EE902A81
:1058D00055F8212082F40002B8EEE77AA2F5000222
:1058E00027EE067A07EE902ADCF80820F8EEE77A31
:1058F000024427EE267A67EE867A82ED007A98EDEA
:105900000C7ADCF80C2067EE877A0244C2ED007A4C
:1059100002318C42A8D8D7F8109060466208BB6963
:105920004946FD699847D8F82C307A69D8ED0D6A58
:105930001A441FED407A1FED406A131D9246DFF8AE
:10594000C4C20022FB612B1DAB4ED9E9008E4EE094
:10595000F4EEC67AF1EE10FAC0F2C580304645F892
:1059600022000EEB0100D0ED007A66EEA77AF4EE8D
:10597000C77AF1EE10FA49D9F4EEC67AF1EE10FAD0
:10598000C0F2BF803046BBF1020F43F822002AD09C
:10599000D9F808000844D0ED007A66EEA77AF4EE54
:1059A000C77AF1EE10FA35D9F4EEC67AF1EE10FAB4
:1059B000C0F2AE8030464AF82200D9F80C0001440B
:1059C000D1ED007A66EEA77AF4EEC77AF1EE10FA1E
:1059D0001ED9F4EEC67AF1EE10FAC0F28B80314691
:1059E000F86940F82210023294427FF6CEAB51089B
:1059F00008EB81008900D0ED007A66EEA77AF4EE1C
:105A0000C77AF1EE10FAA3D86046A8E76046BAE775
:105A10006146E5E76046CEE7224649466046BB69F7
:105A20009847FFF7B2BBC7F810B0002298ED0C6A98
:105A3000331DDFED726AD7F81CB0786956F8221072
:105A400007EE901A53F82210B8EEE77A07EE901A94
:105A500051080232F8EEE77A27EE267A0AEB810E39
:105A600094420BEB810167EEA67A27EE067A67EE89
:105A7000867A8EED007AC1ED007ADFD88300D7F800
:105A800010B07B614DE61A46C7F810B098ED0C6A6D
:105A9000331DDFED5B6AD7F81CB0786936F9221048
:105AA00007EE101A33F9221007EE901AB8EEC77AF3
:105AB00051080232F8EEE77A27EE267A0AEB810ED9
:105AC00094420BEB810167EEA67A27EE067A67EE29
:105AD000867A8EED007AC1ED007ADFD88300D7F8A0
